:100000000203D625277286757F06220256792D2C8B
:100010002B2A29281C1B1A1918171615141300014E
:100020000102020303040405F0C8A7917767604644
:100030003835323024222014362A393D34323F00FC
:0A0040000091B69004C474FFF02292
:10004B000254AEBB010689828A83E0225002E7226A
:10005B00BBFE02E32289828A83E49322BB010CE577
:10006B008229F582E5833AF583E0225006E9258261
:10007B00F8E622BBFE06E92582F8E222E58229F5A5
:10008B0082E5833AF583E49322BB010689828A8356
:10009B00F0225002F722BBFE01F322F8BB010DE563
:1000AB008229F582E5833AF583E8F0225006E925AB
:1000BB0082C8F622BBFE05E92582C8F222EF8DF03D
:1000CB00A4A8F0CF8CF0A428CE8DF0A42EFE22BCD9
:1000DB00000BBE0029EF8DF084FFADF022E4CCF8CD
:1000EB0075F008EF2FFFEE33FEEC33FCEE9DEC9832
:1000FB004005FCEE9DFE0FD5F0E9E4CEFD22EDF8B8
:10010B00F5F0EE8420D21CFEADF075F008EF2FFF5A
:10011B00ED33FD4007985006D5F0F222C398FD0F42
:10012B00D5F0EA22C5F0F8A3E028F0C5F0F8E58297
:10013B00158270021583E038F022A3F8E0C5F02594
:10014B00F0F0E582158270021583E0C838F0E822E2
:10015B00BB0110E58229F582E5833AF583E0F5F0E2
:10016B00A3E0225009E92582F886F008E622BBFEBF
:10017B000AE92582F8E2F5F008E222E5832AF58305
:10018B00E993F5F0A3E99322F8BB0111E58229F578
:10019B0082E5833AF583E8F0E5F0A3F0225009E914
:1001AB002582C8F608A6F022BBFE09E92582C8F213
:1001BB00E5F008F222D083D082E493F20874019325
:1001CB00F208740293F208740393F2740473E6FB5F
:1001DB0008E6FA08E6F922FAE6FB0808E6F925F044
:1001EB00F618E6CA3AF622EBF608EAF608E9F62222
:1001FB00E0FBA3E0FAA3E0F922F8E0FBA3A3E0F90C
:10020B0025F0F0E582158270021583E0FA38F022B2
:10021B00EBF0A3EAF0A3E9F022BB010789828A8302
:10022B000201FB5005E9F80201D9BBFE05E9F80212
:10023B00031889828A8302032ABB011A89828A8363
:10024B00D0F0D0E0F8D0E0F9D0E0FAD0E0FBE8C095
:10025B00E0C0F002021B5016E9F8D083D082D0E048
:10026B00F9D0E0FAD0E0FBC082C0830201F2BBFE02
:10027B0016E9F8D083D082D0E0F9D0E0FAD0E0FBD9
:10028B00C082C08302032122BB0120E58229F582B3
:10029B00E5833AF583D0F0D0E0F8D0E0F9D0E0FA7E
:1002AB00D0E0FBE8C0E0C0F002021B5018E9258249
:1002BB00F8D083D082D0E0F9D0E0FAD0E0FBC08256
:1002CB00C0830201F2BBFE18E92582F8D083D082ED
:1002DB00D0E0F9D0E0FAD0E0FBC082C0830203216A
:1002EB0022D083D082F8E4937012740193700DA323
:1002FB00A393F8740193F5828883E4737402936873
:10030B0060EFA3A3A380DF8A838982E473E2FB08F7
:10031B00E2FA08E2F922EBF208EAF208E9F222E447
:10032B0093FB740193FA740293F9224104C9FF41C0
:10033B0004C4FFC19BC11C4103C4004103BC004169
:10034B000380FF4103C300410385004103C100410A
:10035B0003C7004103B2004203B800004103B500DC
:10036B00C102C107C105011F004102CA00C10181C1
:10037B000400C100C18341017A00015400C10C810A
:10038B000B008110FFC109015200015300C10BC1C9
:10039B000E4100ED0041054006012D00C112013256
:1003AB0000013000013100C110C10FC11341051212
:1003BB000041051400C126C125015800015700C199
:1003CB001AC117013B00C114C1150078FFE4F6D820
:1003DB00FD9000007FBD7E08E4F0A3DFFCDEFA7524
:1003EB00A0007581B902042E022065E493A3F8E402
:1003FB0093A34003F68001F208DFF48029E493A372
:10040B00F85407240CC8C333C4540F4420C883408A
:10041B0004F456800146F6DFE4800B010204081059
:10042B00204080900336E47E019360BCA3FF543FD1
:10043B0030E509541FFEE493A360010ECF54C02591
:10044B00E060A840B8E493A3FAE493A3F8E493A381
:10045B00C8C582C8CAC583CAF0A3C8C582C8CAC5E5
:10046B0083CADFE9DEE780BE90054FEFF0A3EDF026
:10047B009004C4E0FFF46002114190054FE0FFB41B
:10048B000206C21BD21C8002D21BEF700D301C0265
:10049B0091D0900550E0FF0208169004C9E0FFF4DC
:1004AB00600291B69004C974FFF0221231C350124E
:1004BB00123196F583E4F0A3F0EF12239FE4F0A33F
:1004CB00F00EAF0622E4FDFCFF91F7FFF4600891FC
:1004DB00B69004C974FFF09004C4E0FFF4600211FD
:1004EB0041C21C22900561EFF0D21B2291FE9004B9
:1004FB00C9E02290053DEFF0A3ECF0A3EDF0780BF3
:10050B00E27030B14490053DE0FF24FF9209EFB457
:10051B000103D38001C3920D30091D90053EE0FF0E
:10052B00A3E09000F0CFF0A3EFF0200D0B753B0193
:10053B00C21522E4FF122919227B017A0479FD905E
:10054B0004D9511B7A0409120FCE9004FEE0FFA3CD
:10055B00E04FFFA3E04FFFA3E04F7007B196AD56FE
:10056B000232347B017A0479FE9004B3B194124ABF
:10057B009C600C12520AE24F6005B18B120FCE2217
:10058B007B007A0079569004D9511B7BFE7A007957
:10059B001322123E8230050D7B017A0279CBF1A436
:1005AB00B1B6C20522B196F1A47B017A0279937F91
:1005BB00049004A9511BAE071FEE60129004ACF11E
:1005CB0099114EFE9004A9F199EE119480E82290B6
:1005DB00053A511B7D1BE4FF123814D1AAE92405FF
:1005EB00F9E43AFA9002E2511B7B017A01793990D6
:1005FB0002E5511B7BFE7A00790C9002E8511B7AC5
:10060B00007911122FF77811E230E007780F74019F
:10061B00F28004E4780FF2D1AA74011194D1AA905C
:10062B000001740111A67F103008027F08EF4443CC
:10063B0090000211A67811E2FF30E00CD1AAE92458
:10064B0002123F5E44801194EF7F0030E1027F8005
:10065B00EF441CFF7811E2FE7D0030E4027D40EF99
:10066B004DFFEE7E0030E5027E20EF4EFFD1AA1249
:10067B00590B780CE2D3941440037414F2780CE207
:10068B00FF240708F2E92407F9E43AFAC003C00291
:10069B00C001900139F1A2D001D002D003A1BC90CE
:1006AB00053A21FBD223E4F55ED224F1F0FD747EF2
:1006BB00F1E67023C3747D9FFF747E1258072024CC
:1006CB0009E0C39557C394025004F1D3F557055E67
:1006DB00E55EC3940240D420231DAF570557EF545A
:1006EB0001F1DC747E1236E6F97BFFF1A47B017A13
:1006FB000279007F80B1BCE4F55ED224D223900254
:10070B007EE0645A70531250BEE06F704CF1F0FDF6
:10071B00747CF1E67023C3747D9FFF747C125807C1
:10072B00202409E0C39558C394105004F1D3F55815
:10073B00055EE55EC3941040D420234EAF58055898
:10074B00EF540FF1DC747C1236E6F97BFFF1A47BDE
:10075B00017A0379007F80A1BC7F747A027900F162
:10076B00A9F196E41194DFF97F0A7B017A0279747F
:10077B00F1ABF19674FF1194DFF87F7F7A03790068
:10078B00F1A9F19674FF1194DFF8229004E8E47557
:10079B00F001410490048D31FB9004AC411B7B01B3
:1007AB009004E8411B9004B0511BAE071FEE60157F
:1007BB009004B3F199114EFE9004B0F199114E6E65
:1007CB0060E87F01227F0022C224C2239004EDE067
:1007DB0022FEC3E494009004ECF0229E8D82F583FC
:1007EB00E493645A22E55E7F00FEC3747E9F2290E1
:1007FB0004C51256617013301C101204D07A05799F
:10080B0062F1C1900562E0FF111622EF7023900395
:10081B008074FFF0E49003C3F0900385F0FE12594F
:10082B004A9003C3113D900385E0FD7F037E0011C9
:10083B004322E0FD7F027E0012380C8006FFE4337A
:10084B00FEE4FD900521EDF090051FEEF0A3EFF017
:10085B00D19C900521E0FD6F600E90051FE0FEA37B
:10086B00E0FF122BAF7F02227F012290048B121F1D
:10087B00B9122FE3FFC39420401DEFD394FF501701
:10088B0090048BE0FFA3E0FDA31201FB900490E02A
:10089B00900415F00218B0D12112004E64016002D1
:1008AB00C114123F131202EC0D4201091502092F5C
:1008BB00030BED040CA70508DB080BC40B0A0A0C91
:1008CB000B461409B81609FA170E0E2200000E1467
:1008DB00300C02C114200902C114900490E0C3949F
:1008EB00035002C114D11520E002C114D20E9004A2
:1008FB008BE030E10AA3E0FFE4FBFA7D028022905B
:10090B00048CE0FFE4FBFAFD801790048CE0FF9071
:10091B00048BE07E0030E1027E02EE4405FDE4FB39
:10092B00FA021FC0300C02C114200902C11490043A
:10093B0090E0C394074003D38001C34002C11478F5
:10094B000B7401F2D115F556D121124AA31207A44B
:10095B001205967F041205BC120596AD5612323461
:10096B00E5567003123277E556703712382D7549FC
:10097B0019E549C3946E5019125878E54AC394107F
:10098B00500BE549254A11481252A280EEF1F28034
:10099B00E0E4FD7F08FE114EE4FD7F09FE114EE4FD
:1009AB00F553E4FF1229191232A8D20A22780FE26A
:1009BB007002C114E55370057550018003855350C7
:1009CB00D115F551124EAF7416F0A3E551F0122F5D
:1009DB0064124F3DA3744FF0A37416F0AB50AD5699
:1009EB007F01121CE4EF6002C1147F02024F1690CC
:1009FB000119E064036002C114D115FF0228321201
:100A0B00589F400261467409C39F5002614675505E
:100A1B00FFC2D5D1C2FFC45407F55D7006D11BF5DB
:100A2B0052D2D5E5527002610AE4F549744B25495F
:100A3B00F8E6FF65526012EF7008E550B4FF0385CE
:100A4B0049500549E549B405E3E549C39405401010
:100A5B00E55094FF500A855049744B2549F8A6522E
:100A6B00E55DC3940440026139E549C39405400236
:100A7B00613930D507E54904FF124022E54975F08D
:100A8B0011A4F5492419F54930D507FF7E00AD5265
:100A9B00114E0549E55D124D0FD1C25407F550E4D7
:100AAB00F55D30D50BE55070071258C47DFE8018EC
:100ABB00E55DC3955050171258C4D12112591A7CB9
:100ACB0000E9255D123F06FD114E055D80E2E55DF7
:100ADB00C394045006E549255D1148E4F55D744B5C
:100AEB00255DF8E6B5520DD121E55D04FD1258FAEE
:100AFB00D1CE803A055DE55DC3940540E1802F3092
:100B0B00D52C754919E549C3946E501FAF49F1F9BE
:100B1B006015125878E54AC39410500BE549254AE5
:100B2B0011481252A280EEF1F280DA12382D124ED9
:100B3B00647002C11412290002289512589F507438
:100B4B007409C39F406ED1C2FFC45407F55DEF54C7
:100B5B0007F550E55D70107F05124022D115F55356
:100B6B00FD7F087E00114EE55DC394045046E550B1
:100B7B00600F1257EAAD507C00D12112591A123175
:100B8B00D9E550700BE55D70077DFE7F09FE801582
:100B9B00E550C3940450101257EA7C00EF2550FF28
:100BAB00EC3EFEE4FD114EE5536009D1211258FADB
:100BBB00E4FDD1CE7F04022B54124E647002C1149B
:100BCB00122886E4780BF2122B79F1749000EE1256
:100BDB0031BC7002C114D11524FEFF8D828C8302AF
:100BEB000316300C02C114900490E0C3940450021D
:100BFB00C114D115D3941D4002C114A207920B74DA
:100C0B0002122914D20C900119E0B4040312522FD2
:100C1B001232A8D20AD1152403FFE433FE900490BC
:100C2B00E0D3124D064010D11BFF7E00E9240312C6
:100C3B004A7D12004E8001E4780EF2780EE27006C7
:100C4B007E017F5980047E007FF890013C124D1885
:100C5B00C003C002C00112079FD001D002D0037F96
:100C6B00211205BC90048CE09000F6F0A3125932CF
:100C7B0030E1079000F7E04402F0D212D1BAFF2422
:100C8B0003FDE43EFAA9057B01D1B2E0FD1256C982
:100C9B00EF24079000EDF0E4FF022C63780B740453
:100CAB00F2122B79900490E0D394024004D115807A
:100CBB0001E4780EF2780EE2FB70067C017D598020
:100CCB00047C007DF890013CECF0A3EDF0F5828CF8
:100CDB00837401F0A37406F090049212593230E140
:100CEB0007900492E04402F0D1BA12586F7004D10D
:100CFB00B204F0D1BA12586FD1B2A32582122D28AB
:100D0B00EBD1B9FFAA06F97B01122F6AD1B2E0240D
:100D1B0004FF780EE27E0070027E01C3EF9E90020C
:100D2B00F1F090049212585890048C124DDF60022F
:100D3B00C1147F02022919900490E0FFC39406E4CA
:100D4B0094005002C1148F4A7B017A0179257D14DE
:100D5B00E4FF123814D1C220E258E92403123F5E9B
:100D6B00440412009412079F7B017A01791D7F06C0
:100D7B001205BC900122E0A3F0123FA4E4900124E1
:100D8B00F0054A054A900490E0FF24FAFDE434FF95
:100D9B00FCD3ED9400EC94004051EF24FAFFD121E9
:100DAB00E92406F9E43AFA1207A47B017A017925C2
:100DBB008036900490E0FF12079F7B017A01791D2A
:100DCB001205BC900120E020E121123FA4054A90BE
:100DDB000490E024FBFFD121E92405F9E43AFA124F
:100DEB0007A47B017A0179231205BC90048CE0FDEA
:100DFB007B017A017922E54A24FB9004CFF07F84B2
:100E0B00023034D115FF122C3C2290048D1201FBC1
:100E1B0090000202006790048D0201FB7F067E00AA
:100E2B00D193BF42237F017E00D193900380EFF0DB
:100E3B007F027E00D1939003C3EFF07F037E00D13E
:100E4B0093900385EFF0801E1259517E0012594A80
:100E5B00E4FD7F02FE1143E4FD7F03FE11437D425F
:100E6B007F067E0011431230FC7A0379BDF1C190ED
:100E7B0003BDE0600DE4FFFED193EF600512200E81
:100E8B008003121FB27F012212380C8004FFE4335F
:100E9B00FEC3EF9480EE940050051258F1800312BC
:100EAB0058E8F583E0FF228F828E83A3A322F09074
:100EBB00013CE0FEA3E02290048D1201FB900003A5
:100ECB0002006790050AEDF090050712021BD11B7B
:100EDB007002E16D900507D1C5C4540FF54A600C43
:100EEB0090050AE0246ED1988F508003E4F5509062
:100EFB000507D1C5540FFF90050BE0C39FC39405A5
:100F0B00402E7E00E92404124A7D12004EFFF16E42
:100F1B00900008EF1200A6FFE54A701E53500FEF2A
:100F2B00540633333354F8FEEF54C04E4250800A0C
:100F3B0053500FF16E740812581BF16E12172B30B1
:100F4B00E30E12593A8002C333D8FCF45250800B93
:100F5B0012593A8002C333D8FC425090050AE01272
:100F6B004D23229005070201FB754919E4F54AAFA1
:100F7B00497E00D19C744B254AF8A607744B254A31
:100F8B00F8E6D394E84008E4F6AF49FEFD114EF1C4
:100F9B00F2124CFE40D9227D547F067E00114E7D0D
:100FAB00A57F077E00114E12058BF1CE12288612FB
:100FBB003E6C8F5380B37B019004D912021B1B7ABA
:100FCB000079009004D61237C8D19C9004D9122B0B
:100FDB00129004D61201FBE94A600B1257FEF07F08
:100FEB00017E00122F362274112549F549227E000D
:100FFB00D19CEF229004C8E014F07014111C9004E3
:10100B00C7E0C3941B5003E004F09004C7E0A3F0C7
:10101B002230093A200C377F05120FF970307B0113
:10102B007A0079B71205DAE49000B3125821A304C1
:10103B00F0FB7A0079B3780DE2240490046FF0A3EF
:10104B007411F0E4A3F0A3F07DFFAF5680037F0093
:10105B002290046A121FB912021B1257368F3DEFF2
:10106B00C3940240022102EF1257C3310A3105909B
:10107B000001E41200A690046AE09000021200A6A0
:10108B0090046BE09000031200A6900470E0FF54F4
:10109B00F0FEC4540F9000051200A6EF540F900001
:1010AB000412592AFF602990046C1201FBEA494B88
:1010BB00601E310AE9241CF9E43AFAC003C002C0ED
:1010CB000190046C1207A2D001D002D0031205BC10
:1010DB00310A90001674FA12592A24119000061244
:1010EB0000A6900471E0FFA3E0900009CF8FF012EF
:1010FB000193E53D04FF227F0022740112009490BE
:10110B0000D20201FB90054C12021B71D5F1E25487
:10111B001FF54071F0FFE53B6401601C7412D39F17
:10112B005016E540B402067419D39F500BE540B43A
:10113B000108741DD39F4002C32271D571FC30E2AC
:10114B000CF12B6556600671E4FF1229A5E540648E
:10115B0002707671EA20E76F120224F12B6556704C
:10116B001C301663C21671E4FD7F0312570371D551
:10117B0071E4FFD22EE92413124B05804A71D590EE
:10118B00000C120067FF540FFE603C1259221E7CAC
:10119B0000E92E123F066556702D71D5EF54F024E1
:1011AB00102E90000C1200A690000BE471D21207C7
:1011BB00A47F1812584FC20371D571E4FFF12BFDB8
:1011CB001257D7F0121E4AC322E4FF71D5125922CF
:1011DB00EF123F03B55602C3220FEFB404ED71D5E6
:1011EB0071E4FFF1E8540FFD122AA35002C32271E0
:1011FB00D5F12B6556700261047811E2FF54306013
:10120B00026104EF20E0026104E5406401600571B6
:10121B00EA30E71B2015026104E5406401600261BE
:10122B000471D5F1EEFEAF01124AAB40026104121C
:10123B0057368F3DBF0202C322E540B4011E71D564
:10124B00F1EEFA7B01C003C002C001120596120732
:10125B00A4D001D002D0037F041205BCE53D125788
:10126B00C371D571F0FF310A1239AEC003C002C091
:10127B000171D51207A4D001D002D0031205BC71A5
:10128B00D571E4FF122A1771D5F1E8540FFE122B1A
:10129B0019A606EF122A0F76070876D090000C12CB
:1012AB00006754F0FF605224F0FF310A1258DFFE42
:1012BB00E92418F9E43AFAEE7C0029F9EC3AFAE55C
:1012CB0056120094EF2E04FF310A90001771D17162
:1012DB00E4FF310A90000271D1F12BFF310A125950
:1012EB000B3105900004744071D271F0FF310A90FC
:1012FB000006EF1200A612589671D5F12BFF65561A
:10130B006006EFF4600261CD71EA30E70261CDE572
:10131B0040600261CD90054C123F5844011200947D
:10132B0071D5F1EEFAC003C002C00190054C120159
:10133B00FB90000312029371D571F024EEFF900520
:10134B004C1201FB900006EF1200A6120224F1DCF6
:10135B0030E66871D571E4FFC22EE9240C124B05FF
:10136B0071D51207A47F1112584F71D571E49000FB
:10137B00E6F0F1E8540F9000E7F071D5E9240CF991
:10138B00E43AFA1207A47B017A0079E87F0512058B
:10139B00BC9000D9E556F09000DC7419F071D57152
:1013AB00E4FD9000DDF0A37422F0A37407F0C203F8
:1013BB001257D7F0AF56121E4A8009E540C3700191
:1013CB00D322C322D322EF1200A690054C1201FBAD
:1013DB00020224AB13AA14A9159000040200679013
:1013EB00054C1201FB900007020067AB13AA14A96E
:1013FB001590000A020067AC059004F8124D188B8B
:10140B00138A14F515ECD394085002E12471F0FD06
:10141B00ECC39D5002E124124391EF6002E124F5ED
:10142B001AA20F92071256FC7B007A007913124313
:10143B00C4F1CFF1D7FF540F64017060EF30E70CAC
:10144B0071FC1239A8E92FF9EE3A8009F1CF7B0133
:10145B002409F9E43EFAE92401F9E43AFA9004FA92
:10146B0012021BE51A546070339004FA122AE2FF41
:10147B00600864186004EFB40705E51A30E718EF4D
:10148B00B403199004FA1201FB123E7A9004B312C2
:10149B000594124A9C70057FFE1229A571DEF51288
:1014AB007801F2E51A30E2519002BAE020E74A7F68
:1014BB00031239B690028DE51BF012588FF1DC3018
:1014CB00E50990028AE04420F0802B1258A9120003
:1014DB004E64017021123F136418701AE519B4049D
:1014EB0009120EC8FF1252BD800A1258A9120E1B08
:1014FB00FF1252CC8F321236F2200402C153E51A7E
:10150B0030E61D12588FF1E2C4540F900280F01296
:10151B0036C490029DE054F0FD7BFF12377CC16214
:10152B00E51A20E102A1F6E4F512900298E0FF54CF
:10153B000F64016002A1CBEF20E702A1C69002BEAF
:10154B00E0FFD3940A400790029DE0FE800478836D
:10155B00E6FE8E5CE55C540FFEB40F028022EFD3E7
:10156B00940A400A749E2E123C61E0FF800674843C
:10157B002EF8E6FF8F12E55C54F0C4540FB5060548
:10158B007865E6F5122000387807E270337805E2CB
:10159B0020E10F702B71DE65127025E51278656600
:1015AB00601E7F0C12379C1242A27C427DC1E4A3C9
:1015BB00F0122AE8EF6009D20080057865E6F51293
:1015CB009002BAE0FF20E502C162A3E0640370025F
:1015DB00C16271DE651260057805E2607AEF54DF57
:1015EB009002BAF0F1F51235BD806CE51A30E518B2
:1015FB009002BAE0FF30E45F54EFF0F1F5F1CFFF6A
:10160B001235B81242D4804FF125F46014F1CFFF9C
:10161B00F1D7540FFDBD0203D38001C34003123534
:10162B00B8E51A30E30B9004F81236EBF97B01F1B5
:10163B0031202F23124FCC71DEFD1258A99004904C
:10164B00E519F0120876800F9002BBE0B40408A3F2
:10165B00E0FF60031231A3E51A20E402E12430011C
:10166B0002E1247F013007027F028F12D2057B013A
:10167B007A0279811207A412583C71F6FF540FFEBF
:10168B00F1E2FD30E0031E803EEFC4540F146E7088
:10169B0035ED30E33171F61259121239AEE92D12D4
:1016AB003F06540F7020EFFDE515240BF9E43514BC
:1016BB00FAE92DF9EC123F115460FFBF20054312DC
:1016CB000880034312100E71F654F0FFEE540F4FC7
:1016DB0090000A1200A671F024F6F554D39438400A
:1016EB0003755438AB13E5152409F9E43514FA12D4
:1016FB0007A4F1C8AF541205BCC20371DEFDF12B78
:10170B00FBC003F1C8122F6A1243857443F0A37414
:10171B0028F0D003AF1212437C22AB13AA14A915E5
:10172B0090000802006790053112021B300102E1A4
:10173B00BEF1C2E92409123F5E4401120094440237
:10174B00F1BF71FC540FFFE9240A123F5E54F0F114
:10175B00BF71FC54F0FEEF14540F4E90000A1200B0
:10176B00A671FCC4540FFF71F0FEC39FFFC3EE9F25
:10177B002402F554D394384003755438F1C2124AFD
:10178B00751207A4F1C8AF541205BC7883E654F761
:10179B00F6C2037F013007027F02F1C271E4FBC086
:1017AB0003F1C8122F6A124385124374D003AD564E
:1017BB0012437C221200949005310201FB7B007ACC
:1017CB00007982229004F8E0FEA3E022AA06F97BBE
:1017DB000190000502006790000902006790000667
:1017EB00020067E92411F9E43A2212379512004EF0
:1017FB00FF1204B6E4020094900563EFF0D21C7C58
:10180B00047D731204F7F47057900563E09004C5E0
:10181B00B40107E4F0A304F080227407F0A304F0F2
:10182B00A37401F0A3F012518DEF543F2432FD7ECF
:10183B000F7FFF7BFF11709004C4EFF07E077FFAE0
:10184B00116C9004C9EFF0301B16900563E0B401E6
:10185B000F7A047BEFE4FD7FFFF1C0EF6002C21B48
:10186B00227BFF7D649004F77403F09004F3EEF099
:10187B00A3F1B9EBF07FFFA3E0F9E9C3940A50247D
:10188B00E912239FE0FCA3E04C7016AF019004F328
:10189B001237C0FBA3E09004F2F0123145E904FFCC
:1018AB00220980D622900410F1B912021B90041564
:1018BB00E0FF9004121207A27B017A04791612053D
:1018CB00BC900410E07F0030E1027F02EF442590D2
:1018DB0003C2F0900416E06475600241739003BC80
:1018EB00F0900417E01202EC190C01193F02195881
:1018FB000419A50619B60719CB091A300A00001CE2
:10190B002B900415E0B40305E4900419F09004182F
:10191B00E0D394025008E09003C3F012083D90040A
:10192B0019E0D394024002812BE0900385F0E0FD97
:10193B007F0381189133125903900388F09003852C
:10194B00E0900389912C900446740441A291337466
:10195B0005F0A3125903122E8D8005C333CE33CE5F
:10196B00D8F91258BAE0900389F0900441E0900343
:10197B008AF0900385E0122E8D8005C333CE33CED3
:10198B00D8F91258BAE090038BF0900441E0900321
:10199B008C912C900446740741A2900418E0D394C8
:1019AB00E84002812BE09003B2F02291337408F0EF
:1019BB009003B2E0900388912C900446740341A2EB
:1019CB00900418E070028056900418E0D3943C50B9
:1019DB0008E0FF9003B8E48022900418E0C3944120
:1019EB004031E0D394FE502BE024C1FFE434FFFEE2
:1019FB007C007D3C1200C89003B8EEF0A3EFF09092
:101A0B0003C4E0FF1204B67E277FF3116C9003C46E
:101A1B00EFF022900418E0F46002812B74FF900326
:101A2B00B8F0A3F0229133740BF0125866BEFF0B83
:101A3B00BFFF0890038874FFF08021D3EF943CEE36
:101A4B0094004010EF243BFFE43EFE7C007D3C12F3
:101A5B0000DA8003125866900388EFF0900411E0CF
:101A6B00FF9004467403802F9003B2E0FE900411A4
:101A7B00E0FF6E604A9003B8E07002A3E060409014
:101A8B000385E06401702EA37422F0A37402F0E4CA
:101A9B00A3F09004467403F09003C2E0900447F067
:101AAB007B007A007900A312021B90044B7420F088
:101ABB00A374086188900385E064027002812B9007
:101ACB000416E064727025A3E024FC6002812B9065
:101ADB0003867472F0A37405F0E4A3125821A3F0EB
:101AEB00A3912C9004467408913E6188900416E0F3
:101AFB00648660026190A3E024ED602624026002FC
:101B0B00812B1259587412F0120008900388EF9130
:101B1B005874439158744F912C9004467407913E1E
:101B2B00805B1259587414F0900418E0900388F0FD
:101B3B00900418E01202EC1B5E201B60251B64272F
:101B4B001B66721B72731B6A751B627A1B6886009D
:101B5B00001B7A801280108006800C800A8008900F
:101B6B0003897402F0800D9003897401F08005E401
:101B7B00900389F0900411E0FF7404913BF00B7A11
:101B8B000379868171900416E064207014A3E0142D
:101B9B006007146002812B8018900418E07052804B
:101BAB005E900416E064257026A3E0146017147091
:101BBB006FE4FFFE120E93AB07900411E0FF90044D
:101BCB0016E0FD8059900418E0700280328022905C
:101BDB000416E064277049A3E014602514603324D5
:101BEB00FD601104703A900380E0FF603364016084
:101BFB002F02200E900380E0FF602564026021E13C
:101C0B00B2900418E0900380F0E0FD7F017E0002AB
:101C1B000843900411E0FF900380E0FB7D27915F68
:101C2B0022F0900411E0FF229003867475F0A3223A
:101C3B00900446F09003C2E0900447F07B007A00DA
:101C4B007900A312021BE490044BF0A322F0A374BF
:101C5B0003F0A322900386ED9158EBF07403913BB4
:101C6B00F00B7A037986900442EFF0A312021B90DB
:101C7B000447E0FF30E502D2069004481201FBE96D
:101C8B004A90044360341201FB9002D512021B9060
:101C9B000446E09002D8F0A3EFF09004481201FB49
:101CAB009002DA12021B90044BE0FFA3E09002DDDE
:101CBB00CFF0A3EFF1A8FF023DED1201FB122F6A4B
:101CCB00900446E09002F1F0900447E09002F2F0AD
:101CDB0090044B124EF3F1A8FF9002EDEBF0755B05
:101CEB00019002F1E0FEA3E0FC20E72130E409EED5
:101CFB00D3943640187F0022300609EED3942E4041
:101D0B000C7F0022EED3943040037F0022E51FC3EB
:101D1B0094024002C1378F11E5115418600343112F
:101D2B0002D1432461F8E4F6D1432460F8E4F6AF22
:101D3B0005D1432466F8A6079002EDE0FDD14324BC
:101D4B0065F8EDF6FEBEFF0312594230060BC206D4
:101D5B00D1432460F8760180119002F2E030E60A5C
:101D6B00755B04D1432461F876069002F2E054903F
:101D7B00702DE55B64017027AF05123D0EEF601F00
:101D8B00E51154186009D1432460F8740246F690AB
:101D9B0002C4E06003755B04D1432461F8760290C2
:101DAB0002EDE0FDB4FF03125942D1432461F8E682
:101DBB00704B9002F2E0548564057041AF05123D03
:101DCB008850337881E630E40B540625E025E04457
:101DDB0002FF80027F018F11D1432461F8760478D2
:101DEB007BE6D1422465F8A607123D04600F123D35
:101DFB007C755B0480079002F2E054FBF0D1432426
:101E0B0061F8E6700276059002EE1201FB9002F18A
:101E1B00E090045DF09002F2E090045EF09002F32B
:101E2B00123F19AD5BAF11D1F67F0122C206D2036F
:101E3B007F0022E0FEA3E0FFE51F75F00EA42290C9
:101E4B00047BEFF0A3EDF0AD03AC02E51FC39402EE
:101E5B004002C1F1751206300305123C69800FAACE
:101E6B0004A9057B011217E8540FC454F0FFEF428D
:101E7B0012D1432462F8A612D1432460F8E4F69001
:101E8B00047BD1412466F8A607D1402465F8A60748
:101E9B00D1432464F87602D1432463F8E4F690042A
:101EAB0080D141245FF8A607AE04AF05AA06A907A7
:101EBB007B01D1432467F81201F290047FD14124B6
:101ECB006AF8A607900481D13E1258CDD203AF1FFA
:101EDB00051FEF7005AF121239B69002BBE070030D
:101EEB001236F27F0122D2037F0022900458EFF0CA
:101EFB0090045ED141245FF8A607D1432467F81202
:101F0B0001F290045DD141246AF8A60790045FD1D9
:101F1B003E1258CD900458E0F511D1432465F8E6F4
:101F2B00F512B4FF028017E5115407701730070E36
:101F3B007801E2B512084311025311FE80064311DA
:101F4B00015311FDD1432464F8A611D1432463F846
:101F5B0074FE56F630031EE511C330E101D3921F18
:101F6B00ED540FFF64046003BF0603D38001C3125B
:101F7B003CFDFD8009E51E540FC454F04DFDD2030A
:101F8B00D1432462F8A605AF1F051FEF7005AF05FF
:101F9B001239B69002BBE070031236F222F09004B5
:101FAB0042E0FBAD56E4221259515380FE22EFF072
:101FBB00A3EDF0A32290051BF1B9EAF0A3EBF07BA4
:101FCB00017A01793E1205DA300E0FC20E122F6420
:101FDB00124EE11258D67F02800B122F64124EE183
:101FEB001258D6E4FF81E4900564EFF0301C031225
:101FFB0004D0900564E0FF6003121803229005657E
:10200B00EFF0227DFFE4FFFE120843438001221212
:10201B003128900566EFF0F1D4500E123136500591
:10202B00121FB28002110EF1D79003BCE024FE60A8
:10203B001724027024900566E0B4011D7F01121F66
:10204B00F29003BC7402F022900566E0B4010AE43E
:10205B00FF121FF2E49003BCF022907FA2E493F5F1
:10206B00CF9004837450F0A3745AF0900489745188
:10207B00F0A37486F09004877450F0A37469F09009
:10208B0004857451F0A37497F012577B125010E52E
:10209B00C120E00BE4FF5126E49007E7F0800A90A3
:1020AB0007E7E070047F0151261253A751FF9007F9
:1020BB00E7E07006202F03120E279007E7E060334E
:1020CB007F0131F312549940269007E6E0600CE053
:1020DB0014F07007FF31F37F01512F9007E7E06099
:1020EB00129007E6E0FB7D027F051251AC80047F66
:1020FB0002512F1237D9780FE2B401047F0131F36B
:10210B00D2AF1232F51251FB5004D229514B900130
:10211B007AE06053780BE2704EF1B95004510D80A8
:10212B00F8E52E20E507780FE2700251961250CA9F
:10213B0090017AE0FFB4020575DA7E802AEFB403D2
:10214B000575DA6C80FEEF6405701C7811E230E5E2
:10215B000743B3807F1F8002E4FFF1DA9007E77437
:10216B0001F075DA6C80FE7145202F04111A800284
:10217B00F1DD510DE52E30E1317F0251DD855554F6
:10218B00C37440953490017BF00555E555C394021B
:10219B004003E4F555E52E20E504513A51B2E554E0
:1021AB00513C90017BE0FD121402B1B6210D90055C
:1021BB0068EFF043AF2043B220E4F5590559E559D8
:1021CB00B40AF9E59020E5037F002243AF8053B2B8
:1021DB007FC22A7F0112521B53AEFE43B101121F65
:1021EB00B27F0122EFF07F01EF6006513A51B280CE
:1021FB000EF1B95004510D80F85196E433FF227F54
:10220B000122E52E30E2137F0451DD124163EF60B2
:10221B0009E52E20E5047F0131F32231B9EF24FFCC
:10222B00B3922F2231B9120E27E49007E7F022E583
:10223B005575F040A4247CF582E43401AF82FE2274
:10224B00E4FF31F3EF6043120596C22D71BE781394
:10225B00E2C394C040F17BFE7A007915D22D71BE9A
:10226B007813E2FF08E25FFF08E25FFF08E25FF42A
:10227B0060E4780FE2B401047F0131F3E4F55630EA
:10228B002908120596AD5612323422E52D70167FB1
:10229B0020B1AEC2EB53C3BFE4F52875BE08E5BE53
:1022AB0020E3FBD322C322E52D7026C2EBC21353CE
:1022BB00C3BF8E268F27AA06A9077529018A2A89EB
:1022CB002B753440F5287F0151DD51E643C340D2D5
:1022DB00EB22C2AFEFF4522ED2AF2275BE08E5BE91
:1022EB0020E3FB907F8AF1CA75BE0DE5BE20E3FBB0
:1022FB007F2080DE1206AF1232877F067E00120E21
:10230B009CBF54097F07120FF964A560081232684D
:10231B001231D98000120FA212400712058B120F37
:10232B00CE12520AE24F7004C229514BE5565403A8
:10233B002413F8E265567812F2227800E26052E23A
:10234B0014F2E4F55AE55AC3940A50EE719DE0FE7F
:10235B00A3E04E6038719D125661703171AD60070C
:10236B00F4600471AD14F071AD6013E55A1231973E
:10237B00F583E0FEA3E0FF719DEEF0A3EFF0E55ACD
:10238B001231CB1236EBF9120312122B22055A80A3
:10239B00B422E55A75F007A424C8F582E43403F59A
:1023AB008322E55A75F007A424CEF582E43403F5B5
:1023BB0083E02290050C12021BE490050FF0A3F0B2
:1023CB00E52E20E502C32275D70875CD01E5CD209A
:1023DB00E0FB75C5FF75C3437D1A900510E025E042
:1023EB00F090050FE033F0E5C030E3FB43C008E5A8
:1023FB00CA7E0030E6047F0180027F0090050FE06B
:10240B004EF0A3E04FF0DDD2302D031252E19005D8
:10241B000FE0FF90050C122B12900510E0FF9005BA
:10242B000C1201FBEF12302ED3228FEE301005432E
:10243B00AB02800353ABFD75BE08E5BE20E3FB90FA
:10244B007F88F1CA75D74453D4DF7D1091B2DDFC80
:10245B0043D480E5D420E7FBACD5907FB5E493FF64
:10246B00F4600280027F02AB07C3741F9BFFECD3A7
:10247B009F4004741F9CFBEC2BF5D543D42043D415
:10248B00047D05DDFE53D4FB53D4DF1253C6400647
:10249B00AF031BEF70E17D3891B2EDB4180343D756
:1024AB0001DDF57F2041DDE5D320E1FBE5D330E114
:1024BB00FB22EF20E14D20120330E30CE530C394F7
:1024CB00F0503C124D2E8032E5326020E4FFEF904D
:1024DB00002893B53209EF90000E93F53280050F6B
:1024EB00EFB410EAAF329135E4F53222E530C39404
:1024FB00F0500CE530540FFF60051252BD8006AF53
:10250B00368002AF2C813590044EEDF0CEEFCECD60
:10251B00EBCDE52D6002A1ADC2EBC213EE5407FF6C
:10252B00BF0203D38001C39210E4F528900450122C
:10253B0001FBCBE9CB8A378B38900453E0F53AA3F8
:10254B001201FB8B298A2A892B900457E0F52F75F2
:10255B0035FF752D01EE541860247F40B1AE7533F5
:10256B0013D210900541E4F0A374FBF0EE5418FF66
:10257B00BF081D900541E4F0A3743FF080123010AA
:10258B000C90044EE0B401057533138003753309C9
:10259B007F0451DDCFEDCF91BD7F01B1AED2EB7595
:1025AB00AC5522C2AFEF422ED2AF227F3E7D3F12FF
:1025BB005782E53E147003122A78E4F53DE53D752C
:1025CB00F04BA4241AF9740035F0FA7B019000B09B
:1025DB00122FE324FE601524FE60151460161460A0
:1025EB001714601824067048D1CD8044F1598040EF
:1025FB00D15B803CF11E8038F19E8034D155900028
:10260B000912015B45F06020E53E64046005123F52
:10261B0013F53F90000912015BF58285F083AF3F04
:10262B00120316D155125896D155E4120094C217C5
:10263B00053DE53DC394024084E53C6009FD7F0107
:10264B00125703E4F53C221200949000B00201FBF8
:10265B00E53E706DD1551213E430E613900007E49C
:10266B0075F0641201937406120094C20380151264
:10267B0017DC123F65FF123814D1557405D1521275
:10268B003E8AD2039000B0120E18FF120EC8FD1234
:10269B0039AEAB01C002C003D1551217E890047FCD
:1026AB00F01213E4900480F0A37456F0A374FFF0BF
:1026BB00D003D002121E4AEF7007D15574071200D7
:1026CB009422D155E4D1521217DC146003047042EA
:1026DB001258DF900577F0602C12518DD155900078
:1026EB001612006704FEEF8EF084E5F0FD9005777F
:1026FB00E014F075F064A42419FFE435F0CF2DCF6E
:10270B003400FE80047E007F00D155F1C1740212AB
:10271B00009422E53E24FD60261460162403702DE0
:10272B00F16F5029C216D15590000174011200A609
:10273B008016D1551213E420E002800CD2162290A1
:10274B0000B0120EC5B53F05740712009422E53E8A
:10275B00147010F16F500C201709D217D155740457
:10276B0012009422D15590000712015BFFAEF0AD21
:10277B003F7C00D39DEE9C4008EF9DFFEE9CFE80BE
:10278B00047E007F00F1C190000712015B45F0242D
:10279B00FFB322E53E24FD600D14600A2403700D87
:1027AB00F16F50098000D155740712009422AF2DA0
:1027BB00EFC36001D322900007EE8FF0020193E488
:1027CB0093F5D1A3E493F5D222A21E22C21E228F2F
:1027DB00EB22F1E180FE302F02F1E722201308D229
:1027EB0013D210AF36913522125866F47002EEF404
:1027FB006004EF4E70089003C4E0FF0204B6900330
:10280B00B874FFF5F002012F900567EFF0111C80F3
:10281B00FE900483112B6002712C2211869000EE26
:10282B00E0FEA3E0FF4E229005711221EF31001163
:10283B0095900571E06405701F7404118B9000F086
:10284B007428F0A374DFF0740131141128602B8FFE
:10285B00828E837F05020316900571E0700D900147
:10286B001B7413F09001197403F022112860098F67
:10287B00828E837F0412031611862212522F74014B
:10288B00900119F0E490011BF0229004B9ECF0A335
:10289B00EDF09004B6F1E3FFF460030231A3900472
:1028AB00B9E0FEA3E0FFA371479004B67112900448
:1028BB00B651E2B4FF061126600231882290056FF3
:1028CB001221EF90056FE07004310080BD1126607E
:1028DB0002318822900570EDF0EF7018900119E02D
:1028EB00B40404310080A3112660098F828E83E427
:1028FB00FF120316227B017A01791A7C297D9190B4
:10290B0004BB74FEF0A304F022780BF2E4FF9005F5
:10291B0074EFF07179780BE2FF6403605BEFB40442
:10292B00028055780BE2B40107C209E5567001F23B
:10293B00780BE2701AFF1232ADC209E4780EF22066
:10294B000D0B7811E2543070047F01913CC20D9055
:10295B0000F01231BC6018780BE2FF8D828C83ADD6
:10296B0056120316780BE270069000F0F0A3F07885
:10297B000BE2B401077403F27F047154228F828E31
:10298B00837F0102031690011BE004F0D3941440E3
:10299B000811286002318811862290055DEFF065E1
:1029AB0056604DE4A3F090055EE0FFC39402502205
:1029BB00EF5100E0FEA3E04E601031FCE0FEA3E01F
:1029CB00F582318A31FCE4F0A3F090055EE004F06F
:1029DB0080D490055EE0125744E4F0C21790055D79
:1029EB00E0B4FE0C7FFE5117EF510F76070876D03F
:1029FB002290055EE075F04BA42423F582E43400AD
:102A0B00F58322EE25E025E02443F822EF70027FC8
:102A1B00EF90057874FFF0FDFCE4FE510EE6FA082A
:102A2B00E6FBD39DEA9C5006AC02AD03A906516FA1
:102A3B00E6B50704A9068013510EE6FA08E64A70BC
:102A4B0005900578EEF00EEEB402D0EEC394024082
:102A5B0010900578E0FE94FF5002A906E95170A68C
:102A6B0007AF0122EE25E025E02441F822E4FFEF39
:102A7B00510FE6FC08E64C6019EF510F08E61618EB
:102A8B007001161486044C7009711976FFEF5170A2
:102A9B00E4F60FEFB402D822EFB55602D322EF7053
:102AAB00027FEFE4FE510EE6FA08E64A601FEFB430
:102ABB00EF08516FE6B4FE02D322516FE6B5070D56
:102ACB00EE711AE66D6004EFB4EF02D3220EEEB492
:102ADB0002D3C3229004931201FB02004E90049385
:102AEB0012021B9004931201FB1217F8AE04AF05F0
:102AFB009004987147900493711251DFB4FF04E472
:102B0B0012009451DFFF221201FBEF020094EF251C
:102B1B00E025E02442F822900485112B6002712CF1
:102B2B0022AA06A907020312900489112B600271D5
:102B3B002C22900487112B6002712C22E0FDA3E064
:102B4B00FBE49004F7F0021876900573EFF07179BF
:102B5B00900573E060049000EDF07E2B7F897BFF86
:102B6B007D2F714C7810EFF2BFFF02718922781024
:102B7B00E2FFF460031204B6781074FFF2229000A7
:102B8B00EDE0FF14F0EF70157179780BE2B40302EE
:102B9B008006780BE2B40405E4F2FF3119227BFFC7
:102BAB007D01809D900548EDF0900546EEF0A3EF7A
:102BBB00F0C39480EE94005035900546A3E0FF24BB
:102BCB0000F582E434029130605A1258F1F583ED2E
:102BDB00F0D225900512E070107E517F4C71A990B8
:102BEB000512EFF0BFFF02E4F09005138033900560
:102BFB0046A3E0FF2480F582E43402913060251275
:102C0B0058E8F583EDF0D226900514E070107E5154
:102C1B007F6971A9900514EFF0BFFF02E4F09005F6
:102C2B00157414F022F583E0FE900548E0FDEE6D7F
:102C3B0022E4F53BEF24FF9215EF600302575F7B15
:102C4B00FE7A0079180217F87E2E7F83E4FB7D0154
:102C5B00714CBFFF02D18322900551EF120EB912B6
:102C6B00587033333354F8900552F0200C02A113F3
:102C7B00900552E0FF900551E0FEC39F504DEE13BF
:102C8B001313541FFFF1E9A3B125E0FD7C00EE54B3
:102C9B0007D18D8005C333CE33CED8F9FFEE5CFE62
:102CAB00EF5D4E601E900551E090011CF0124D2E11
:102CBB00AD0790011CE004FF7A2D7B98F170EF704B
:102CCB00498085900551E004F080A5C212C20CF139
:102CDB00CF7407F0E4A3F0780B7403F27F01300B91
:102CEB00027F027B017A0079F2F16A9002F17403A0
:102CFB00F09000F71258589000F6E0FBAD56121CFE
:102D0B00E4EF70067F022119C21222E51025E0259F
:102D1B00E024BFF582E43407F583E5822FF582E4E6
:102D2B003583F583229002CAE0FFB116E0FEE4FD85
:102D3B00B15E2DB128E0FCC39401400CEC9E500811
:102D4B00B15E2DB128E004F00DEDB404E3B11674BF
:102D5B0001F022E51025E025E024BFF582E43407DD
:102D6B00F583E5822290056AE004FFAD10E4FEEEE8
:102D7B00C394045015AC060EEDB1602CB128E0B530
:102D8B0007EDEE14FF9002CAF0227F002290011C87
:102D9B00E0900572F0EF6028E0FF131313541FFE51
:102DAB00F1E9A3E5822EB128C083C082E0FEEF5487
:102DBB0007D19A8002C333D8FCF45ED082D083F063
:102DCB00900572E004FF816390056AEFF0D16E50BD
:102DDB005DD1762408FFE43EFE120E9C787BEFF665
:102DEB006044B170EF75F004A4FBAAF0D17624090E
:102DFB00FFE43ECF2BCF3AFE1257F8F0F136900599
:102E0B006AF1D76029E4FF747D2FF8E6700E900508
:102E1B006AE0601AEF701774FFF08012787C060F6F
:102E2B00EFB404E3800890056A7404F0809FD16EC0
:102E3B00400574FFF08026E510246E120E98AB0748
:102E4B00B170D18E8005C333CE33CED8F9FFEBFDF5
:102E5B00EF5D700678817608800312582990056A19
:102E6B00E0FF2290056AE0C3940422AF107E007C41
:102E7B00007D111200C8EF22E4FFA19804FFAD4AB8
:102E8B00A178FF74017E00A8070822900504E0FFDB
:102E9B007401A807082290056BE004FFE4FDA178FC
:102EAB0090056BEFF0F12E5045123E6C787BEFF6F0
:102EBB006034D1A1EF1257EC1257F8F0F1369005B0
:102ECB006BF1D76029E4FF747D2FF8E6700E900547
:102EDB006BE0601AEF701774FFF08012787C060FAE
:102EEB00EFB404E3800890056B74FFF080B7F12E0C
:102EFB00400574FFF080267F6E7E00120E9CAB07A0
:102F0B00D1A1D18E8005C333CE33CED8F9FFEBFDE3
:102F1B00EF5D700678817608800312582990056B57
:102F2B00E0FF2290056BE0C394042290049A1237C1
:102F3B007512021B90049F1258B0601C90049AE407
:102F4B0075F001120145AFF0FE120E9C90049C121D
:102F5B000799EF12009480DC227B017A01793E9075
:102F6B0002EE02021B9001FC121FB9EAF0A3EBF078
:102F7B00F1CF7418F09001FDE0FF1252AC9000F409
:102F8B00EFF09001FDE09000F5F0755001780EE246
:102F9B00FF600C7F10B402027F08EF4402F5507BF8
:102FAB00017A0079F2F16A9002F17404F0A37411C2
:102FBB00F09001FE124EF3F09001FCE0FBAD56AF2A
:102FCB0050021CE49000F27401F0A322E0C454F010
:102FDB00787CF608E664FE2212021B02004E90017A
:102FEB003CE0FCA3E0F5828C83A3A3227403123094
:102FFB002574101230257401112E7BFF7A00790392
:10300B00C003C002C0019002E51201FB1202449002
:10301B0002E81201FB74050200941200949002E284
:10302B000201FB9000010200A69004CA121FB90214
:10303B00021B11CDE5907F0130E7027F00EF60149A
:10304B009004D3E0D394645004E004F0229004D1B4
:10305B007402F0229004D3E0FF6066D394024061C7
:10306B00EF9432504D9004D17401F0E49004D3F0FE
:10307B009004D5E004F0E0B401157E317F257B018F
:10308B007D641218709004D4EFF0F47034F0229039
:10309B0004D5E06403702A9004D4E0FF600E900422
:1030AB00D17404F01204B6E49004D4F0E49004D587
:1030BB00F0229004D1E0B402087403F0E49004D33E
:1030CB00F02211E79004D0E0FF9004D2E0FE6F6095
:1030DB000A201E07D21E9004D0EEF022E590540277
:1030EB009004D2F02211E7E09004D0F0C21EC21D72
:1030FB0022E49004D1F09004D3F0311C11F07E3017
:10310B007F3D7BFF7D01121870EFB4FF02C322D30A
:10311B00229004D5F09004D4F022E480F49004D1F2
:10312B00E0FD64026002E4F0AF05229004D2E024DB
:10313B00FF22A21D22A227921D229004EFECF0A3E6
:10314B00EDF0AA07AF03EF70010FEF75F005A4FFC9
:10315B00AEF0EA3197F583EEF0A3EFF0EA12239F7E
:10316B00EEF0A3EFF09004F2E0FFEA75F007A42471
:10317B00CEF582E43403F583EFF09004EFE0FEA389
:10318B00E0FFEA31CBEEF0A3EFF022EF75F007A4EE
:10319B0024CAF582E434032231C350123196F583ED
:1031AB0031BC600AEF12239FECF0A3EDF00EAF06DB
:1031BB0022E0FCA3E0FD4C22E4FE1FEFC3940A22A5
:1031CB0075F007A424CCF582E43403F58322900434
:1031DB0073F175ECF0A3EDF0A312021B90047A745B
:1031EB0001F09004751258B06039900473E0FEA39F
:1031FB00E0FF9004771201FBEA494B600C900477D7
:10320B0012079912004EFD80027D0012084EEF143A
:10321B00FF90047AE02FF0900473E475F001120133
:10322B002F80BF90047AE0FF22900522F1C812088C
:10323B004E9005221201FB7D04517031D97F012282
:10324B005187F1D978131201C000000000120596C6
:10325B00E4FD51345177516831D9020FA27B007ACA
:10326B000079007D737C007F017E00227F0274D782
:10327B002FD1CEE4F0DFF79007D7F02290015B74EB
:10328B0001F0E4A3F09000FA04F0E4A3F090013C09
:10329B007401F0A37459F0C208E4FF800590048C0C
:1032AB00E0FFEF6040D21AB183EF6401703B9007EF
:1032BB00D9E09007D8F0E4A3F09007DBE09007DAB1
:1032CB00F09007E5E09007E4D1D6E4FF74E02FF52A
:1032DB0082E43407F583E0FE74DC2F7130EEF00FDF
:1032EB00EFB404E822C21AC20A22300A08780BE2B1
:1032FB007003FF51AD30112290040EE0A3E0FFC329
:10330B009539400BEF9539D39402400EC21122E54B
:10331B0039F42FD394014002C211229004C3E0254B
:10332B00E025E024DCF582E43407F58322AD077F4A
:10333B00FF30190261D1AF05B183EFF47024D1DEF8
:10334B005017E004F0E4FFB14CE060050FEFB4025E
:10335B00F6EFB4020D7F018009201A04E4FF80020E
:10336B007F0190054AE0FAA3E0F5828A83E0540FCF
:10337B00FEFCB1A0F583ECF0B14CEDB175B1A0F54D
:10338B0083E04410F0EE6036E4FEAD041CED6034D7
:10339B0090054AE475F001302E1112012FB15EFD3C
:1033AB00AB060EEF712AE5822B800C12012FB15E5A
:1033BB00FDEF712AE5822C122D28EDF080CCEF71F8
:1033CB002A74FEF0D219229004BDEEF0A3EFF02088
:1033DB00190B20070BB1651217D720E7037FFF22CC
:1033EB009004BDD1EBF97B011213E4FF655660022B
:1033FB00800412172BFF9004C2EFF0B1839004C32B
:10340B00EFF0F4704CD1DE5033E004F0E49004C3E1
:10341B00F09004C3E0FFC39402500DB14CE0600880
:10342B009004C3E004F080E99004C3E0B402037499
:10343B0001F09004C3E024FF92188015201A0CB2FF
:10344B0018A218E4339004C3F080069004C37401EF
:10345B00F0B1651217D720E702A1151213FCC45463
:10346B000FFF9004C1F09004C3E0FEB16DF583EF44
:10347B00F01217E230E32E9004BDE0FCA3E0AA04A7
:10348B00F91213FCC4540FFD7C001239AEE92DF96F
:10349B00EC123F115418FF74E42EF582E43407F557
:1034AB0083EFF080089004C3E024E4B179B165FFA9
:1034BB00240BF9E43EAD01A3F0A3EDF0AA06A90796
:1034CB007B011217E220E0219004C1E0FF14F0EF22
:1034DB00604A9004BFB157FF9004C1E0FE7126E52E
:1034EB00822E122D28EFF080DFE4FF9004C1E0FE66
:1034FB0014F0EE60279004BFB157FEAD070F712695
:10350B00E5822D122D28EEF080E19004C3E0FFB18F
:10351B006DF583E4B175EF712A74FEF09004C3E08E
:10352B00B16DF583E0FF7E003007027E10EF4EF0A9
:10353B009004C2E0FEA3E0FF24D8B14FEEF0D21905
:10354B002274D82FF582E43407F58322E475F00159
:10355B0012014585F082F583E0229004BDE0FEA3C5
:10356B00E02224DAF582E4340722F074E42FF582AA
:10357B00E43407F583E4F0227E02EF60159007D761
:10358B00E0600F74D72ED1CEE0B50704EE14FF2206
:10359B00DEF17FFF2274DA2FF582E4340722B18348
:1035AB00EFF46008201A05B14CE4D1D62271D20297
:1035BB004B147862E6540F6404705C7866E66556CB
:1035CB0070559002BBE0B404037405F09002BAE0AE
:1035DB004410F090029CE030E323A3E0C4540FFFAF
:1035EB00123C5FE0540F7015F1E2F583E05460601C
:1035FB000CD1BC2403D1C57BFF7D78E108D1C4D1AC
:10360B00BCFD7864E67C0030E1027C01EC243E8D4D
:10361B00F0A4FD7BFFE17C900298E020E710900284
:10362B00C0E0F46003122D307E027F93B1B890029C
:10363B00BAE0FF786BE6FC08E6FDAA044A6028EFC7
:10364B0030E219900280E060092405FF8D828C83A3
:10365B008012D1B5F5828E837F018008D1B5F582BA
:10366B008E83E4FF1203169002BAE05480F0E51F3C
:10367B006003D51F129002BAE030E7028024E49079
:10368B0002BBF0C2018020121E43FF7B007A00793F
:10369B006D1207A47A00795F1205BC7862E6FF12FF
:1036AB0039B6D1F27F00227F0122786BE6FE08E665
:1036BB002290029DE0C4540F22E49002BDF07E38AC
:1036CB007F3922F582E43407F58322F09007D7E0A7
:1036DB0014F0229007D7E0C39402229E9004EBF0E3
:1036EB00E0FEA3E0AA0622F1D01227B9400EE52E88
:1036FB0020E2099002BB7401F0124039228F828EB6
:10370B0083AE03AF05F195AC83AD82900498EFF0D7
:10371B00A3EEF0022AE8900575EFF0B183D22CEFFF
:10372B00F4600D74DA2F124CCEC320E401D3922C2B
:10373B00302C34E4FF900575E065536015744B2F06
:10374B00F8E6FE900575E06E60070FEFC394054039
:10375B00EC0FEFD39405500FEF246E120E98EF542D
:10376B000FC37001D3922CA22C22EEF0A3EFF0A387
:10377B0022900528F175EBF0AF05F19CF1959005C2
:10378B0028F1C0900499F0022AE87B017A0279BCF7
:10379B0022F1A4900498EFF0227864E630E115EF63
:1037AB002403FFE433FEEF7802CEA2E713CE13D847
:1037BB00F8FF800022E0FCA3E0FDA3E02212021B35
:1037CB007F057E00227BFE7A0079090217F87B01C8
:1037DB007A01793E0205DA749F2FF582E4340222D6
:1037EB0012380C9004E1E0FD90049FE4F0A3EDF09F
:1037FB00022F3612380C9004A6E0FCA3E0FD023138
:10380B00D9EF2480FFE43EFE2290052512021BAE69
:10381B00051DEE600C900525120799EF12009480A0
:10382B00EE227B007A00794B7D05E4FF80DB78622A
:10383B00E6540F90056DF09002BDE0600614F06049
:10384B000221A71217F59002BBE0FF64046007EF9B
:10385B006405600221927863E654FEF630020D781F
:10386B005FE630E507E4900280F0807F785FE6301A
:10387B00E2797861E6FFD39404504AEF6404701C3C
:10388B00E5109002C06008E004FF122DD38006E023
:10389B0004FF122EAB9002C0EFF080237860E6306D
:1038AB00E11154FDF67865E6FFB10E7864A6117848
:1038BB006280327865E6FFB18850047861760491B6
:1038CB00A15002218F7861E6C39405501E7865E6FE
:1038DB00FF123721B3921FC220916DEF4401786222
:1038EB00F618760508E6FF31B6218F90056DE0B42A
:1038FB0004077865E6FF1235A930020221A2786130
:10390B00E6C39406400221A218E620E00221A27829
:10391B0065E6FD78671201D9786AE690046FF07856
:10392B005FE654034401A3F0786BE6FF08E6A3CFF0
:10393B00F0A3EFF07866E6FF12105CEF60591211FE
:10394B000A1217DCF165FF111412110A740512111A
:10395B0007D18A786B76560876FF78647602121355
:10396B00E4785FF61217E8786AF69169EF44067807
:10397B0062F612110A31AE78671201F2786176069F
:10398B007F0631B60236F29002BBE0600A1236C4F3
:10399B007BFF7D0402377C7F0412363E22C4540F1A
:1039AB00FF7E00E9240BF9E43AFA22EF540FFC6492
:1039BB00036009E49002BDF0900280F09156FE90F6
:1039CB000299E054F04EF0EC146044147002618ADA
:1039DB0024FE7002418624FE700261BF2403600244
:1039EB0081251205961207A47A027985D17390026C
:1039FB0089E556F0A37403F0E51E540FFFA3E054C2
:103A0B00F04FF0A3740AF09002BAE04480F02290D9
:103A1B0002987401F0785FE630E01D20E702800C1D
:103A2B007883E6540FFFBF0F07900298E04440F0F5
:103A3B009002B97403F080029135785FE630E707A6
:103A4B00900298E04480F07811E2FF7E0030E502AE
:103A5B007E20EF7F0030E4027F40EF4E5460FF90FA
:103A6B000299E0549F9144786AE6240A91267409DE
:103A7B00914E20E10261BC913C61BC785FE630E67F
:103A8B004778671201D9F11354F0FFC4B107D17A0B
:103A9B00B1829002C4E02402FF78671201D91207A9
:103AAB00A47B017A02799C1205BC9002C4E0FF242E
:103ABB0002FDE433FC7869ED26F618EC36F6EF24BC
:103ACB0003FFC3786AE69FF69002987401F0448076
:103ADB00F0785FE69002B930E0057403F080037470
:103AEB0001F0E490029CF09002C4E0FFC454F0900B
:103AFB00029DF09002C11207A27B017A02799E12FD
:103B0B0005BC7864E6FC5418FE60397866E66556A9
:103B1B00703290029CE0FD20E02A7860E620E124E0
:103B2B00ED4408F0A3E0C4540FFF915F7410F0EE66
:103B3B0025E025E0FE1237E2F583EEF0EC54E77852
:103B4B0064F6800790029CE054F7F090029CE03002
:103B5B00E30FA3E0C4540F915FE0C4540F04FF8044
:103B6B00027F009002C4E0240B2FFD9146AF05EFBE
:103B7B0004786A269126AF059002BEEFF080329052
:103B8B0002987402F090029B741DF090028E120743
:103B9B00A27B017A02799C7F1D1205BC91357D2693
:103BAB00742604786A2691267426914E30E1029190
:103BBB003C02059D78671201D91207A47B017A029A
:103BCB0079937F111205BC7869741126F618E436C7
:103BDB00F6786A74EE26F6785FE620E632786A06A7
:103BEB00D182A37405F09156FFA3E054F091447871
:103BFB006AE6241290029AF0785FE6FD30E00790B7
:103C0B000298E04440F0ED30E102913C12059D91A9
:103C1B0035A3912D9002BE7411F02290029AF09070
:103C2B0002BAE05480F04440F0229002B97401F0E3
:103C3B0022900298E04420F0224FF07865E6900243
:103C4B009BF0229002BEF0785FE6227862E654F099
:103C5B00C4540F22249EF582E43402F58322D21F32
:103C6B00D2207F1D301F027F1CA807302013E6FFD8
:103C7B0054F0FEBEF004EF540FF6741026F6E680F7
:103C8B0011E6FF540FFEBE0F04EF54F0F606E65498
:103C9B000FC454F0FF229002C0E0F46053787BE62F
:103CAB007865F67881E6FF5406FE25E025E0FDEF0A
:103CBB007F0130E4027F02ED4F7864F6EE60067808
:103CCB0060E654FEF6B1047F0160027F047862A6C1
:103CDB0007B17CE6FD7864E6A2E1921FEDB4040324
:103CEB00D38001C391FDFF7862F6D20331B6D322A4
:103CFB00C3229220916DED4F22787CE6540F9002F7
:103D0B00C4F02290055BEFF0A37402F0EF605F90BC
:103D1B0007D7E0605990055CE0FF24D71236CEE060
:103D2B00FE90055BE06E703E74D92FF582E434078C
:103D3B00F583E0FEB107EE7F0130E4027F029005D0
:103D4B005CE0FE24E3F582E43407F583E054184F7E
:103D5B00F511EE75F004A424D8F9740735F0FA7B4D
:103D6B0001B1827F012290055CE014F070A77F0007
:103D7B00227B007A00797D9002C102021B90056CB8
:103D8B00EFF0D16C7819EFF27510FF9002C0E510CF
:103D9B00F090056CE0B5070FE4FF122EAB9002C05C
:103DAB00EFF0E4F5108030E4F512744B2512F8E6D1
:103DBB00FF90056CE06F60090512E512C394054096
:103DCB00E9E512C39405500FE51204F510E4FF1258
:103DDB002DD39002C0EFF0E510C394FF5002800189
:103DEB00C3229002D2EFF0E51F70719002BBE0701E
:103DFB006BAF057866A60718A6039002D2E0701089
:103E0B00AF031237217F0250027F019002D2EFF0F5
:103E1B00E4FE9002DAD19560050EEEB404F47861FD
:103E2B0076039002C4EEF09002DA1201FBB182EE3F
:103E3B007D0470027D019002D51201FB9002D8E047
:103E4B0090045DF09002D9E090045EF09002DDF1F9
:103E5B00199002D2E0FF121EF67F0122D2037F00DF
:103E6B00227F087E00020E9C7B017F040205BCE9C9
:103E7B002402F9E43AFA227866E6900297F022904F
:103E8B000007740775F0D00201931201FB8E827547
:103E9B008300020067D1FAF582D19AFFED5407FE39
:103EAB00EFA806088002C313D8FC5401FF2290052B
:103EBB002E12021B9002C4E0B5071190052E1201C1
:103ECB00FB1213E4FE90029BE06E6002C322E4FE41
:103EDB00EEC39F501890052E1201FB31AEF102FD7F
:103EEB009002C1D1956D6002C3220E80E3D3221DD7
:103EFB00ED131313541F22EE7C0029F9EC3AFA024E
:103F0B00004EE92FF9EE3AFA900001020067E0FF4C
:103F1B00A3E090045FCFF0A3EFF022D1FA29F15E7A
:103F2B00F138088002C333D8FC4F020094FFED54E4
:103F3B0007FE7401A80622D1FA29F15EF138088038
:103F4B0002C333D8FCF45F0200949004611201FBAE
:103F5B00E92407F9E43AFA02004E442090001412C7
:103F6B0000A690001774401200A6E92418F9E43A51
:103F7B00FA7D04E42290054312021BAC07AF040C3C
:103F8B00EFC394E850109005431201FBAD04D1A090
:103F9B00EF60EAAF04227F00227B017A01791FF1E7
:103FAB0013FF30E11112004E90000330E70474024E
:103FBB0080117401800DEF90000330E304740480D2
:103FCB000274031200A6120EC8FF227BFE7A007940
:103FDB00097C367DF2900498EFF0E4A3F0022AE816
:103FEB0012518DEFC4540F6FFEEFC41354076EFEC6
:103FFB00EFC413131354016E5403FF22E4900569AD
:10400B00F0F0900569E0FFC39406500A1122900569
:10401B0069E004F080EC22E4FEEE04FDEF122D606B
:10402B002E122D28EDF00EEEC3940440EC22122735
:10403B00B95002215B9002BBE0B404037401F05150
:10404B00B2503B51A21217F8C2007804E204F2D32B
:10405B00946440191217F5518BE47804F2E51F6054
:10406B00091236B5FF4E60025193023672300704C7
:10407B007F028007123FEBEF2402FF023FD6E4786A
:10408B0004F29002BAE030E73DA37402F07F0130F6
:10409B000701FF90028AE07B0030E5027B02C00340
:1040AB007B017A02798590045012021B90045374A1
:1040BB0008F07A02798DA312021B9004577401F059
:1040CB00D003E4FD2158300003C200229002BB74E0
:1040DB0003F09002BAE054DFF07864E6FF54077007
:1040EB00087D01519C7864A607785FE65422F5128F
:1040FB00315CBF060790029CE030E10BE51220E536
:10410B00097865E6B4FF0343120853120A7860E698
:10411B0030E1067864E654E7F6315CBF04047FE7D0
:10412B0080027FFFEF786456FF18E65401FD900480
:10413B005051A99002BEE0900453F078671201D958
:10414B00A312021B786AE6900457F0AB12122512E9
:10415B00227862E6540FFF22D2281237D09002BB8E
:10416B00E06402704D518B30E308E054F7FFF0022E
:10417B00363EE51F60169002BAE020E60F1217F5E7
:10418B001236B5FF4E600251930236729002BAE0BE
:10419B00FF20E602416D30E506A37404F04172EF97
:1041AB0030E4089002BB7405F041721236F2C2285B
:1041BB0041729002BBE064036002416D9002B9E072
:1041CB00604214F0603EA3E04420F030E706113962
:1041DB00C22880069002BB7404F0123FEB9002BD24
:1041EB00EFF07E427FF1900298E030E71290029C54
:1041FB00E020E00B5178540FB504047D078050513B
:10420B0081FD804B785FE630E04C900298E0540FD4
:10421B00FFBF0503D38001C3403C9002BAE04420AA
:10422B00F030E7061139C22880069002BB7404F007
:10423B001236C4900298E030E71290029CE020E026
:10424B000B5178540FB504047D0780035181FD7B1E
:10425B00FF12377C8011E4FF12363EEF24FF9228C9
:10426B008005E49002BBF0A228E433FF22A3E0FD1B
:10427B00C4540FFCED22786AE675F00A84240622FA
:10428B009002BAE0547FF0228F828E837F0202036A
:10429B0016EF54F84DFF227BFE7A007907227B0143
:1042AB007A02799302021BE528D394015003301153
:1042BB0003D38001C3222000099002BBE0600312EC
:1042CB0036F2C20051A20217F8315CBF0417785FB7
:1042DB00E630E20A9002C0E0F46003122D30900247
:1042EB00BAE04408F0229002BBE0B4041E9002BD79
:1042FB00E070119002B9E0640360067863E6440154
:10430B00F60236F29002BDE014F0229002BBE07090
:10431B00031217F52290056EEFF0C20122C201EFD6
:10432B0060467882E620E04008E6C454F044051865
:10433B00F608E6FF54F0FEEF24FE540F4EF6EEC4E3
:10434B00540F2402FEC2037F013007027F0290024A
:10435B009BE0FD1217C8122F6A9002F1EE718A7161
:10436B0074900297E0FB717C227443F0A37420F0ED
:10437B0022121CE4EF24FF9201229002F1E554F08B
:10438B00A37481F0A32290052B12021B7FFF9005D3
:10439B002B12079912004E6FFFDDF322E51E540F0F
:1043AB0060127802E2FF651E600A30010AE51E54B6
:1043BB00BFB50703D38001C32290046112021B1205
:1043CB00022490046712021B124A6F900007E4123A
:1043DB0000A6C204300C1E124A651217DC540FFFE4
:1043EB0064036011EF64016003024A571217E22065
:1043FB00E103024A57E47805F2124A651207A47AE0
:10440B00027981123E73202F10120596124A90608A
:10441B0008123F5544801200949004611213ED3042
:10442B00E767E5566035301532124A651217DC54D2
:10443B000FFF64056053EF640170201217DC30E747
:10444B001A124A651213FC1239A8124A81124AA396
:10445B009004B3120594124A9C602E200903024962
:10446B00BE200D25124A651217DC20E71CE9240932
:10447B00F9E4123F11B40311124A65124A75124A3C
:10448B00A3124A9070030249BE124A651217DCFF51
:10449B00540FFEBE010CEF30E7081217E230E302B7
:1044AB00D2071217E8540FFF7E003007027E80EF11
:1044BB004EF51E7862E6FF7864E6FEEF54F0C454C6
:1044CB000FFDEF540FFFBF04047F4080027F00ED10
:1044DB004FFFEE7E0030E1027E80EF4E7802F2124B
:1044EB004A651217DCFF540F24FE700302490914AE
:1044FB00700302499624FE70030249B7240460033B
:10450B000249BEEF20E7030248BC431E401213FCD6
:10451B00C4540FFF900464F06006E0D39404400A87
:10452B00124A6F900007E40200A6124A6512172B7D
:10453B0065566002C1C51217E290046730E31C1286
:10454B0001FB1239AC124A8112004EFFC4540F29E1
:10455B00F9EE3AFAE92401F9E4800D1201FB12138A
:10456B00FC1239A8E92FF9EE3AFAC003C002C001D8
:10457B00124A6F900003120293124A651217E2302F
:10458B00E3211213FC1259121239AEE92D123F0618
:10459B00C4540FFE124A651213F0C39FC39E24F33B
:1045AB00FF8012124A651213FCC4540FFF1213F052
:1045BB0024F4C39FFF124A581213FC540FFF9004AC
:1045CB0064E06F6002C15D123F5544091200941202
:1045DB004A651217DC30E608123F5544041200946A
:1045EB00124A651239AE7E00124A8190FFFF124AC1
:1045FB006BEF12581B1213F030E70302483F124ABD
:10460B00651217DC20E70302483F1213FCC4540F5A
:10461B00FF1239AE124A8112004ED39401400302AD
:10462B00483F124A651239AE123F0D640360030214
:10463B00483F124A651213FCC4540FFF1239AE12D5
:10464B004A81124AA31207A47B0112583CD20502DD
:10465B00483F124A651213FC540F640F6003024863
:10466B003F1217DC30E608123F55440412009471D8
:10467B00A75017124A651213FCC4540FFF123EB910
:10468B005008123F554401120094124A651217E26A
:10469B00FF30E107123F5544208009EF30E208124A
:1046AB003F554440120094124A6590000B124A6B1E
:1046BB00900008EF1200A602483F124A651213FC45
:1046CB00FF540FFEEFC4540FFDEEC39D4002E1E01B
:1046DB001239AE125845FA12004E65566002E1E0EF
:1046EB00124A651217E230E07771A75009123F5555
:1046FB00124A887405F2ED14900467B5060812018E
:10470B00FB900004800D1201FB1239AE125845FAD2
:10471B00900001124A6B900008EF1200A6EE6002A7
:10472B00E1C3124A651217E220E302E1C31213FC44
:10473B001258851239AEE92582F9E5833AFA12004F
:10474B004E540F7073124A651213FC1258851239AE
:10475B00AEE92582F9E583123F115418605A805057
:10476B00EE90046770081201FB900004800D12019B
:10477B00FB1239AE125845FA90FFFF124A6B9000AC
:10478B0008EF1200A6ED146E702E124A651217E296
:10479B0030E3251213FC1239A8124A8112004E5431
:1047AB000F7015124A651239AE123F0D5460600836
:1047BB00123F554404120094124A651217DC900400
:1047CB006130E607123F5844148005123F584410DD
:1047DB00120094805F124A651213FC540FFE71A7EE
:1047EB005052124A651217E230E020EE2402540FA9
:1047FB00FE1213FCC4540FFFEEC39F5037516512CA
:10480B0039AE123F026556702B8021EEC3940240E5
:10481B002351651239AEAF06EF24FEFFE434FFFEE1
:10482B00E92FF9EA3EFA12004EB55608123F5551E0
:10483B00887401F251651213E465566027C003C0FA
:10484B0002C0019004B31242A9D001D002D003518F
:10485B009C600221BE51651213E4FF900297E06F3A
:10486B00600221BE1243A7400221BE51651213FC08
:10487B00FF540FFE12172BFD90029BE06D6002217F
:10488B00BE51651217E230E017EFC4540F24FE54EB
:10489B000F6E600221BE123F5551887403F221BE88
:1048AB00EE6401600221BE123F5551887401F22162
:1048BB00BE516512172BFF65566006EFF46002219F
:1048CB00BE123F55440112009451651213E4516E10
:1048DB0090000851615175C003C002C001516F9027
:1048EB00000312029351651213F024F6FF51581274
:1048FB0017DC20E60221BE123F55440421B251655C
:10490B0012172B54E0FDE556D39D500221BE121712
:10491B002B541F75F008A42D51FDD3E556B106405D
:10492B000221BE516512172B54E0FFC3E5569F14AD
:10493B00FF5175EF131313541F123F05FEEF54076E
:10494B00122E9A8002C333D8FC5E6067123F554427
:10495B0001120094516512172B541FFF7E00E9249E
:10496B0009517DC003C002C001516F9000031202B8
:10497B0093516512172B541FFF1213F024F6C39F8C
:10498B00516E900006EF1200A68028E51E540F60B2
:10499B00097802E254BF651E7019516512172BB5C9
:1049AB005611123F5544031200948007516F121198
:1049BB0010920451651217DCFF540F640160024121
:1049CB004CEF90046730E7141201FB1213FC123901
:1049DB00A8518112004E900466F0800C1201FB125C
:1049EB0017E2900466F05175123F13900465F09036
:1049FB0004611213ED30094954E264807043900452
:104A0B0066E064017033900465E0FF64086032EF88
:104A1B0064037025300D0A5165517551A351906097
:104A2B0020516551751213E4FF120EC84FFF121778
:104A3B00DC4FFF1217E84F6008123F5554EA120083
:104A4B00949004611213ED30E002D20422900461C1
:104A5B001201FB900006EF1200A69004670201FB07
:104A6B00120067FF9004610201FBE92409F9E43AA3
:104A7B00FA22F9E43AFAE92FF9EE3AFA2244031250
:104A8B0000947805229004B312021B7B017A027901
:104A9B00817F041207B0EF22E92403F9E43AFA22EA
:104AAB0090055FB118C003C002C0011205969004B7
:104ABB00B312021BD001D002D003519C7002D3223F
:104ACB0090055FE0FEA3E0FFF5828E83A3E0FD8FF0
:104ADB00828E83E04DFF90055FE0FCA3E0FD122F7B
:104AEB00F0E04FFF8D828C83A3A3A3E04FC3700133
:104AFB00D3227C00FFEC35F0FE22F9E43AAD0190B5
:104B0B00054AF0A3EDF0123338900502EFF0C39491
:104B1B0002400281C6900502E024D8F582E43407F6
:104B2B00F583E0FFE4F54AEF6553600F744B254ABC
:104B3B00F8E66F600491FE40F3054AE54AD394050D
:104B4B00400281C6900503E54AF0246E120E988F41
:104B5B0050E5505430FF602691C754C7F074DA2EDD
:104B6B0091CE4410F0900502E0FE24E491E954E765
:104B7B00F074E42E91E9FEEFC313FFEE4FF09005B6
:104B8B00057404F091E0F549E4900504F091D750D9
:104B9B004491C75407FDEFC39D500AEE91F2122DBD
:104BAB0023E0FF800C900504E070047FFE80027F01
:104BBB0000900506EFF0E0FFC007900504E02549E3
:104BCB00120E98C3D0E09F900506F0700890050474
:104BDB00E004F080B8900504E06404700281C674B0
:104BEB00042549F549900505E014F0E0D3940050F5
:104BFB009791E0F549E4900504F091D7501BEF1223
:104C0B002E87EF75F004A4254951FD120E9CEF6021
:104C1B0008900504E004F080E1900504E0C39404DF
:104C2B0040037403F0900504E0122E87900504EF07
:104C3B00F0B10F900502E091CC5407F550E49005CC
:104C4B0005F0E550700BE02549FFE433FE7DFE8057
:104C5B001C900505E0FFC39550501D900502E09197
:104C6B00F2122D23E0FDE5492FFFE433FE12084E2F
:104C7B00900505E004F080D9900505E0FFC394048E
:104C8B005006E5492F120848E54A246E120E988FFC
:104C9B0050900502E091CC5438C39410500E122E54
:104CAB00968002C333D8FCF45250800B122E9680A0
:104CBB0002C333D8FC4250E54AB12322900502E0EF
:104CCB00FE24DAF582E43407F583E022900504E054
:104CDB00FFC3940422E54A75F011A4240922F5823E
:104CEB00E43407F583E02225E025E024DCF582E4BB
:104CFB00340722054AE54AC39405229FEE6480F8E7
:104D0B007480982225E025E02549F54922EEF0A391
:104D1B00EFF0AA06F97B0122246EFFE433FEAD50BF
:104D2B0002084E900540E0FDFFC374109FFFE49412
:104D3B0000FEEFC4F8540FC868FFEEC454F048FEF1
:104D4B00E53054F0C3B1067F005002AF0522785F07
:104D5B00E630E502D20222EF6003780AF220025617
:104D6B007803E230E0509002BFE0FF90028E120118
:104D7B00FB123F809002BFEFF0603B7806E2C3303E
:104D8B00E501D392069002CF1201FB122F6A78082D
:104D9B00E29002F1F07803E2B1D5F09002BFB1DFFF
:104DAB007027780A7402F2900291E0FEA3E0F5827C
:104DBB008E837F028010780AE2FF900291E0FCA3C1
:104DCB00E0FDF5828C8312031622A3F0A3744DF041
:104DDB00A3746222E0FBAD56E4FF121CE4EF2290B9
:104DEB000553EFF0A37407F0E5536004D16460033F
:104DFB007F00229001197402F0AF059000EEECF0E9
:104E0B00EFD1AD7415F07B007A00794B1207A40B30
:104E1B007A0179407F051205BC900553E0600C9038
:104E2B00014574FFF0900554E004F0122F649005D7
:104E3B0054E09002F1F0A37405F0A37428F0A3746E
:104E4B00C8F0AB53B1E1700E90011904F0E490007F
:104E5B00EEF0A3F0FF227F0122900119E064012202
:104E6B009004E212021BE5536004D1646002C3227A
:104E7B00E4FFEFC39D500E9004E21201FB8F8212F0
:104E8B003E9AFE80027E00744B2FF8A6060FEFB4FD
:104E9B0005E09004E6E0FCA3E0FD7F01B1EAEF241E
:104EAB00FF22A3F090013E7401F0A322900557EC72
:104EBB00F0EDD1AD04F0D206AB07C003122F649016
:104ECB0002F17402F0A37405F0900557D1F3F0D002
:104EDB0003B1E124FF22780DE29002F1F090051C62
:104EEB00E09002F2F090051DE0FFA3E09002F3CFFB
:104EFB00F0A3EF22900555EEF0A3EFF0120F749094
:104F0B000555E0FCA3E0FDE4FFA1EAD1AF7417F077
:104F1B00EF7006A37405F080069001407404F01244
:104F2B002F64F13DE4A3F0A3F0AB51AD567F01022A
:104F3B001CE49002F17403F0A37405F0229002F6C6
:104F4B0012021BE51FC3940250749002FCE0FE9406
:104F5B001940037F00229002FDE0FF54207806F2F7
:104F6B00A3E0FDA3E0900291CDF0A3EDF09002F948
:104F7B001201FB9002CF12021B7808EEF29002F6A0
:104F8B001201FB90028E12021BEF4420FF7803F2FA
:104F9B00E4780AF2C202121E432466F8A656E49085
:104FAB0002BFF09002CF1201FB90045DEEF0EF54C4
:104FBB00FEB1D5F07D027F01121EF67F01227F002C
:104FCB00221256ECEF60047F0180027F0012588F93
:104FDB001217DCFD30E504EF4402FFE51A30E7045D
:104FEB00EF4480FFED540FFDBD0506EF4410FF802D
:104FFB0013BD010C121725B4FF0AEF4404FF800404
:10500B00EF4408FF227FBD7E078F828E83E0B47A48
:10501B0006A3E0649C60360FEFAC0670010E14F52E
:10502B00828C83747AF00FEFAC0670010E14F5824C
:10503B008C83749CF0C3EF94E8EE9407500D8F8231
:10504B008E83E4F00FBF00010E80EAC322D322430C
:10505B00C20243C204E5C254024401F5C22280F2EB
:10506B00115D8F95AE04ED7803CEC313CE13D8F933
:10507B0054E0F594C2AF439401439402D2AF229013
:10508B000512E0FF1204B6E4900512F0C22590025F
:10509B007DE557F0FF0557EF5401FFC3747E9F90DA
:1050AB000511F090027E745AF011BE31447C027DE2
:1050BB000080AD7E027F007D7F311E90027F2290AB
:1050CB000512E07003302502118A900514E070037D
:1050DB0030260211E122900514E0FF1204B6E49091
:1050EB000514F0C22690037DE558F0FF0558EF54E8
:1050FB000FFFC3747C9F900511F090037E745AF0E0
:10510B007E037F007D7F311E90037F31447C037DC6
:10511B0000016B900559EEF0A3EFF0E4FBFAAF053D
:10512B001DEF600D9005591235572BFBE43AFA80B1
:10513B00EDEAFFAD03ED2FFF22EFF0900511E0FF3D
:10514B0022E5C054C07005E52E30E00790051374BE
:10515B0014F022900513E014F07002118A22E5C0BE
:10516B0054C07005E52E30E0079005157414F0223D
:10517B00900515E014F0700211E12243C20453C2F2
:10518B00F9227812E264AA2411FFF222E52E30E212
:10519B000FE52E20E50AE52E30E0057F011221F305
:1051AB0022900534121FB9EBF07811E254306006EF
:1051BB0031F85002C322900535E0F4F5DC53B37F90
:1051CB00900534E0FF90017AB404087403F043B304
:1051DB00808002EFF0E5DC20E109E5DB5402F5B459
:1051EB0043B480900536E09007E6F0D322A211225B
:1051FB00E5567009510AE24F7003D38001C3227840
:10520B0013E2FF08E24FFF08E24FFF08227F002264
:10521B00EF7E0270027E01AF06EF302A0342DB22E3
:10522B00F452DB227B017A01791A90053712021BAB
:10523B00900537122AE2FF1204B69005371201FBD4
:10524B0074FF020094A22B9208D322E4780EF20290
:10525B002F70EF7002C322E4F549744B2549F8E631
:10526B006F60070549E549B405F0E549C39405505E
:10527B0024E54975F011A4241AF549E4F54AE54AE9
:10528B00C394105010E549254A120E98BFFE02D365
:10529B002251A280E9C3227404254AF54A22AF5356
:1052AB002251B52F90002893FF22E53054F0C454BF
:1052BB000F2251B5FEEF90001E932E90000E93FF20
:1052CB00227E10EE60091EEE90002893B507F4EED7
:1052DB0090000E93FF2275BE08E5BE20E3FB907F86
:1052EB0082E493F52C907FB0E493B4421F907FB28D
:1052FB00E493FFF460048F368007907F81E493F58D
:10530B0036907FB3E493FFF460028F2C907F83E49D
:10531B0093F5BEA3E493F5D9A3E493F5D4A3E49357
:10532B00F5D5907F91E493F5C5907F93E493F5C702
:10533B00907F95E493F5AB43D70875CD01E5CD2070
:10534B00E0FB53D7F7E5CE540F2406FFD3940F4061
:10535B00027F0FEF4410F5CE907F92E493F5C69049
:10536B007F94E493F5B6907F8FE4934433F5C3E4D5
:10537B00F530E53090000E93D3953640070530E5B8
:10538B0030B410EEE530C3941040057530FF800744
:10539B00E530C454F0F5307F200225AEC2EBC2A934
:1053AB00C211D2B9D2FB51E1C28D753104758CC1DA
:1053BB00758A7F438901D2A9D28C227F78E4FE12B1
:1053CB0024B2E5D620E108E5D620E0030E8002E406
:1053DB00FEEE20E402DFE8EEA2E42253C3BF752900
:1053EB000185262A85272B753440E4F52843C340D5
:1053FB0022E4FFFEC2EB53C3DF43C3400FEFC39462
:10540B00344006EED394034047E5C020E542E5C0A7
:10541B0030E4FB75C010E5CAA2E59221A22130222F
:10542B0001B34010EED394024006EE24FEFD80172C
:10543B007D008013EEC394FF5009EE2401FDE4338D
:10544B00FC80047C007DFFCEEDCEA221922280ACAD
:10545B00E5C030E53675C020E5C030E5FBE5C96435
:10546B0055702075C020E5C030E5FBE5C965566079
:10547B0008E5C9F460037F002243C32071E6D2EB39
:10548B007F0122E5C9B454037F33227F002271FCD4
:10549B00EFB40102D322EFB4330771FCBF0102D387
:1054AB0022C322C0E0C0F0C083C082C0D075D00838
:1054BB00E52E20E002A1A8E52D1202EC54E60154E2
:1054CB00F602553703555904557705557F06558F09
:1054DB000855080955100A0000565675AC5515337A
:1054EB00E5336002C156752D02C15675ACF0E52E41
:1054FB0030E605752D09C156752D03C15675AC5592
:10550B00752D0AC156E5382408F582E43537F58345
:10551B00E0F5AC752D01900541D161700A7F401209
:10552B0022DD75330AC156753314C1560538E5387B
:10553B00AE377002053714F5828E83E0FFF5AC624F
:10554B0035153AE53A6002C156752D04C1567829D6
:10555B00E475F0011201E212004EFFF5AC62351555
:10556B002FE52F6002C156752D05C1568535AC75DB
:10557B002D06C156301002800643AB0175AC007589
:10558B002D08C156E5AD20E702C156C2EB53ABFE69
:10559B00752D0075EE007F041225AEC156E52870FF
:1055AB000EE5C054C06008752804753300C156E57C
:1055BB002864046002C14F782975F0011201E2E5FD
:1055CB00C9120094AF341534EF70028060C374407D
:1055DB009534FFD394045036E534643F7025AB29E2
:1055EB00AA2AA92B90FFFF120067FE64556004EEF8
:1055FB00B4540ED21190040EE0A3E0F53971E6809D
:10560B0002C211C3743F9534900576F0803DBF08FC
:10561B002085C933E5C030E704C20F8002D20FE505
:10562B0033D394094007E533D39440401E71E68091
:10563B001AC37440953465337011300F02800A75AC
:10564B0028058007E528B40502D16BD0D0D082D0D5
:10565B0083D0F0D0E03274FFF5F012012F45F02229
:10566B00C2EB7F021225AE53C3BFE4F52822C0E084
:10567B00C0F0C083C082C0D075D008C28DC28C75FB
:10568B008CC1758A97D28C900000E004F0053CE544
:10569B0031700E75310490040E75F00112012F80DC
:1056AB00021531D0D0D082D083D0F0D0E032ED6073
:1056BB000CE41200940429F9E43AFADDF422E4FF35
:1056CB00ED601A7E01EE600C12004E5E60010FEE73
:1056DB002EFE80F1740129F9E43AFADDE6227F000F
:1056EB00229007D7E0B40206301A037F01227F0015
:1056FB0022C21922AD077F0490051AE0FEC3940263
:10570B005027EE25E02416F582E43405F583EFF0FF
:10571B00AF0590051AE0FE04F0EE25E02417F582A4
:10572B00E43405F583EFF0D322C322E4FFEFF14419
:10573B00E060050FEFB402F52275F04BA4241AF5C7
:10574B0082E43400F583227817E214F27005C21557
:10575B00122C4A2278177478F27BFE7A0079187C27
:10576B00577D5290049874FAF0A37478F0022AE8EB
:10577B0043C20453C2F922900579EFF090051AE069
:10578B00602D900516E0FF900579E0F8A6079005CF
:10579B0017E0A805F67B017A0579181207A47A059C
:1057AB0079167F021205BC90051AE014F0D32290F3
:1057BB000579E0F8E4F6C32275F04BA4241AF974CA
:1057CB000035F0FA7B019000D202021B7A007BD5E8
:1057DB0090047F7419F0A374C0F0E4A3F0A322E546
:1057EB005D75F004A42409FFE435F0FE227B007AFA
:1057FB0000797D90049FE4F0A37404229EFE900434
:10580B00EBF0A3EFF0F5828E83E4939004EDF0229E
:10581B009000080200A6F0A3F0A3F0A3F022EB5433
:10582B0030131313541FFFEB54C044104F7881F601
:10583B00227A0279CB7F040205BCEE75830029F92D
:10584B00E5833A227B017A0079D50205BCE0900210
:10585B00F2F0A37429F0A37419F0229003B8E0FEC0
:10586B00A3E0FF22FFF5828E83A3A3E022AF497E44
:10587B0000E4FD12084E754A0122FFC4540FF58255
:10588B0075830022AB13AA14A91522900009E4F525
:10589B00F0020193900490E0FF7404D39F22AB16A7
:1058AB00AA17A9182274FFF5F012014545F02290B2
:1058BB000441F0EE900440F022E549255DFFE4330E
:1058CB00FE22246BF8A60608A60722F090051BE023
:1058DB00FBAD5622900017120067540F2274802FD5
:1058EB00F582E434022274002FF582E43402229014
:1058FB000490E090050BF0227403F09003C3E022B8
:10590B00900003EF0200A6C4540FFFFD7C0022E9B8
:10591B002404F9E43AFA22E9240DF9E43AFA2212C2
:10592B0000A690046FE0227401F090048BE022AF8C
:10593B004A7401A80708229002F2E054FAF0227D83
:10594B00FF7F01020843E4FDFFFE0208439003863C
:05595B007486F0A32298
:107F8000002A140403601000460246000000062484
:107F9000F0140E06140800000000000000000000AD
:0D7FA000000003102A362A393D34323F001C
:047FB0004201FFFF8C
:017FB500FFCC
:00000001FF
