:100000000203D625277286757F06220256782D2C8C
:100010002B2A29281C1B1A1918171615141300014E
:100020000102020303040405F0C8A7917767604644
:100030003835323024222014362A393D34323F00FC
:0A0040000091B69004C474FFF02292
:10004B000254ADBB010689828A83E0225002E7226B
:10005B00BBFE02E32289828A83E49322BB010CE577
:10006B008229F582E5833AF583E0225006E9258261
:10007B00F8E622BBFE06E92582F8E222E58229F5A5
:10008B0082E5833AF583E49322BB010689828A8356
:10009B00F0225002F722BBFE01F322F8BB010DE563
:1000AB008229F582E5833AF583E8F0225006E925AB
:1000BB0082C8F622BBFE05E92582C8F222EF8DF03D
:1000CB00A4A8F0CF8CF0A428CE8DF0A42EFE22BCD9
:1000DB00000BBE0029EF8DF084FFADF022E4CCF8CD
:1000EB0075F008EF2FFFEE33FEEC33FCEE9DEC9832
:1000FB004005FCEE9DFE0FD5F0E9E4CEFD22EDF8B8
:10010B00F5F0EE8420D21CFEADF075F008EF2FFF5A
:10011B00ED33FD4007985006D5F0F222C398FD0F42
:10012B00D5F0EA22C5F0F8A3E028F0C5F0F8E58297
:10013B00158270021583E038F022A3F8E0C5F02594
:10014B00F0F0E582158270021583E0C838F0E822E2
:10015B00BB0110E58229F582E5833AF583E0F5F0E2
:10016B00A3E0225009E92582F886F008E622BBFEBF
:10017B000AE92582F8E2F5F008E222E5832AF58305
:10018B00E993F5F0A3E99322F8BB0111E58229F578
:10019B0082E5833AF583E8F0E5F0A3F0225009E914
:1001AB002582C8F608A6F022BBFE09E92582C8F213
:1001BB00E5F008F222D083D082E493F20874019325
:1001CB00F208740293F208740393F2740473E6FB5F
:1001DB0008E6FA08E6F922FAE6FB0808E6F925F044
:1001EB00F618E6CA3AF622EBF608EAF608E9F62222
:1001FB00E0FBA3E0FAA3E0F922F8E0FBA3A3E0F90C
:10020B0025F0F0E582158270021583E0FA38F022B2
:10021B00EBF0A3EAF0A3E9F022BB010789828A8302
:10022B000201FB5005E9F80201D9BBFE05E9F80212
:10023B00031889828A8302032ABB011A89828A8363
:10024B00D0F0D0E0F8D0E0F9D0E0FAD0E0FBE8C095
:10025B00E0C0F002021B5016E9F8D083D082D0E048
:10026B00F9D0E0FAD0E0FBC082C0830201F2BBFE02
:10027B0016E9F8D083D082D0E0F9D0E0FAD0E0FBD9
:10028B00C082C08302032122BB0120E58229F582B3
:10029B00E5833AF583D0F0D0E0F8D0E0F9D0E0FA7E
:1002AB00D0E0FBE8C0E0C0F002021B5018E9258249
:1002BB00F8D083D082D0E0F9D0E0FAD0E0FBC08256
:1002CB00C0830201F2BBFE18E92582F8D083D082ED
:1002DB00D0E0F9D0E0FAD0E0FBC082C0830203216A
:1002EB0022D083D082F8E4937012740193700DA323
:1002FB00A393F8740193F5828883E4737402936873
:10030B0060EFA3A3A380DF8A838982E473E2FB08F7
:10031B00E2FA08E2F922EBF208EAF208E9F222E447
:10032B0093FB740193FA740293F9224104C9FF41C0
:10033B0004C4FFC19BC11C4103C4004103BC004169
:10034B000380FF4103C300410385004103C100410A
:10035B0003C7004103B2004203B800004103B500DC
:10036B00C102C107C105011F004102CA00C10181C1
:10037B000400C100C18341017A00015400C10C810A
:10038B000B008110FFC109015200015300C10BC1C9
:10039B000E4100ED0041054006012D00C112013256
:1003AB0000013000013100C110C10FC11341051212
:1003BB000041051400C126C125015800015700C199
:1003CB001AC117013B00C114C1150078FFE4F6D820
:1003DB00FD9000007FBD7E08E4F0A3DFFCDEFA7524
:1003EB00A0007581B902042E022065E493A3F8E402
:1003FB0093A34003F68001F208DFF48029E493A372
:10040B00F85407240CC8C333C4540F4420C883408A
:10041B0004F456800146F6DFE4800B010204081059
:10042B00204080900336E47E019360BCA3FF543FD1
:10043B0030E509541FFEE493A360010ECF54C02591
:10044B00E060A840B8E493A3FAE493A3F8E493A381
:10045B00C8C582C8CAC583CAF0A3C8C582C8CAC5E5
:10046B0083CADFE9DEE780BE90054FEFF0A3EDF026
:10047B009004C4E0FFF46002114190054FE0FFB41B
:10048B000206C21BD21C8002D21BEF700D301C0265
:10049B0091D0900550E0FF0208169004C9E0FFF4DC
:1004AB00600291B69004C974FFF0221231C250124F
:1004BB00123195F583E4F0A3F0EF12239FE4F0A340
:1004CB00F00EAF0622E4FDFCFF91F7FFF4600891FC
:1004DB00B69004C974FFF09004C4E0FFF4600211FD
:1004EB0041C21C22900561EFF0D21B2291FE9004B9
:1004FB00C9E02290053DEFF0A3ECF0A3EDF0780BF3
:10050B00E27030B14490053DE0FF24FF9209EFB457
:10051B000103D38001C3920D30091D90053EE0FF0E
:10052B00A3E09000F0CFF0A3EFF0200D0B753B0193
:10053B00C21522E4FF122919227B017A0479FD905E
:10054B0004D9511B7A0409120FCE9004FEE0FFA3CD
:10055B00E04FFFA3E04FFFA3E04F7007B196AD56FE
:10056B000232337B017A0479FE9004B3B194124AC0
:10057B009B600C125209E24F6005B18B120FCE2219
:10058B007B007A0079569004D9511B7BFE7A007957
:10059B001322123E8130050D7B017A0279CBF1A437
:1005AB00B1B6C20522B196F1A47B017A0279937F91
:1005BB00049004A9511BAE071FEE60129004ACF11E
:1005CB0099114EFE9004A9F199EE119480E82290B6
:1005DB00053A511B7D1BE4FF123813D1AAE9240500
:1005EB00F9E43AFA9002E2511B7B017A01793990D6
:1005FB0002E5511B7BFE7A00790C9002E8511B7AC5
:10060B00007911122FF77811E230E007780F74019F
:10061B00F28004E4780FF2D1AA74011194D1AA905C
:10062B000001740111A67F103008027F08EF4443CC
:10063B0090000211A67811E2FF30E00CD1AAE92458
:10064B0002123F5D44801194EF7F0030E1027F8006
:10065B00EF441CFF7811E2FE7D0030E4027D40EF99
:10066B004DFFEE7E0030E5027E20EF4EFFD1AA1249
:10067B00590A780CE2D3941440037414F2780CE208
:10068B00FF240708F2E92407F9E43AFAC003C00291
:10069B00C001900139F1A2D001D002D003A1BC90CE
:1006AB00053A21FBD223E4F55ED224F1F0FD747EF2
:1006BB00F1E67023C3747D9FFF747E1258062024CD
:1006CB0009E0C39557C394025004F1D3F557055E67
:1006DB00E55EC3940240D420231DAF570557EF545A
:1006EB0001F1DC747E1236E5F97BFFF1A47B017A14
:1006FB000279007F80B1BCE4F55ED224D223900254
:10070B007EE0645A70531250BDE06F704CF1F0FDF7
:10071B00747CF1E67023C3747D9FFF747C125806C2
:10072B00202409E0C39558C394105004F1D3F55815
:10073B00055EE55EC3941040D420234EAF58055898
:10074B00EF540FF1DC747C1236E5F97BFFF1A47BDF
:10075B00017A0379007F80A1BC7F747A027900F162
:10076B00A9F196E41194DFF97F0A7B017A0279747F
:10077B00F1ABF19674FF1194DFF87F7F7A03790068
:10078B00F1A9F19674FF1194DFF8229004E8E47557
:10079B00F001410490048D31FB9004AC411B7B01B3
:1007AB009004E8411B9004B0511BAE071FEE60157F
:1007BB009004B3F199114EFE9004B0F199114E6E65
:1007CB0060E87F01227F0022C224C2239004EDE067
:1007DB0022FEC3E494009004ECF0229E8D82F583FC
:1007EB00E493645A22E55E7F00FEC3747E9F2290E1
:1007FB0004C51256607013301C101204D07A0579A0
:10080B0062F1C1900562E0FF111622EF7023900395
:10081B008074FFF0E49003C3F0900385F0FE12594F
:10082B00499003C3113D900385E0FD7F037E0011CA
:10083B004322E0FD7F027E0012380B8006FFE4337B
:10084B00FEE4FD900521EDF090051FEEF0A3EFF017
:10085B00D19C900521E0FD6F600E90051FE0FEA37B
:10086B00E0FF122BAF7F02227F012290048B121F1D
:10087B00B9122FE3FFC39420401DEFD394FF501701
:10088B0090048BE0FFA3E0FDA31201FB900490E02A
:10089B00900415F00218B0D12112004E64016002D1
:1008AB00C114123F121202EC0D4201091502092F5D
:1008BB00030BED040CA70508DB080BC40B0A0A0C91
:1008CB000B461409B81609FA170E0E2200000E1467
:1008DB00300C02C114200902C114900490E0C3949F
:1008EB00035002C114D11520E002C114D20E9004A2
:1008FB008BE030E10AA3E0FFE4FBFA7D028022905B
:10090B00048CE0FFE4FBFAFD801790048CE0FF9071
:10091B00048BE07E0030E1027E02EE4405FDE4FB39
:10092B00FA021FC0300C02C114200902C11490043A
:10093B0090E0C394074003D38001C34002C11478F5
:10094B000B7401F2D115F556D121124AA21207A44C
:10095B001205967F041205BC120596AD5612323362
:10096B00E5567003123276E556703712382C7549FE
:10097B0019E549C3946E5019125877E54AC3941080
:10098B00500BE549254A11481252A180EEF1F28035
:10099B00E0E4FD7F08FE114EE4FD7F09FE114EE4FD
:1009AB00F553E4FF1229191232A7D20A22780FE26B
:1009BB007002C114E55370057550018003855350C7
:1009CB00D115F551124EAE7416F0A3E551F0122F5E
:1009DB0064124F3CA3744FF0A37415F0AB50AD569B
:1009EB007F01121CE4EF6002C1147F02024F1590CD
:1009FB000119E064036002C114D115FF0228321201
:100A0B00589E400261467409C39F5002614675505F
:100A1B00FFC2D5D1C2FFC45407F55D7006D11BF5DB
:100A2B0052D2D5E5527002610AE4F549744B25495F
:100A3B00F8E6FF65526012EF7008E550B4FF0385CE
:100A4B0049500549E549B405E3E549C39405401010
:100A5B00E55094FF500A855049744B2549F8A6522E
:100A6B00E55DC3940440026139E549C39405400236
:100A7B00613930D507E54904FF124021E54975F08E
:100A8B0011A4F5492419F54930D507FF7E00AD5265
:100A9B00114E0549E55D124D0ED1C25407F550E4D8
:100AAB00F55D30D50BE55070071258C37DFE8018ED
:100ABB00E55DC3955050171258C3D1211259197CBB
:100ACB0000E9255D123F05FD114E055D80E2E55DF8
:100ADB00C394045006E549255D1148E4F55D744B5C
:100AEB00255DF8E6B5520DD121E55D04FD1258F9EF
:100AFB00D1CE803A055DE55DC3940540E1802F3092
:100B0B00D52C754919E549C3946E501FAF49F1F9BE
:100B1B006015125877E54AC39410500BE549254AE6
:100B2B0011481252A180EEF1F280DA12382C124EDB
:100B3B00637002C11412290002289512589E50743A
:100B4B007409C39F406ED1C2FFC45407F55DEF54C7
:100B5B0007F550E55D70107F05124021D115F55357
:100B6B00FD7F087E00114EE55DC394045046E550B1
:100B7B00600F1257E9AD507C00D121125919123177
:100B8B00D8E550700BE55D70077DFE7F09FE801583
:100B9B00E550C3940450101257E97C00EF2550FF29
:100BAB00EC3EFEE4FD114EE5536009D1211258F9DC
:100BBB00E4FDD1CE7F04022B54124E637002C1149C
:100BCB00122886E4780BF2122B79F1749000EE1256
:100BDB0031BB7002C114D11524FEFF8D828C8302B0
:100BEB000316300C02C114900490E0C3940450021D
:100BFB00C114D115D3941D4002C114A207920B74DA
:100C0B0002122914D20C900119E0B4040312522ED3
:100C1B001232A7D20AD1152403FFE433FE900490BD
:100C2B00E0D3124D054010D11BFF7E00E9240312C7
:100C3B004A7C12004E8001E4780EF2780EE27006C8
:100C4B007E017F5980047E007FF890013C124D1786
:100C5B00C003C002C00112079FD001D002D0037F96
:100C6B00211205BC90048CE09000F6F0A3125931D0
:100C7B0030E1079000F7E04402F0D212D1BAFF2422
:100C8B0003FDE43EFAA9057B01D1B2E0FD1256C883
:100C9B00EF24079000EDF0E4FF022C63780B740453
:100CAB00F2122B79900490E0D394024004D115807A
:100CBB0001E4780EF2780EE2FB70067C017D598020
:100CCB00047C007DF890013CECF0A3EDF0F5828CF8
:100CDB00837401F0A37406F090049212593130E141
:100CEB0007900492E04402F0D1BA12586E7004D10E
:100CFB00B204F0D1BA12586ED1B2A32582122D28AC
:100D0B00EBD1B9FFAA06F97B01122F6AD1B2E0240D
:100D1B0004FF780EE27E0070027E01C3EF9E90020C
:100D2B00F1F090049212585790048C124DDE600231
:100D3B00C1147F02022919900490E0FFC39406E4CA
:100D4B0094005002C1148F4A7B017A0179257D14DE
:100D5B00E4FF123813D1C220E258E92403123F5D9D
:100D6B00440412009412079F7B017A01791D7F06C0
:100D7B001205BC900122E0A3F0123FA3E4900124E2
:100D8B00F0054A054A900490E0FF24FAFDE434FF95
:100D9B00FCD3ED9400EC94004051EF24FAFFD121E9
:100DAB00E92406F9E43AFA1207A47B017A017925C2
:100DBB008036900490E0FF12079F7B017A01791D2A
:100DCB001205BC900120E020E121123FA3054A90BF
:100DDB000490E024FBFFD121E92405F9E43AFA124F
:100DEB0007A47B017A0179231205BC90048CE0FDEA
:100DFB007B017A017922E54A24FB9004CFF07F84B2
:100E0B00023033D115FF122C3C2290048D1201FBC2
:100E1B0090000202006790048D0201FB7F067E00AA
:100E2B00D193BF42237F017E00D193900380EFF0DB
:100E3B007F027E00D1939003C3EFF07F037E00D13E
:100E4B0093900385EFF0801E1259507E0012594982
:100E5B00E4FD7F02FE1143E4FD7F03FE11437D425F
:100E6B007F067E0011431230FB7A0379BDF1C190EE
:100E7B0003BDE0600DE4FFFED193EF600512200E81
:100E8B008003121FB27F012212380B8004FFE43360
:100E9B00FEC3EF9480EE940050051258F0800312BD
:100EAB0058E7F583E0FF228F828E83A3A322F09075
:100EBB00013CE0FEA3E02290048D1201FB900003A5
:100ECB0002006790050AEDF090050712021BD11B7B
:100EDB007002E16D900507D1C5C4540FF54A600C43
:100EEB0090050AE0246ED1988F508003E4F5509062
:100EFB000507D1C5540FFF90050BE0C39FC39405A5
:100F0B00402E7E00E92404124A7C12004EFFF16E43
:100F1B00900008EF1200A6FFE54A701E53500FEF2A
:100F2B00540633333354F8FEEF54C04E4250800A0C
:100F3B0053500FF16E740812581AF16E12172B30B2
:100F4B00E30E1259398002C333D8FCF45250800B94
:100F5B001259398002C333D8FC425090050AE01273
:100F6B004D22229005070201FB754919E4F54AAFA2
:100F7B00497E00D19C744B254AF8A607744B254A31
:100F8B00F8E6D394E84008E4F6AF49FEFD114EF1C4
:100F9B00F2124CFD40D9227D547F067E00114E7D0E
:100FAB00A57F077E00114E12058BF1CE12288612FB
:100FBB003E6B8F5380B37B019004D912021B1B7ABB
:100FCB000079009004D61237C7D19C9004D9122B0C
:100FDB00129004D61201FBE94A600B1257FDF07F09
:100FEB00017E00122F362274112549F549227E000D
:100FFB00D19CEF229004C8E014F07014111C9004E3
:10100B00C7E0C3941B5003E004F09004C7E0A3F0C7
:10101B002230093A200C377F05120FF970307B0113
:10102B007A0079B71205DAE49000B3125820A304C2
:10103B00F0FB7A0079B3780DE2240490046FF0A3EF
:10104B007411F0E4A3F0A3F07DFFAF5680037F0093
:10105B002290046A121FB912021B1257358F3DEFF3
:10106B00C3940240022102EF1257C2310A3105909C
:10107B000001E41200A690046AE09000021200A6A0
:10108B0090046BE09000031200A6900470E0FF54F4
:10109B00F0FEC4540F9000051200A6EF540F900001
:1010AB0004125929FF602990046C1201FBEA494B89
:1010BB00601E310AE9241CF9E43AFAC003C002C0ED
:1010CB000190046C1207A2D001D002D0031205BC10
:1010DB00310A90001674FA12592924119000061245
:1010EB0000A6900471E0FFA3E0900009CF8FF012EF
:1010FB000193E53D04FF227F0022740112009490BE
:10110B0000D20201FB90054C12021B71D5F1E25487
:10111B001FF54071F0FFE53B6401601C7412D39F17
:10112B005016E540B402067419D39F500BE540B43A
:10113B000108741DD39F4002C32271D571FC30E2AC
:10114B000CF12B6556600671E4FF1229A5E540648E
:10115B0002707671EA20E76F120224F12B6556704C
:10116B001C301663C21671E4FD7F0312570271D552
:10117B0071E4FFD22EE92413124B04804A71D590EF
:10118B00000C120067FF540FFE603C1259211E7CAD
:10119B0000E92E123F056556702D71D5EF54F024E2
:1011AB00102E90000C1200A690000BE471D21207C7
:1011BB00A47F1812584EC20371D571E4FFF12BFDB9
:1011CB001257D6F0121E4AC322E4FF71D5125921D1
:1011DB00EF123F02B55602C3220FEFB404ED71D5E7
:1011EB0071E4FFF1E8540FFD122AA35002C32271E0
:1011FB00D5F12B6556700261047811E2FF54306013
:10120B00026104EF20E0026104E5406401600571B6
:10121B00EA30E71B2015026104E5406401600261BE
:10122B000471D5F1EEFEAF01124AAA40026104121D
:10123B0057358F3DBF0202C322E540B4011E71D565
:10124B00F1EEFA7B01C003C002C001120596120732
:10125B00A4D001D002D0037F041205BCE53D125788
:10126B00C271D571F0FF310A1239ADC003C002C093
:10127B000171D51207A4D001D002D0031205BC71A5
:10128B00D571E4FF122A1771D5F1E8540FFE122B1A
:10129B0019A606EF122A0F76070876D090000C12CB
:1012AB00006754F0FF605224F0FF310A1258DEFE43
:1012BB00E92418F9E43AFAEE7C0029F9EC3AFAE55C
:1012CB0056120094EF2E04FF310A90001771D17162
:1012DB00E4FF310A90000271D1F12BFF310A125950
:1012EB000A3105900004744071D271F0FF310A90FD
:1012FB000006EF1200A612589571D5F12BFF65561B
:10130B006006EFF4600261CD71EA30E70261CDE572
:10131B0040600261CD90054C123F5744011200947E
:10132B0071D5F1EEFAC003C002C00190054C120159
:10133B00FB90000312029371D571F024EEFF900520
:10134B004C1201FB900006EF1200A6120224F1DCF6
:10135B0030E66871D571E4FFC22EE9240C124B0400
:10136B0071D51207A47F1112584E71D571E49000FC
:10137B00E6F0F1E8540F9000E7F071D5E9240CF991
:10138B00E43AFA1207A47B017A0079E87F0512058B
:10139B00BC9000D9E556F09000DC7419F071D57152
:1013AB00E4FD9000DDF0A37422F0A37407F0C203F8
:1013BB001257D6F0AF56121E4A8009E540C3700192
:1013CB00D322C322D322EF1200A690054C1201FBAD
:1013DB00020224AB13AA14A9159000040200679013
:1013EB00054C1201FB900007020067AB13AA14A96E
:1013FB001590000A020067AC059004F8124D178B8C
:10140B00138A14F515ECD394085002E12471F0FD06
:10141B00ECC39D5002E124124390EF6002E124F5EE
:10142B001AA20F92071256FB7B007A007913124314
:10143B00C3F1CFF1D7FF540F64017060EF30E70CAD
:10144B0071FC1239A7E92FF9EE3A8009F1CF7B0134
:10145B002409F9E43EFAE92401F9E43AFA9004FA92
:10146B0012021BE51A546070339004FA122AE2FF41
:10147B00600864186004EFB40705E51A30E718EF4D
:10148B00B403199004FA1201FB123E799004B312C3
:10149B000594124A9B70057FFE1229A571DEF51289
:1014AB007801F2E51A30E2519002BAE020E74A7F68
:1014BB00031239B590028DE51BF012588EF1DC301A
:1014CB00E50990028AE04420F0802B1258A8120004
:1014DB004E64017021123F126418701AE519B4049E
:1014EB0009120EC8FF1252BC800A1258A8120E1B0A
:1014FB00FF1252CB8F321236F1200402C153E51A80
:10150B0030E61D12588EF1E2C4540F900280F01297
:10151B0036C390029DE054F0FD7BFF12377BC16216
:10152B00E51A20E102A1F6E4F512900298E0FF54CF
:10153B000F64016002A1CBEF20E702A1C69002BEAF
:10154B00E0FFD3940A400790029DE0FE800478836D
:10155B00E6FE8E5CE55C540FFEB40F028022EFD3E7
:10156B00940A400A749E2E123C60E0FF800674843D
:10157B002EF8E6FF8F12E55C54F0C4540FB5060548
:10158B007865E6F5122000387807E270337805E2CB
:10159B0020E10F702B71DE65127025E51278656600
:1015AB00601E7F0C12379B1242A17C427DC0E4A3CC
:1015BB00F0122AE8EF6009D20080057865E6F51293
:1015CB009002BAE0FF20E502C162A3E0640370025F
:1015DB00C16271DE651260057805E2607AEF54DF57
:1015EB009002BAF0F1F51235BC806CE51A30E518B3
:1015FB009002BAE0FF30E45F54EFF0F1F5F1CFFF6A
:10160B001235B71242D3804FF125F46014F1CFFF9E
:10161B00F1D7540FFDBD0203D38001C34003123534
:10162B00B7E51A30E30B9004F81236EAF97B01F1B7
:10163B0031202F23124FCB71DEFD1258A89004904E
:10164B00E519F0120876800F9002BBE0B40408A3F2
:10165B00E0FF60031231A2E51A20E402E12430011D
:10166B0002E1247F013007027F028F12D2057B013A
:10167B007A0279811207A412583B71F6FF540FFEC0
:10168B00F1E2FD30E0031E803EEFC4540F146E7088
:10169B0035ED30E33171F61259111239ADE92D12D6
:1016AB003F05540F7020EFFDE515240BF9E43514BD
:1016BB00FAE92DF9EC123F105460FFBF20054312DD
:1016CB000880034312100E71F654F0FFEE540F4FC7
:1016DB0090000A1200A671F024F6F554D39438400A
:1016EB0003755438AB13E5152409F9E43514FA12D4
:1016FB0007A4F1C8AF541205BCC20371DEFDF12B78
:10170B00FBC003F1C8122F6A1243847443F0A37415
:10171B0027F0D003AF1212437B22AB13AA14A915E7
:10172B0090000802006790053112021B300102E1A4
:10173B00BEF1C2E92409123F5D4401120094440238
:10174B00F1BF71FC540FFFE9240A123F5D54F0F115
:10175B00BF71FC54F0FEEF14540F4E90000A1200B0
:10176B00A671FCC4540FFF71F0FEC39FFFC3EE9F25
:10177B002402F554D394384003755438F1C2124AFD
:10178B00741207A4F1C8AF541205BC7883E654F762
:10179B00F6C2037F013007027F02F1C271E4FBC086
:1017AB0003F1C8122F6A124384124373D003AD5650
:1017BB0012437B221200949005310201FB7B007ACD
:1017CB00007982229004F8E0FEA3E022AA06F97BBE
:1017DB000190000502006790000902006790000667
:1017EB00020067E92411F9E43A2212379412004EF1
:1017FB00FF1204B6E4020094900563EFF0D21C7C58
:10180B00047D731204F7F47057900563E09004C5E0
:10181B00B40107E4F0A304F080227407F0A304F0F2
:10182B00A37401F0A3F012518CEF543F2432FD7ED0
:10183B000F7FFF7BFF11709004C4EFF07E077FFAE0
:10184B00116C9004C9EFF0301B16900563E0B401E6
:10185B000F7A047BEFE4FD7FFFF1C0EF6002C21B48
:10186B00227BFF7D649004F77403F09004F3EEF099
:10187B00A3F1B9EBF07FFFA3E0F9E9C3940A50247D
:10188B00E912239FE0FCA3E04C7016AF019004F328
:10189B001237BFFBA3E09004F2F0123144E904FFCE
:1018AB00220980D622900410F1B912021B90041564
:1018BB00E0FF9004121207A27B017A04791612053D
:1018CB00BC900410E07F0030E1027F02EF442590D2
:1018DB0003C2F0900416E06475600241739003BC80
:1018EB00F0900417E01202EC190C01193F02195881
:1018FB000419A50619B60719CB091A300A00001CE2
:10190B002B900415E0B40305E4900419F09004182F
:10191B00E0D394025008E09003C3F012083D90040A
:10192B0019E0D394024002812BE0900385F0E0FD97
:10193B007F0381189133125902900388F09003852D
:10194B00E0900389912C900446740441A291337466
:10195B0005F0A3125902122E8D8005C333CE33CE60
:10196B00D8F91258B9E0900389F0900441E0900344
:10197B008AF0900385E0122E8D8005C333CE33CED3
:10198B00D8F91258B9E090038BF0900441E0900322
:10199B008C912C900446740741A2900418E0D394C8
:1019AB00E84002812BE09003B2F02291337408F0EF
:1019BB009003B2E0900388912C900446740341A2EB
:1019CB00900418E070028056900418E0D3943C50B9
:1019DB0008E0FF9003B8E48022900418E0C3944120
:1019EB004031E0D394FE502BE024C1FFE434FFFEE2
:1019FB007C007D3C1200C89003B8EEF0A3EFF09092
:101A0B0003C4E0FF1204B67E277FF3116C9003C46E
:101A1B00EFF022900418E0F46002812B74FF900326
:101A2B00B8F0A3F0229133740BF0125865BEFF0B84
:101A3B00BFFF0890038874FFF08021D3EF943CEE36
:101A4B0094004010EF243BFFE43EFE7C007D3C12F3
:101A5B0000DA8003125865900388EFF0900411E0D0
:101A6B00FF9004467403802F9003B2E0FE900411A4
:101A7B00E0FF6E604A9003B8E07002A3E060409014
:101A8B000385E06401702EA37422F0A37402F0E4CA
:101A9B00A3F09004467403F09003C2E0900447F067
:101AAB007B007A007900A312021B90044B7420F088
:101ABB00A374086188900385E064027002812B9007
:101ACB000416E064727025A3E024FC6002812B9065
:101ADB0003867472F0A37405F0E4A3125820A3F0EC
:101AEB00A3912C9004467408913E6188900416E0F3
:101AFB00648660026190A3E024ED602624026002FC
:101B0B00812B1259577412F0120008900388EF9131
:101B1B005874439158744F912C9004467407913E1E
:101B2B00805B1259577414F0900418E0900388F0FE
:101B3B00900418E01202EC1B5E201B60251B64272F
:101B4B001B66721B72731B6A751B627A1B6886009D
:101B5B00001B7A801280108006800C800A8008900F
:101B6B0003897402F0800D9003897401F08005E401
:101B7B00900389F0900411E0FF7404913BF00B7A11
:101B8B000379868171900416E064207014A3E0142D
:101B9B006007146002812B8018900418E07052804B
:101BAB005E900416E064257026A3E0146017147091
:101BBB006FE4FFFE120E93AB07900411E0FF90044D
:101BCB0016E0FD8059900418E0700280328022905C
:101BDB000416E064277049A3E014602514603324D5
:101BEB00FD601104703A900380E0FF603364016084
:101BFB002F02200E900380E0FF602564026021E13C
:101C0B00B2900418E0900380F0E0FD7F017E0002AB
:101C1B000843900411E0FF900380E0FB7D27915F68
:101C2B0022F0900411E0FF229003867475F0A3223A
:101C3B00900446F09003C2E0900447F07B007A00DA
:101C4B007900A312021BE490044BF0A322F0A374BF
:101C5B0003F0A322900386ED9158EBF07403913BB4
:101C6B00F00B7A037986900442EFF0A312021B90DB
:101C7B000447E0FF30E502D2069004481201FBE96D
:101C8B004A90044360341201FB9002D512021B9060
:101C9B000446E09002D8F0A3EFF09004481201FB49
:101CAB009002DA12021B90044BE0FFA3E09002DDDE
:101CBB00CFF0A3EFF1A8FF023DEC1201FB122F6A4C
:101CCB00900446E09002F1F0900447E09002F2F0AD
:101CDB0090044B124EF2F1A8FF9002EDEBF0755B06
:101CEB00019002F1E0FEA3E0FC20E72130E409EED5
:101CFB00D3943640187F0022300609EED3942E4041
:101D0B000C7F0022EED3943040037F0022E51FC3EB
:101D1B0094024002C1378F11E5115418600343112F
:101D2B0002D1432461F8E4F6D1432460F8E4F6AF22
:101D3B0005D1432466F8A6079002EDE0FDD14324BC
:101D4B0065F8EDF6FEBEFF0312594130060BC206D5
:101D5B00D1432460F8760180119002F2E030E60A5C
:101D6B00755B04D1432461F876069002F2E054903F
:101D7B00702DE55B64017027AF05123D0DEF601F01
:101D8B00E51154186009D1432460F8740246F690AB
:101D9B0002C4E06003755B04D1432461F8760290C2
:101DAB0002EDE0FDB4FF03125941D1432461F8E683
:101DBB00704B9002F2E0548564057041AF05123D03
:101DCB008750337881E630E40B540625E025E04458
:101DDB0002FF80027F018F11D1432461F8760478D2
:101DEB007BE6D1422465F8A607123D03600F123D36
:101DFB007B755B0480079002F2E054FBF0D1432427
:101E0B0061F8E6700276059002EE1201FB9002F18A
:101E1B00E090045DF09002F2E090045EF09002F32B
:101E2B00123F18AD5BAF11D1F67F0122C206D20370
:101E3B007F0022E0FEA3E0FFE51F75F00EA42290C9
:101E4B00047BEFF0A3EDF0AD03AC02E51FC39402EE
:101E5B004002C1F1751206300305123C68800FAACF
:101E6B0004A9057B011217E8540FC454F0FFEF428D
:101E7B0012D1432462F8A612D1432460F8E4F69001
:101E8B00047BD1412466F8A607D1402465F8A60748
:101E9B00D1432464F87602D1432463F8E4F690042A
:101EAB0080D141245FF8A607AE04AF05AA06A907A7
:101EBB007B01D1432467F81201F290047FD14124B6
:101ECB006AF8A607900481D13E1258CCD203AF1FFB
:101EDB00051FEF7005AF121239B59002BBE070030E
:101EEB001236F17F0122D2037F0022900458EFF0CB
:101EFB0090045ED141245FF8A607D1432467F81202
:101F0B0001F290045DD141246AF8A60790045FD1D9
:101F1B003E1258CC900458E0F511D1432465F8E6F5
:101F2B00F512B4FF028017E5115407701730070E36
:101F3B007801E2B512084311025311FE80064311DA
:101F4B00015311FDD1432464F8A611D1432463F846
:101F5B0074FE56F630031EE511C330E101D3921F18
:101F6B00ED540FFF64046003BF0603D38001C3125B
:101F7B003CFCFD8009E51E540FC454F04DFDD2030B
:101F8B00D1432462F8A605AF1F051FEF7005AF05FF
:101F9B001239B59002BBE070031236F122F09004B7
:101FAB0042E0FBAD56E4221259505380FE22EFF073
:101FBB00A3EDF0A32290051BF1B9EAF0A3EBF07BA4
:101FCB00017A01793E1205DA300E0FC20E122F6420
:101FDB00124EE01258D57F02800B122F64124EE086
:101FEB001258D5E4FF81E4900564EFF0301C031226
:101FFB0004D0900564E0FF6003121803229005657E
:10200B00EFF0227DFFE4FFFE120843438001221212
:10201B003127900566EFF0F1D4500E123135500593
:10202B00121FB28002110EF1D79003BCE024FE60A8
:10203B001724027024900566E0B4011D7F01121F66
:10204B00F29003BC7402F022900566E0B4010AE43E
:10205B00FF121FF2E49003BCF022907FA2E493F5F1
:10206B00CF9004837450F0A37459F0900489745189
:10207B00F0A37485F09004877450F0A37468F0900B
:10208B0004857451F0A37496F012577A12500FE531
:10209B00C120E00BE4FF5126E49007E7F0800A90A3
:1020AB0007E7E070047F0151261253A651FF9007FA
:1020BB00E7E07006202F03120E279007E7E060334E
:1020CB007F0131F312549840269007E6E0600CE054
:1020DB0014F07007FF31F37F01512F9007E7E06099
:1020EB00129007E6E0FB7D027F051251AB80047F67
:1020FB0002512F1237D8780FE2B401047F0131F36C
:10210B00D2AF1232F41251FA5004D229514B900132
:10211B007AE06053780BE2704EF1B95004510D80A8
:10212B00F8E52E20E507780FE2700251961250C9A0
:10213B0090017AE0FFB4020575DA7E802AEFB403D2
:10214B000575DA6C80FEEF6405701C7811E230E5E2
:10215B000743B3807F1F8002E4FFF1DA9007E77437
:10216B0001F075DA6C80FE7145202F04111A800284
:10217B00F1DD510DE52E30E1317F0251DD855554F6
:10218B00C37440953490017BF00555E555C394021B
:10219B004003E4F555E52E20E504513A51B2E554E0
:1021AB00513C90017BE0FD121402B1B6210D90055C
:1021BB0068EFF043AF2043B220E4F5590559E559D8
:1021CB00B40AF9E59020E5037F002243AF8053B2B8
:1021DB007FC22A7F0112521A53AEFE43B101121F66
:1021EB00B27F0122EFF07F01EF6006513A51B280CE
:1021FB000EF1B95004510D80F85196E433FF227F54
:10220B000122E52E30E2137F0451DD124162EF60B3
:10221B0009E52E20E5047F0131F32231B9EF24FFCC
:10222B00B3922F2231B9120E27E49007E7F022E583
:10223B005575F040A4247CF582E43401AF82FE2274
:10224B00E4FF31F3EF6043120596C22D71BE781394
:10225B00E2C394C040F17BFE7A007915D22D71BE9A
:10226B007813E2FF08E25FFF08E25FFF08E25FF42A
:10227B0060E4780FE2B401047F0131F3E4F55630EA
:10228B002908120596AD5612323322E52D70167FB2
:10229B0020B1AEC2EB53C3BFE4F52875BE08E5BE53
:1022AB0020E3FBD322C322E52D7026C2EBC21353CE
:1022BB00C3BF8E268F27AA06A9077529018A2A89EB
:1022CB002B753440F5287F0151DD51E643C340D2D5
:1022DB00EB22C2AFEFF4522ED2AF2275BE08E5BE91
:1022EB0020E3FB907F8AF1CA75BE0DE5BE20E3FBB0
:1022FB007F2080DE1206AF1232867F067E00120E22
:10230B009CBF54097F07120FF964A560081232674E
:10231B001231D88000120FA212400612058B120F39
:10232B00CE125209E24F7004C229514BE5565403A9
:10233B002413F8E265567812F2227800E26052E23A
:10234B0014F2E4F55AE55AC3940A50EE719DE0FE7F
:10235B00A3E04E6038719D125660703171AD60070D
:10236B00F4600471AD14F071AD6013E55A1231963F
:10237B00F583E0FEA3E0FF719DEEF0A3EFF0E55ACD
:10238B001231CA1236EAF9120312122B22055A80A5
:10239B00B422E55A75F007A424C8F582E43403F59A
:1023AB008322E55A75F007A424CEF582E43403F5B5
:1023BB0083E02290050C12021BE490050FF0A3F0B2
:1023CB00E52E20E502C32275D70875CD01E5CD209A
:1023DB00E0FB75C5FF75C3437D1A900510E025E042
:1023EB00F090050FE033F0E5C030E3FB43C008E5A8
:1023FB00CA7E0030E6047F0180027F0090050FE06B
:10240B004EF0A3E04FF0DDD2302D031252E09005D9
:10241B000FE0FF90050C122B12900510E0FF9005BA
:10242B000C1201FBEF12302DD3228FEE301005432F
:10243B00AB02800353ABFD75BE08E5BE20E3FB90FA
:10244B007F88F1CA75D74453D4DF7D1091B2DDFC80
:10245B0043D480E5D420E7FBACD5907FB5E493FF64
:10246B00F4600280027F02AB07C3741F9BFFECD3A7
:10247B009F4004741F9CFBEC2BF5D543D42043D415
:10248B00047D05DDFE53D4FB53D4DF1253C5400648
:10249B00AF031BEF70E17D3891B2EDB4180343D756
:1024AB0001DDF57F2041DDE5D320E1FBE5D330E114
:1024BB00FB22EF20E14D20120330E30CE530C394F7
:1024CB00F0503C124D2D8032E5326020E4FFEF904E
:1024DB00002893B53209EF90000E93F53280050F6B
:1024EB00EFB410EAAF329135E4F53222E530C39404
:1024FB00F0500CE530540FFF60051252BC8006AF54
:10250B00368002AF2C813590044EEDF0CEEFCECD60
:10251B00EBCDE52D6002A1ADC2EBC213EE5407FF6C
:10252B00BF0203D38001C39210E4F528900450122C
:10253B0001FBCBE9CB8A378B38900453E0F53AA3F8
:10254B001201FB8B298A2A892B900457E0F52F75F2
:10255B0035FF752D01EE541860247F40B1AE7533F5
:10256B0013D210900541E4F0A374FBF0EE5418FF66
:10257B00BF081D900541E4F0A3743FF080123010AA
:10258B000C90044EE0B401057533138003753309C9
:10259B007F0451DDCFEDCF91BD7F01B1AED2EB7595
:1025AB00AC5522C2AFEF422ED2AF227F3E7D3F12FF
:1025BB005781E53E147003122A78E4F53DE53D752D
:1025CB00F04BA4241AF9740035F0FA7B019000B09B
:1025DB00122FE324FE601524FE60151460161460A0
:1025EB001714601824067048D1CD8044F1598040EF
:1025FB00D15B803CF11E8038F19E8034D155900028
:10260B000912015B45F06020E53E64046005123F52
:10261B0012F53F90000912015BF58285F083AF3F05
:10262B00120316D155125895D155E4120094C217C6
:10263B00053DE53DC394024084E53C6009FD7F0107
:10264B00125702E4F53C221200949000B00201FBF9
:10265B00E53E706DD1551213E430E613900007E49C
:10266B0075F0641201937406120094C20380151264
:10267B0017DC123F64FF123813D1557405D1521277
:10268B003E89D2039000B0120E18FF120EC8FD1235
:10269B0039ADAB01C002C003D1551217E890047FCE
:1026AB00F01213E4900480F0A37456F0A374FEF0C0
:1026BB00D003D002121E4AEF7007D15574071200D7
:1026CB009422D155E4D1521217DC146003047042EA
:1026DB001258DE900577F0602C12518CD15590007A
:1026EB001612006704FEEF8EF084E5F0FD9005777F
:1026FB00E014F075F064A42419FFE435F0CF2DCF6E
:10270B003400FE80047E007F00D155F1C1740212AB
:10271B00009422E53E24FD60261460162403702DE0
:10272B00F16F5029C216D15590000174011200A609
:10273B008016D1551213E420E002800CD2162290A1
:10274B0000B0120EC5B53F05740712009422E53E8A
:10275B00147010F16F500C201709D217D155740457
:10276B0012009422D15590000712015BFFAEF0AD21
:10277B003F7C00D39DEE9C4008EF9DFFEE9CFE80BE
:10278B00047E007F00F1C190000712015B45F0242D
:10279B00FFB322E53E24FD600D14600A2403700D87
:1027AB00F16F50098000D155740712009422AF2DA0
:1027BB00EFC36001D322900007EE8FF0020193E488
:1027CB0093F5D1A3E493F5D222A21E22C21E228F2F
:1027DB00EB22F1E180FE302F02F1E722201308D229
:1027EB0013D210AF36913522125865F47002EEF405
:1027FB006004EF4E70089003C4E0FF0204B6900330
:10280B00B874FFF5F002012F900567EFF0111C80F3
:10281B00FE900483112B6002712C2211869000EE26
:10282B00E0FEA3E0FF4E229005711221EF31001163
:10283B0095900571E06405701F7404118B9000F086
:10284B007428F0A374DFF0740131141128602B8FFE
:10285B00828E837F05020316900571E0700D900147
:10286B001B7413F09001197403F022112860098F67
:10287B00828E837F0412031611862212522E74014C
:10288B00900119F0E490011BF0229004B9ECF0A335
:10289B00EDF09004B6F1E3FFF460030231A2900473
:1028AB00B9E0FEA3E0FFA371479004B67112900448
:1028BB00B651E2B4FF061126600231882290056FF3
:1028CB001221EF90056FE07004310080BD1126607E
:1028DB0002318822900570EDF0EF7018900119E02D
:1028EB00B40404310080A3112660098F828E83E427
:1028FB00FF120316227B017A01791A7C297D9190B4
:10290B0004BB74FEF0A304F022780BF2E4FF9005F5
:10291B0074EFF07179780BE2FF6403605BEFB40442
:10292B00028055780BE2B40107C209E5567001F23B
:10293B00780BE2701AFF1232ACC209E4780EF22067
:10294B000D0B7811E2543070047F01913CC20D9055
:10295B0000F01231BB6018780BE2FF8D828C83ADD7
:10296B0056120316780BE270069000F0F0A3F07885
:10297B000BE2B401077403F27F047154228F828E31
:10298B00837F0102031690011BE004F0D3941440E3
:10299B000811286002318811862290055DEFF065E1
:1029AB0056604DE4A3F090055EE0FFC39402502205
:1029BB00EF5100E0FEA3E04E601031FCE0FEA3E01F
:1029CB00F582318A31FCE4F0A3F090055EE004F06F
:1029DB0080D490055EE0125743E4F0C21790055D7A
:1029EB00E0B4FE0C7FFE5117EF510F76070876D03F
:1029FB002290055EE075F04BA42423F582E43400AD
:102A0B00F58322EE25E025E02443F822EF70027FC8
:102A1B00EF90057874FFF0FDFCE4FE510EE6FA082A
:102A2B00E6FBD39DEA9C5006AC02AD03A906516FA1
:102A3B00E6B50704A9068013510EE6FA08E64A70BC
:102A4B0005900578EEF00EEEB402D0EEC394024082
:102A5B0010900578E0FE94FF5002A906E95170A68C
:102A6B0007AF0122EE25E025E02441F822E4FFEF39
:102A7B00510FE6FC08E64C6019EF510F08E61618EB
:102A8B007001161486044C7009711976FFEF5170A2
:102A9B00E4F60FEFB402D822EFB55602D322EF7053
:102AAB00027FEFE4FE510EE6FA08E64A601FEFB430
:102ABB00EF08516FE6B4FE02D322516FE6B5070D56
:102ACB00EE711AE66D6004EFB4EF02D3220EEEB492
:102ADB0002D3C3229004931201FB02004E90049385
:102AEB0012021B9004931201FB1217F8AE04AF05F0
:102AFB009004987147900493711251DFB4FF04E472
:102B0B0012009451DFFF221201FBEF020094EF251C
:102B1B00E025E02442F822900485112B6002712CF1
:102B2B0022AA06A907020312900489112B600271D5
:102B3B002C22900487112B6002712C22E0FDA3E064
:102B4B00FBE49004F7F0021876900573EFF07179BF
:102B5B00900573E060049000EDF07E2B7F897BFF86
:102B6B007D2F714C7810EFF2BFFF02718922781024
:102B7B00E2FFF460031204B6781074FFF2229000A7
:102B8B00EDE0FF14F0EF70157179780BE2B40302EE
:102B9B008006780BE2B40405E4F2FF3119227BFFC7
:102BAB007D01809D900548EDF0900546EEF0A3EF7A
:102BBB00F0C39480EE94005035900546A3E0FF24BB
:102BCB0000F582E434029130605A1258F0F583ED2F
:102BDB00F0D225900512E070107E517F4B71A990B9
:102BEB000512EFF0BFFF02E4F09005138033900560
:102BFB0046A3E0FF2480F582E43402913060251275
:102C0B0058E7F583EDF0D226900514E070107E5155
:102C1B007F6871A9900514EFF0BFFF02E4F09005F7
:102C2B00157414F022F583E0FE900548E0FDEE6D7F
:102C3B0022E4F53BEF24FF9215EF600302575E7B16
:102C4B00FE7A0079180217F87E2E7F83E4FB7D0154
:102C5B00714CBFFF02D18322900551EF120EB912B6
:102C6B00586F33333354F8900552F0200C02A113F4
:102C7B00900552E0FF900551E0FEC39F504DEE13BF
:102C8B001313541FFFF1E9A3B125E0FD7C00EE54B3
:102C9B0007D18D8005C333CE33CED8F9FFEE5CFE62
:102CAB00EF5D4E601E900551E090011CF0124D2D12
:102CBB00AD0790011CE004FF7A2D7B98F170EF704B
:102CCB00498085900551E004F080A5C212C20CF139
:102CDB00CF7407F0E4A3F0780B7403F27F01300B91
:102CEB00027F027B017A0079F2F16A9002F17403A0
:102CFB00F09000F71258579000F6E0FBAD56121CFF
:102D0B00E4EF70067F022119C21222E51025E0259F
:102D1B00E024BFF582E43407F583E5822FF582E4E6
:102D2B003583F583229002CAE0FFB116E0FEE4FD85
:102D3B00B15E2DB128E0FCC39401400CEC9E500811
:102D4B00B15E2DB128E004F00DEDB404E3B11674BF
:102D5B0001F022E51025E025E024BFF582E43407DD
:102D6B00F583E5822290056AE004FFAD10E4FEEEE8
:102D7B00C394045015AC060EEDB1602CB128E0B530
:102D8B0007EDEE14FF9002CAF0227F002290011C87
:102D9B00E0900572F0EF6028E0FF131313541FFE51
:102DAB00F1E9A3E5822EB128C083C082E0FEEF5487
:102DBB0007D19A8002C333D8FCF45ED082D083F063
:102DCB00900572E004FF816390056AEFF0D16E50BD
:102DDB005DD1762408FFE43EFE120E9C787BEFF665
:102DEB006044B170EF75F004A4FBAAF0D17624090E
:102DFB00FFE43ECF2BCF3AFE1257F7F0F13690059A
:102E0B006AF1D76029E4FF747D2FF8E6700E900508
:102E1B006AE0601AEF701774FFF08012787C060F6F
:102E2B00EFB404E3800890056A7404F0809FD16EC0
:102E3B00400574FFF08026E510246E120E98AB0748
:102E4B00B170D18E8005C333CE33CED8F9FFEBFDF5
:102E5B00EF5D700678817608800312582890056A1A
:102E6B00E0FF2290056AE0C3940422AF107E007C41
:102E7B00007D111200C8EF22E4FFA19804FFAD4AB8
:102E8B00A178FF74017E00A8070822900504E0FFDB
:102E9B007401A807082290056BE004FFE4FDA178FC
:102EAB0090056BEFF0F12E5045123E6B787BEFF6F1
:102EBB006034D1A1EF1257EB1257F7F0F1369005B2
:102ECB006BF1D76029E4FF747D2FF8E6700E900547
:102EDB006BE0601AEF701774FFF08012787C060FAE
:102EEB00EFB404E3800890056B74FFF080B7F12E0C
:102EFB00400574FFF080267F6E7E00120E9CAB07A0
:102F0B00D1A1D18E8005C333CE33CED8F9FFEBFDE3
:102F1B00EF5D700678817608800312582890056B58
:102F2B00E0FF2290056BE0C394042290049A1237C1
:102F3B007412021B90049F1258AF601C90049AE409
:102F4B0075F001120145AFF0FE120E9C90049C121D
:102F5B000799EF12009480DC227B017A01793E9075
:102F6B0002EE02021B9001FC121FB9EAF0A3EBF078
:102F7B00F1CF7418F09001FDE0FF1252AB9000F40A
:102F8B00EFF09001FDE09000F5F0755001780EE246
:102F9B00FF600C7F10B402027F08EF4402F5507BF8
:102FAB00017A0079F2F16A9002F17404F0A37411C2
:102FBB00F09001FE124EF2F09001FCE0FBAD56AF2B
:102FCB0050021CE49000F27401F0A322E0C454F010
:102FDB00787CF608E664FE2212021B02004E90017A
:102FEB003CE0FCA3E0F5828C83A3A3227403123094
:102FFB0024741011247401112D7BFF7A007903C006
:10300B0003C002C0019002E51201FB1202449002C0
:10301B00E81201FB74050200941200949002E20284
:10302B0001FB9000010200A69004CA121FB9020214
:10303B001B11CCE5907F0130E7027F00EF6014900D
:10304B0004D3E0D394645004E004F0229004D174D0
:10305B0002F0229004D3E0FF6066D394024061EF4C
:10306B009432504D9004D17401F0E49004D3F0905D
:10307B0004D5E004F0E0B401157E317F247B017DA3
:10308B00641218709004D4EFF0F47034F0229004B2
:10309B00D5E06403702A9004D4E0FF600E9004D155
:1030AB007404F01204B6E49004D4F0E49004D5F068
:1030BB00229004D1E0B402087403F0E49004D3F03E
:1030CB002211E69004D0E0FF9004D2E0FE6F600A7C
:1030DB00201E07D21E9004D0EEF022E590540290F1
:1030EB0004D2F02211E6E09004D0F0C21EC21D22E1
:1030FB00E49004D1F09004D3F0311B11EF7E307FBC
:10310B003C7BFF7D01121870EFB4FF02C322D32268
:10311B009004D5F09004D4F022E480F49004D1E034
:10312B00FD64026002E4F0AF05229004D2E024FFBC
:10313B0022A21D22A227921D229004EFECF0A3EDF8
:10314B00F0AA07AF03EF70010FEF75F005A4FFAE08
:10315B00F0EA3196F583EEF0A3EFF0EA12239FEE3F
:10316B00F0A3EFF09004F2E0FFEA75F007A424CE91
:10317B00F582E43403F583EFF09004EFE0FEA3E077
:10318B00FFEA31CAEEF0A3EFF022EF75F007A424AB
:10319B00CAF582E434032231C250123195F58331E2
:1031AB00BB600AEF12239FECF0A3EDF00EAF0622EB
:1031BB00E0FCA3E0FD4C22E4FE1FEFC3940A227552
:1031CB00F007A424CCF582E43403F5832290047336
:1031DB00F174ECF0A3EDF0A312021B90047A7401CE
:1031EB00F09004751258AF6039900473E0FEA3E0C1
:1031FB00FF9004771201FBEA494B600C90047712A5
:10320B00079912004EFD80027D0012084EEF14FF4D
:10321B0090047AE02FF0900473E475F00112012F03
:10322B0080BF90047AE0FF22900522F1C712084E6E
:10323B009005221201FB7D04516F31D87F01225181
:10324B0086F1D878131201C000000000120596E435
:10325B00FD51335176516731D8020FA27B007A00B2
:10326B0079007D737C007F017E00227F0274D72F53
:10327B00D1CDE4F0DFF79007D7F02290015B74011A
:10328B00F0E4A3F09000FA04F0E4A3F090013C7496
:10329B0001F0A37459F0C208E4FF800590048CE0A0
:1032AB00FFEF6040D21AB182EF6401703B9007D9F7
:1032BB00E09007D8F0E4A3F09007DBE09007DAF09A
:1032CB009007E5E09007E4D1D5E4FF74E02FF58299
:1032DB00E43407F583E0FE74DC2F712FEEF00FEF73
:1032EB00B404E822C21AC20A22300A08780BE27030
:1032FB0003FF51AC30112290040EE0A3E0FFC39505
:10330B0039400BEF9539D39402400EC21122E539A7
:10331B00F42FD394014002C211229004C3E025E0A4
:10332B0025E024DCF582E43407F58322AD077FFF2B
:10333B0030190261D0AF05B182EFF47024D1DD50AA
:10334B0017E004F0E4FFB14BE060050FEFB402F6B9
:10335B00EFB4020D7F018009201A04E4FF80027F85
:10336B000190054AE0FAA3E0F5828A83E0540FFE50
:10337B00FCB19FF583ECF0B14BEDB174B19FF583CC
:10338B00E04410F0EE6036E4FEAD041CED603490CA
:10339B00054AE475F001302E1112012FB15DFDAB22
:1033AB00060EEF7129E5822B800C12012FB15DFD0A
:1033BB00EF7129E5822C122D28EDF080CCEF7129CD
:1033CB0074FEF0D219229004BDEEF0A3EFF0201999
:1033DB000B20070BB1641217D720E7037FFF229056
:1033EB0004BDD1EAF97B011213E4FF65566002803C
:1033FB000412172BFF9004C2EFF0B1829004C3EFBD
:10340B00F0F4704CD1DD5033E004F0E49004C3F0E1
:10341B009004C3E0FFC39402500DB14BE0600890E1
:10342B0004C3E004F080E99004C3E0B40203740128
:10343B00F09004C3E024FF92188015201A0CB218E8
:10344B00A218E4339004C3F080069004C37401F017
:10345B00B1641217D720E702A1141213FCC4540F46
:10346B00FF9004C1F09004C3E0FEB16CF583EFF064
:10347B001217E230E32E9004BDE0FCA3E0AA04F99E
:10348B001213FCC4540FFD7C001239ADE92DF9EC7D
:10349B00123F105418FF74E42EF582E43407F583C1
:1034AB00EFF080089004C3E024E4B178B164FF240A
:1034BB000BF9E43EAD01A3F0A3EDF0AA06A9077B3F
:1034CB00011217E220E0219004C1E0FF14F0EF603D
:1034DB004A9004BFB156FF9004C1E0FE7125E5820E
:1034EB002E122D28EFF080DFE4FF9004C1E0FE14D4
:1034FB00F0EE60279004BFB156FEAD070F7125E5C6
:10350B00822D122D28EEF080E19004C3E0FFB16C08
:10351B00F583E4B174EF712974FEF09004C3E0B14C
:10352B006CF583E0FF7E003007027E10EF4EF090CB
:10353B0004C2E0FEA3E0FF24D8B14EEEF0D2192274
:10354B0074D82FF582E43407F58322E475F0011269
:10355B00014585F082F583E0229004BDE0FEA3E0F7
:10356B002224DAF582E4340722F074E42FF582E4A6
:10357B003407F583E4F0227E02EF60159007D7E065
:10358B00600F74D72ED1CDE0B50704EE14FF22DE09
:10359B00F17FFF2274DA2FF582E4340722B182EF38
:1035AB00F46008201A05B14BE4D1D52271D1024B3E
:1035BB00137862E6540F6404705C7866E6655670A7
:1035CB00559002BBE0B404037405F09002BAE044DA
:1035DB0010F090029CE030E323A3E0C4540FFF12E1
:1035EB003C5EE0540F7015F1E1F583E05460600C24
:1035FB00D1BB2403D1C47BFF7D78E107D1C3D1BB01
:10360B00FD7864E67C0030E1027C01EC243E8DF019
:10361B00A4FD7BFFE17B900298E020E7109002C0B5
:10362B00E0F46003122D307E027F93B1B79002BAA3
:10363B00E0FF786BE6FC08E6FDAA044A6028EF3051
:10364B00E219900280E060092405FF8D828C838053
:10365B0012D1B4F5828E837F018008D1B4F5828EAE
:10366B0083E4FF1203169002BAE05480F0E51F606A
:10367B0003D51F129002BAE030E7028024E49002D7
:10368B00BBF0C2018020121E43FF7B007A00796DD4
:10369B001207A47A00795F1205BC7862E6FF123933
:1036AB00B5D1F17F00227F0122786BE6FE08E6227E
:1036BB0090029DE0C4540F22E49002BDF07E387F4F
:1036CB003822F582E43407F58322F09007D7E01413
:1036DB00F0229007D7E0C39402229E9004EBF0E017
:1036EB00FEA3E0AA0622F1CF1227B9400EE52E2049
:1036FB00E2099002BB7401F0124038228F828E8354
:10370B00AE03AF05F194AC83AD82900498EFF0A3B8
:10371B00EEF0022AE8900575EFF0B182D22CEFF4AF
:10372B00600D74DA2F124CCDC320E401D3922C30F0
:10373B002C34E4FF900575E065536015744B2FF83E
:10374B00E6FE900575E06E60070FEFC3940540EC45
:10375B000FEFD39405500FEF246E120E98EF540F0A
:10376B00C37001D3922CA22C22EEF0A3EFF0A32274
:10377B00900528F174EBF0AF05F19BF194900528BF
:10378B00F1BF900499F0022AE87B017A0279BC22FE
:10379B00F1A3900498EFF0227864E630E115EF2462
:1037AB0003FFE433FEEF7802CEA2E713CE13D8F873
:1037BB00FF800022E0FCA3E0FDA3E02212021B7FAE
:1037CB00057E00227BFE7A0079090217F87B017ACD
:1037DB0001793E0205DA749F2FF582E4340222123E
:1037EB00380B9004E1E0FD90049FE4F0A3EDF002B0
:1037FB002F3612380B9004A6E0FCA3E0FD0231D863
:10380B00EF2480FFE43EFE2290052512021BAE053D
:10381B001DEE600C900525120799EF12009480EEB7
:10382B00227B007A00794B7D05E4FF80DB7862E632
:10383B00540F90056DF09002BDE0600614F060022D
:10384B0021A61217F59002BBE0FF64046007EF643A
:10385B0005600221917863E654FEF630020D785F25
:10386B00E630E507E4900280F0807F785FE630E297
:10387B00797861E6FFD39404504AEF6404701CE539
:10388B00109002C06008E004FF122DD38006E00404
:10389B00FF122EAB9002C0EFF080237860E630E190
:1038AB001154FDF67865E6FFB10D7864A6117862C8
:1038BB0080327865E6FFB18750047861760491A079
:1038CB005002218E7861E6C39405501E7865E6FFA1
:1038DB00123720B3921FC220916CEF44017862F62D
:1038EB0018760508E6FF31B5218E90056DE0B4041E
:1038FB00077865E6FF1235A830020221A17861E650
:10390B00C39406400221A118E620E00221A17865AC
:10391B00E6FD78671201D9786AE690046FF0785F5C
:10392B00E654034401A3F0786BE6FF08E6A3CFF05F
:10393B00A3EFF07866E6FF12105CEF605912110AE4
:10394B001217DCF164FF111312110A74051211071F
:10395B00D189786B76560876FE786476021213E47A
:10396B00785FF61217E8786AF69168EF440678628A
:10397B00F612110A31AD78671201F2786176067F83
:10398B000631B50236F19002BBE0600A1236C37BFA
:10399B00FF7D0402377B7F0412363D22C4540FFF98
:1039AB007E00E9240BF9E43AFA22EF540FFC64038E
:1039BB006009E49002BDF0900280F09155FE9002F8
:1039CB0099E054F04EF0EC146044147002618924B9
:1039DB00FE7002418524FE700261BE2403600281E9
:1039EB00241205961207A47A027985D17290028966
:1039FB00E556F0A37403F0E51E540FFFA3E054F05B
:103A0B004FF0A3740AF09002BAE04480F0229002C7
:103A1B00987401F0785FE630E01D20E702800C78A7
:103A2B0083E6540FFFBF0F07900298E04440F090DD
:103A3B0002B97403F080029134785FE630E70790A7
:103A4B000298E04480F07811E2FF7E0030E5027EC0
:103A5B0020EF7F0030E4027F40EF4E5460FF900276
:103A6B0099E0549F9143786AE6240A912574099151
:103A7B004D20E10261BB913B61BB785FE630E647CD
:103A8B0078671201D9F11254F0FFC4B106D179B1A4
:103A9B00819002C4E02402FF78671201D91207A4B7
:103AAB007B017A02799C1205BC9002C4E0FF2402D0
:103ABB00FDE433FC7869ED26F618EC36F6EF2403BB
:103ACB00FFC3786AE69FF69002987401F04480F089
:103ADB00785FE69002B930E0057403F0800374015F
:103AEB00F0E490029CF09002C4E0FFC454F090020A
:103AFB009DF09002C11207A27B017A02799E1205FA
:103B0B00BC7864E6FC5418FE60397866E66556703E
:103B1B003290029CE0FD20E02A7860E620E124ED63
:103B2B004408F0A3E0C4540FFF915E7410F0EE252F
:103B3B00E025E0FE1237E1F583EEF0EC54E7786414
:103B4B00F6800790029CE054F7F090029CE030E383
:103B5B000FA3E0C4540F915EE0C4540F04FF800226
:103B6B007F009002C4E0240B2FFD9145AF05EF04BD
:103B7B00786A269125AF059002BEEFF08032900255
:103B8B00987402F090029B741DF090028E1207A2A3
:103B9B007B017A02799C7F1D1205BC91347D2674C2
:103BAB002604786A2691257426914D30E102913BCB
:103BBB0002059D78671201D91207A47B017A02795D
:103BCB00937F111205BC7869741126F618E436F64A
:103BDB00786A74EE26F6785FE620E632786A06D1CC
:103BEB0081A37405F09155FFA3E054F09143786ADB
:103BFB00E6241290029AF0785FE6FD30E00790021F
:103C0B0098E04440F0ED30E102913B12059D913478
:103C1B00A3912C9002BE7411F02290029AF09002A4
:103C2B00BAE05480F04440F0229002B97401F022C3
:103C3B00900298E04420F0224FF07865E690029BCA
:103C4B00F0229002BEF0785FE6227862E654F0C470
:103C5B00540F22249EF582E43402F58322D21FD224
:103C6B00207F1D301F027F1CA807302013E6FF5456
:103C7B00F0FEBEF004EF540FF6741026F6E680113A
:103C8B00E6FF540FFEBE0F04EF54F0F606E6540F9A
:103C9B00C454F0FF229002C0E0F46053787BE678C6
:103CAB0065F67881E6FF5406FE25E025E0FDEF7F03
:103CBB000130E4027F02ED4F7864F6EE6006786027
:103CCB00E654FEF6B1037F0160027F047862A6071B
:103CDB00B17BE6FD7864E6A2E1921FEDB40403D359
:103CEB008001C391FCFF7862F6D20331B5D322C3B6
:103CFB00229220916CED4F22787CE6540F9002C4F7
:103D0B00F02290055BEFF0A37402F0EF605F900779
:103D1B00D7E0605990055CE0FF24D71236CDE0FE6A
:103D2B0090055BE06E703E74D92FF582E43407F595
:103D3B0083E0FEB106EE7F0130E4027F0290055C6A
:103D4B00E0FE24E3F582E43407F583E054184FF5E5
:103D5B0011EE75F004A424D8F9740735F0FA7B0141
:103D6B00B1817F012290055CE014F070A77F0022E7
:103D7B007B007A00797D9002C102021B90056CEFEB
:103D8B00F0D16B7819EFF27510FF9002C0E510F0CF
:103D9B0090056CE0B5070FE4FF122EAB9002C0EF5D
:103DAB00F0E4F5108030E4F512744B2512F8E6FFC1
:103DBB0090056CE06F60090512E512C3940540E9AC
:103DCB00E512C39405500FE51204F510E4FF122D14
:103DDB00D39002C0EFF0E510C394FF50028001C3F3
:103DEB00229002D2EFF0E51F70719002BBE0706B76
:103DFB00AF057866A60718A6039002D2E07010AF45
:103E0B00031237207F0250027F019002D2EFF0E4C1
:103E1B00FE9002DAD19460050EEEB404F47861766C
:103E2B00039002C4EEF09002DA1201FBB181EE7D39
:103E3B000470027D019002D51201FB9002D8E09034
:103E4B00045DF09002D9E090045EF09002DDF11871
:103E5B009002D2E0FF121EF67F0122D2037F0022D6
:103E6B007F087E00020E9C7B017F040205BCE924C7
:103E7B0002F9E43AFA227866E6900297F022900073
:103E8B0007740775F0D00201931201FB8E827583C4
:103E9B0000020067D1F9F582D199FFED5407FEEFCF
:103EAB00A806088002C313D8FC5401FF2290052EEC
:103EBB0012021B9002C4E0B5071190052E1201FBF4
:103ECB001213E4FE90029BE06E6002C322E4FEEE4E
:103EDB00C39F501890052E1201FB31ADF101FD90DF
:103EEB0002C1D1946D6002C3220E80E3D3221DED7B
:103EFB00131313541F22EE7C0029F9EC3AFA02003B
:103F0B004EE92FF9EE3AFA900001020067E0FFA3A9
:103F1B00E090045FCFF0A3EFF022D1F929F15DF12E
:103F2B0037088002C333D8FC4F020094FFED5407CF
:103F3B00FE7401A80622D1F929F15DF13708800240
:103F4B00C333D8FCF45F0200949004611201FBE9C7
:103F5B002407F9E43AFA02004E44209000141200B0
:103F6B00A690001774401200A6E92418F9E43AFA57
:103F7B007D04E42290054312021BAC07AF040CEF47
:103F8B00C394E850109005431201FBAD04D19FEF91
:103F9B0060EAAF04227F00227B017A01791FF112C4
:103FAB00FF30E11112004E90000330E704740280E1
:103FBB00117401800DEF90000330E3047404800250
:103FCB0074031200A6120EC8FF227BFE7A00790939
:103FDB007C367DF1900498EFF0E4A3F0022AE8120E
:103FEB00518CEFC4540F6FFEEFC41354076EFEEFEA
:103FFB00C413131354016E5403FF22E4900569F0AC
:10400B00F0900569E0FFC39406500A1121900569F1
:10401B00E004F080EC22E4FEEE04FDEF122D602EA6
:10402B00122D28EDF00EEEC3940440EC221227B9AA
:10403B005002215A9002BBE0B404037401F051B159
:10404B00503B51A11217F8C2007804E204F2D3944A
:10405B006440191217F5518AE47804F2E51F6009E0
:10406B001236B4FF4E600251920236713007047F54
:10407B00028007123FEAEF2402FF023FD5E47804E7
:10408B00F29002BAE030E73DA37402F07F013007F3
:10409B0001FF90028AE07B0030E5027B02C0037BCC
:1040AB00017A02798590045012021B900453740814
:1040BB00F07A02798DA312021B9004577401F0D091
:1040CB0003E4FD2157300003C200229002BB7403AE
:1040DB00F09002BAE054DFF07864E6FF5407700802
:1040EB007D01519B7864A607785FE65422F5123167
:1040FB005BBF060790029CE030E10BE51220E5095F
:10410B007865E6B4FF0343120853120A7860E63071
:10411B00E1067864E654E7F6315BBF04047FE78081
:10412B00027FFFEF786456FF18E65401FD900450B0
:10413B0051A89002BEE0900453F078671201D9A306
:10414B0012021B786AE6900457F0AB12122512226A
:10415B007862E6540FFF22D2281237CF9002BBE0D1
:10416B006402704D518A30E308E054F7FFF00236D9
:10417B003DE51F60169002BAE020E60F1217F5120C
:10418B0036B4FF4E600251920236719002BAE0FFD4
:10419B0020E602416C30E506A37404F04171EF3068
:1041AB00E4089002BB7405F041711236F1C228414C
:1041BB00719002BBE064036002416C9002B9E06055
:1041CB004214F0603EA3E04420F030E7061138C201
:1041DB002880069002BB7404F0123FEA9002BDEFF8
:1041EB00F07E427FF0900298E030E71290029CE064
:1041FB0020E00B5177540FB504047D07805051809C
:10420B00FD804B785FE630E04C900298E0540FFF56
:10421B00BF0503D38001C3403C9002BAE04420F0B9
:10422B0030E7061138C22880069002BB7404F012E6
:10423B0036C3900298E030E71290029CE020E00B2E
:10424B005177540FB504047D0780035180FD7BFF2C
:10425B0012377B8011E4FF12363DEF24FF9228804A
:10426B0005E49002BBF0A228E433FF22A3E0FDC4D7
:10427B00540FFCED22786AE675F00A84240622902E
:10428B0002BAE0547FF0228F828E837F02020316E4
:10429B00EF54F84DFF227BFE7A007907227B017ADF
:1042AB0002799302021BE528D394015003301103CA
:1042BB00D38001C3222000099002BBE060031236B9
:1042CB00F1C20051A10217F8315BBF0417785FE60A
:1042DB0030E20A9002C0E0F46003122D309002BA73
:1042EB00E04408F0229002BBE0B4041E9002BDE053
:1042FB0070119002B9E0640360067863E64401F63E
:10430B000236F19002BDE014F0229002BBE0700384
:10431B001217F52290056EEFF0C20122C201EF6079
:10432B00467882E620E04008E6C454F0440518F6CF
:10433B0008E6FF54F0FEEF24FE540F4EF6EEC45485
:10434B000F2402FEC2037F013007027F0290029B03
:10435B00E0FD1217C8122F6A9002F1EE718971738A
:10436B00900297E0FB717B227443F0A3741FF02241
:10437B00121CE4EF24FF9201229002F1E554F0A30A
:10438B007481F0A32290052B12021B7FFF90052B4B
:10439B0012079912004E6FFFDDF322E51E540F60DA
:1043AB00127802E2FF651E600A30010AE51E54BF57
:1043BB00B50703D38001C32290046112021B1202C2
:1043CB002490046712021B124A6E900007E412003D
:1043DB00A6C204300C1E124A641217DC540FFF6481
:1043EB00036011EF64016003024A561217E220E1E9
:1043FB0003024A56E47805F2124A641207A47A02C1
:10440B007981123E72202F10120596124A8F600886
:10441B00123F5444801200949004611213ED30E764
:10442B0067E5566035301532124A641217DC540FAB
:10443B00FF64056053EF640170201217DC30E71A3C
:10444B00124A641213FC1239A7124A80124AA29024
:10445B0004B3120594124A9B602E2009030249BD36
:10446B00200D25124A641217DC20E71CE92409F9F8
:10447B00E4123F10B40311124A64124A74124AA296
:10448B00124A8F70030249BD124A641217DCFF54A3
:10449B000FFEBE010CEF30E7081217E230E302D239
:1044AB00071217E8540FFF7E003007027E80EF4E95
:1044BB00F51E7862E6FF7864E6FEEF54F0C4540F05
:1044CB00FDEF540FFFBF04047F4080027F00ED4FD0
:1044DB00FFEE7E0030E1027E80EF4E7802F2124A50
:1044EB00641217DCFF540F24FE700302490814708A
:1044FB000302499524FE70030249B62404600302AB
:10450B0049BDEF20E7030248BB431E401213FCC416
:10451B00540FFF900464F06006E0D39404400A1239
:10452B004A6E900007E40200A6124A6412172B652C
:10453B00566002C1C41217E290046730E31C1201EB
:10454B00FB1239AB124A8012004EFFC4540F29F9EB
:10455B00EE3AFAE92401F9E4800D1201FB1213FC87
:10456B001239A7E92FF9EE3AFAC003C002C00112C3
:10457B004A6E900003120293124A641217E230E360
:10458B00211213FC1259111239ADE92D123F05C43A
:10459B00540FFE124A641213F0C39FC39E24F3FF01
:1045AB008012124A641213FCC4540FFF1213F0242E
:1045BB00F4C39FFF124A571213FC540FFF9004646D
:1045CB00E06F6002C15C123F544409120094124A1E
:1045DB00641217DC30E608123F54440412009412A4
:1045EB004A641239AD7E00124A8090FFFF124A6A6C
:1045FB00EF12581A1213F030E70302483E124A64C6
:10460B001217DC20E70302483E1213FCC4540FFFC1
:10461B001239AD124A8012004ED394014003024866
:10462B003E124A641239AD123F0C64036003024818
:10463B003E124A641213FCC4540FFF1239AD124AD6
:10464B0080124AA21207A47B0112583BD2050248E2
:10465B003E124A641213FC540F640F600302483E6F
:10466B001217DC30E608123F54440412009471A672
:10467B005017124A641213FCC4540FFF123EB85069
:10468B0008123F544401120094124A641217E2FFBD
:10469B0030E107123F5444208009EF30E208123F0B
:1046AB00544440120094124A6490000B124A6A90D0
:1046BB000008EF1200A602483E124A641213FCFFD8
:1046CB00540FFEEFC4540FFDEEC39D4002E1DF1209
:1046DB0039AD125844FA12004E65566002E1DF12F2
:1046EB004A641217E230E07771A65009123F541258
:1046FB004A877405F2ED14900467B506081201FBA6
:10470B00900004800D1201FB1239AD125844FA903F
:10471B000001124A6A900008EF1200A6EE6002E157
:10472B00C2124A641217E220E302E1C21213FC1216
:10473B0058841239ADE92582F9E5833AFA12004E15
:10474B00540F7073124A641213FC1258841239AD51
:10475B00E92582F9E583123F105418605A8050EE18
:10476B0090046770081201FB900004800D1201FB8E
:10477B001239AD125844FA90FFFF124A6A900008A2
:10478B00EF1200A6ED146E702E124A641217E2306F
:10479B00E3251213FC1239A7124A8012004E540F54
:1047AB007015124A641239AD123F0C546060081236
:1047BB003F544404120094124A641217DC900461B3
:1047CB0030E607123F5744148005123F574410122E
:1047DB000094805F124A641213FC540FFE71A650B2
:1047EB0052124A641217E230E020EE2402540FFEFC
:1047FB001213FCC4540FFFEEC39F50375164123990
:10480B00AD123F016556702B8021EEC394024023FD
:10481B0051641239ADAF06EF24FEFFE434FFFEE91D
:10482B002FF9EA3EFA12004EB55608123F54518743
:10483B007401F251641213E465566027C003C00281
:10484B00C0019004B31242A8D001D002D003519BF7
:10485B00600221BD51641213E4FF900297E06F6078
:10486B000221BD1243A6400221BD51641213FCFF6D
:10487B00540FFE12172BFD90029BE06D600221BDC1
:10488B0051641217E230E017EFC4540F24FE540F9B
:10489B006E600221BD123F5451877403F221BDEEAD
:1048AB006401600221BD123F5451877401F221BD96
:1048BB00516412172BFF65566006EFF4600221BDA1
:1048CB00123F54440112009451641213E4516D9041
:1048DB00000851605174C003C002C001516E9000BA
:1048EB000312029351641213F024F6FF515712175F
:1048FB00DC20E60221BD123F54440421B151641265
:10490B00172B54E0FDE556D39D500221BD12172BFA
:10491B00541F75F008A42D51FCD3E556B105400288
:10492B0021BD516412172B54E0FFC3E5569F14FFB2
:10493B005174EF131313541F123F04FEEF5407125D
:10494B002E9A8002C333D8FC5E6067123F54440139
:10495B00120094516412172B541FFF7E00E9240997
:10496B00517CC003C002C001516E90000312029330
:10497B00516412172B541FFF1213F024F6C39F51CF
:10498B006D900006EF1200A68028E51E540F6009FB
:10499B007802E254BF651E7019516412172BB5567D
:1049AB0011123F5444031200948007516E121110E0
:1049BB00920451641217DCFF540F64016002414BE7
:1049CB00EF90046730E7141201FB1213FC1239A7A6
:1049DB00518012004E900466F0800C1201FB1217EE
:1049EB00E2900466F05174123F12900465F090044B
:1049FB00611213ED30094954E264807043900466F0
:104A0B00E064017033900465E0FF64086032EF648A
:104A1B00037025300D0A5164517451A2518F6020DF
:104A2B00516451741213E4FF120EC84FFF1217DCBE
:104A3B004FFF1217E84F6008123F5454EA120094CC
:104A4B009004611213ED30E002D204229004611243
:104A5B0001FB900006EF1200A69004670201FB1207
:104A6B000067FF9004610201FBE92409F9E43AFABB
:104A7B0022F9E43AFAE92FF9EE3AFA22440312004A
:104A8B00947805229004B312021B7B017A02798180
:104A9B007F041207B0EF22E92403F9E43AFA2290DB
:104AAB00055FB117C003C002C0011205969004B395
:104ABB0012021BD001D002D003519B7002D3229063
:104ACB00055FE0FEA3E0FFF5828E83A3E0FD8F82FE
:104ADB008E83E04DFF90055FE0FCA3E0FD122FF00D
:104AEB00E04FFF8D828C83A3A3A3E04FC37001D350
:104AFB00227C00FFEC35F0FE22F9E43AAD01900583
:104B0B004AF0A3EDF0123337900502EFF0C3940295
:104B1B00400281C5900502E024D8F582E43407F504
:104B2B0083E0FFE4F54AEF6553600F744B254AF8B9
:104B3B00E66F600491FD40F3054AE54AD3940540C6
:104B4B000281C5900503E54AF0246E120E988F5032
:104B5B00E5505430FF602691C654C7F074DA2E919D
:104B6B00CD4410F0900502E0FE24E491E854E7F008
:104B7B0074E42E91E8FEEFC313FFEE4FF0900505A2
:104B8B007404F091DFF549E4900504F091D650449C
:104B9B0091C65407FDEFC39D500AEE91F1122D23E0
:104BAB00E0FF800C900504E070047FFE80027F0024
:104BBB00900506EFF0E0FFC007900504E0254912D1
:104BCB000E98C3D0E09F900506F07008900504E0A6
:104BDB0004F080B8900504E06404700281C574048D
:104BEB002549F549900505E014F0E0D39400509762
:104BFB0091DFF549E4900504F091D6501BEF122E8E
:104C0B0087EF75F004A4254951FC120E9CEF600848
:104C1B00900504E004F080E1900504E0C3940440A7
:104C2B00037403F0900504E0122E87900504EFF057
:104C3B00B10E900502E091CB5407F550E4900505B9
:104C4B00F0E550700BE02549FFE433FE7DFE801C40
:104C5B00900505E0FFC39550501D900502E091F1C2
:104C6B00122D23E0FDE5492FFFE433FE12084E9091
:104C7B000505E004F080D9900505E0FFC3940450CE
:104C8B0006E5492F120848E54A246E120E988F50FC
:104C9B00900502E091CB5438C39410500E122E960F
:104CAB008002C333D8FCF45250800B122E96800234
:104CBB00C333D8FC4250E54AB12222900502E0FEF4
:104CCB0024DAF582E43407F583E022900504E0FF53
:104CDB00C3940422E54A75F011A4240922F582E459
:104CEB003407F583E02225E025E024DCF582E4346B
:104CFB000722054AE54AC39405229FEE6480F874A7
:104D0B0080982225E025E02549F54922EEF0A3EF16
:104D1B00F0AA06F97B0122246EFFE433FEAD5002AC
:104D2B00084E900540E0FDFFC374109FFFE4940014
:104D3B00FEEFC4F8540FC868FFEEC454F048FEE50C
:104D4B003054F0C3B1057F005002AF0522785FE607
:104D5B0030E502D20222EF6003780AF22002567885
:104D6B0003E230E0509002BFE0FF90028E1201FB95
:104D7B00123F7F9002BFEFF0603B7806E2C330E555
:104D8B0001D392069002CF1201FB122F6A7808E230
:104D9B009002F1F07803E2B1D4F09002BFB1DE7073
:104DAB0027780A7402F2900291E0FEA3E0F5828E5E
:104DBB00837F028010780AE2FF900291E0FCA3E06F
:104DCB00FDF5828C8312031622A3F0A3744DF0A37E
:104DDB00746122E0FBAD56E4FF121CE4EF22900558
:104DEB0053EFF0A37407F0E5536004D16360037FC6
:104DFB0000229001197402F0AF059000EEECF0EF79
:104E0B00D1AC7415F07B007A00794B1207A40B7AA6
:104E1B000179407F051205BC900553E0600C9001B1
:104E2B004574FFF0900554E004F0122F6490055484
:104E3B00E09002F1F0A37405F0A37428F0A374C8FA
:104E4B00F0AB53B1E0700E90011904F0E49000EE5A
:104E5B00F0A3F0FF227F0122900119E06401229060
:104E6B0004E212021BE5536004D1636002C322E427
:104E7B00FFEFC39D500E9004E21201FB8F82123E96
:104E8B0099FE80027E00744B2FF8A6060FEFB40537
:104E9B00E09004E6E0FCA3E0FD7F01B1E9EF24FF25
:104EAB0022A3F090013E7401F0A322900557ECF081
:104EBB00EDD1AC04F0D206AB07C003122F64900205
:104ECB00F17402F0A37405F0900557D1F2F0D00302
:104EDB00B1E024FF22780DE29002F1F090051CE086
:104EEB009002F2F090051DE0FFA3E09002F3CFF0EB
:104EFB00A3EF22900555EEF0A3EFF0120F7490057F
:104F0B0055E0FCA3E0FDE4FFA1E9D1AE7417F0EF8F
:104F1B007006A37405F080069001407404F0122F04
:104F2B0064F13CE4A3F0A3F0AB51AD567F01021C3E
:104F3B00E49002F17403F0A37405F0229002F612D0
:104F4B00021BE51FC3940250749002FCE0FE9419FF
:104F5B0040037F00229002FDE0FF54207806F2A36D
:104F6B00E0FDA3E0900291CDF0A3EDF09002F912D9
:104F7B0001FB9002CF12021B7808EEF29002F612A0
:104F8B0001FB90028E12021BEF4420FF7803F2E428
:104F9B00780AF2C202121E432466F8A656E4900267
:104FAB00BFF09002CF1201FB90045DEEF0EF54FEC8
:104FBB00B1D4F07D027F01121EF67F01227F002209
:104FCB001256EBEF60047F0180027F0012588E12A5
:104FDB0017DCFD30E504EF4402FFE51A30E704EF80
:104FEB004480FFED540FFDBD0506EF4410FF801309
:104FFB00BD010C121725B4FF0AEF4404FF8004EF28
:10500B004408FF227FBD7E078F828E83E0B47A0631
:10501B00A3E0649C60360FEFAC0670010E14F582B2
:10502B008C83747AF00FEFAC0670010E14F5828C42
:10503B0083749CF0C3EF94E8EE9407500D8F828E2F
:10504B0083E4F00FBF00010E80EAC322D32243C2D8
:10505B000243C204E5C254024401F5C22280F2119C
:10506B005C8F95AE04ED7803CEC313CE13D8F954F1
:10507B00E0F594C2AF439401439402D2AF22900562
:10508B0012E0FF1204B6E4900512F0C22590027DE7
:10509B00E557F0FF0557EF5401FFC3747E9F900552
:1050AB0011F090027E745AF011BD31437C027D00E9
:1050BB0080AD7E027F007D7F311D90027F229005A7
:1050CB0012E070033025021189900514E070033053
:1050DB00260211E022900514E0FF1204B6E49005BD
:1050EB0014F0C22690037DE558F0FF0558EF540FDE
:1050FB00FFC3747C9F900511F090037E745AF07E71
:10510B00037F007D7F311D90037F31437C037D0046
:10511B00016A900559EEF0A3EFF0E4FBFAAF051D21
:10512B00EF600D9005591235562BFBE43AFA80EDE2
:10513B00EAFFAD03ED2FFF22EFF0900511E0FF2208
:10514B00E5C054C07005E52E30E0079005137414CC
:10515B00F022900513E014F07002118922E5C0547F
:10516B00C07005E52E30E0079005157414F0229001
:10517B000515E014F0700211E02243C20453C2F98A
:10518B00227812E264AA2411FFF222E52E30E20FFC
:10519B00E52E20E50AE52E30E0057F011221F322F2
:1051AB00900534121FB9EBF07811E25430600631E0
:1051BB00F75002C322900535E0F4F5DC53B37F9032
:1051CB000534E0FF90017AB404087403F043B38014
:1051DB008002EFF0E5DC20E109E5DB5402F5B44396
:1051EB00B480900536E09007E6F0D322A21122E5B9
:1051FB005670095109E24F7003D38001C322781313
:10520B00E2FF08E24FFF08E24FFF08227F0022EF88
:10521B007E0270027E01AF06EF302A0342DB22F4DE
:10522B0052DB227B017A01791A90053712021B900F
:10523B000537122AE2FF1204B69005371201FB74F0
:10524B00FF020094A22B9208D322E4780EF2022FD5
:10525B0070EF7002C322E4F549744B2549F8E66FF1
:10526B0060070549E549B405F0E549C394055024A9
:10527B00E54975F011A4241AF549E4F54AE54AC34A
:10528B0094105010E549254A120E98BFFE02D32206
:10529B0051A180E9C3227404254AF54A22AF532257
:1052AB0051B42F90002893FF22E53054F0C4540FD3
:1052BB002251B4FEEF90001E932E90000E93FF220E
:1052CB007E10EE60091EEE90002893B507F4EE9069
:1052DB00000E93FF2275BE08E5BE20E3FB907F8294
:1052EB00E493F52C907FB0E493B4421F907FB2E42B
:1052FB0093FFF460048F368007907F81E493F5363B
:10530B00907FB3E493FFF460028F2C907F83E49340
:10531B00F5BEA3E493F5D9A3E493F5D4A3E493F5F5
:10532B00D5907F91E493F5C5907F93E493F5C79067
:10533B007F95E493F5AB43D70875CD01E5CD20E020
:10534B00FB53D7F7E5CE540F2406FFD3940F40023F
:10535B007F0FEF4410F5CE907F92E493F5C6907FCC
:10536B0094E493F5B6907F8FE4934433F5C3E4F55F
:10537B0030E53090000E93D3953640070530E5307D
:10538B00B410EEE530C3941040057530FF8007E58F
:10539B0030C454F0F5307F200225AEC2EBC2A9C257
:1053AB0011D2B9D2FB51E0C28D753104758CC17528
:1053BB008A7F438901D2A9D28C227F78E4FE122402
:1053CB00B2E5D620E108E5D620E0030E8002E4FE2C
:1053DB00EE20E402DFE8EEA2E42253C3BF752901FD
:1053EB0085262A85272B753440E4F52843C34022B4
:1053FB00E4FFFEC2EB53C3DF43C3400FEFC3943450
:10540B004006EED394034047E5C020E542E5C030AB
:10541B00E4FB75C010E5CAA2E59221A2213022015E
:10542B00B34010EED394024006EE24FEFD80177DB0
:10543B00008013EEC394FF5009EE2401FDE433FC0E
:10544B0080047C007DFFCEEDCEA221922280ACE5C4
:10545B00C030E53675C020E5C030E5FBE5C96455C5
:10546B00702075C020E5C030E5FBE5C965566008C6
:10547B00E5C9F460037F002243C32071E5D2EB7FC3
:10548B000122E5C9B454037F33227F002271FBEF65
:10549B00B40102D322EFB4330771FBBF0102D32255
:1054AB00C322C0E0C0F0C083C082C0D075D008E575
:1054BB002E20E002A1A7E52D1202EC54E50154F5D4
:1054CB0002553603555804557605557E06558E08FC
:1054DB00550709550F0A0000565575AC551533E5A0
:1054EB00336002C155752D02C15575ACF0E52E30F8
:1054FB00E605752D09C155752D03C15575AC55754F
:10550B002D0AC155E5382408F582E43537F583E0DB
:10551B00F5AC752D01900541D160700A7F401222C8
:10552B00DD75330AC155753314C1550538E538AEF1
:10553B00377002053714F5828E83E0FFF5AC6235C8
:10554B00153AE53A6002C155752D04C1557829E429
:10555B0075F0011201E212004EFFF5AC6235152F0A
:10556B00E52F6002C155752D05C1558535AC752DDF
:10557B0006C155301002800643AB0175AC00752D8A
:10558B0008C155E5AD20E702C155C2EB53ABFE7523
:10559B002D0075EE007F041225AEC155E528700E67
:1055AB00E5C054C06008752804753300C155E52863
:1055BB0064046002C14E782975F0011201E2E5C95D
:1055CB00120094AF341534EF70028060C3744095B1
:1055DB0034FFD394045036E534643F7025AB29AACD
:1055EB002AA92B90FFFF120067FE64556004EEB4EE
:1055FB00540ED21190040EE0A3E0F53971E5800250
:10560B00C211C3743F9534900576F0803DBF0820DE
:10561B0085C933E5C030E704C20F8002D20FE533F2
:10562B00D394094007E533D39440401E71E5801AAB
:10563B00C37440953465337011300F02800A75289E
:10564B00058007E528B40502D16AD0D0D082D0837B
:10565B00D0F0D0E03274FFF5F012012F45F022C2EA
:10566B00EB7F021225AE53C3BFE4F52822C0E0C086
:10567B00F0C083C082C0D075D008C28DC28C758C2F
:10568B00C1758A97D28C900000E004F0053CE5319F
:10569B00700E75310490040E75F00112012F80020B
:1056AB001531D0D0D082D083D0F0D0E032ED600C69
:1056BB00E41200940429F9E43AFADDF422E4FFED54
:1056CB00601A7E01EE600C12004E5E60010FEE2E32
:1056DB00FE80F1740129F9E43AFADDE6227F00221B
:1056EB009007D7E0B40206301A037F01227F002215
:1056FB00C21922AD077F0490051AE0FEC394025035
:10570B0027EE25E02416F582E43405F583EFF0AFA0
:10571B000590051AE0FE04F0EE25E02417F582E46F
:10572B003405F583EFF0D322C322E4FFEFF143E01E
:10573B0060050FEFB402F52275F04BA4241AF58225
:10574B00E43400F583227817E214F27005C21512C7
:10575B002C4A2278177478F27BFE7A0079187C57E2
:10576B007D5190049874FAF0A37478F0022AE84300
:10577B00C20453C2F922900579EFF090051AE0604C
:10578B002D900516E0FF900579E0F8A60790051718
:10579B00E0A805F67B017A0579181207A47A05793A
:1057AB00167F021205BC90051AE014F0D322900567
:1057BB0079E0F8E4F6C32275F04BA4241AF97400CF
:1057CB0035F0FA7B019000D202021B7A007BD59058
:1057DB00047F7419F0A374C0F0E4A3F0A322E55D79
:1057EB0075F004A42409FFE435F0FE227B007A0057
:1057FB00797D90049FE4F0A37404229EFE9004EB49
:10580B00F0A3EFF0F5828E83E4939004EDF02290F9
:10581B0000080200A6F0A3F0A3F0A3F022EB543093
:10582B00131313541FFFEB54C044104F7881F6220F
:10583B007A0279CB7F040205BCEE75830029F9E56A
:10584B00833A227B017A0079D50205BCE09002F203
:10585B00F0A37429F0A37419F0229003B8E0FEA30F
:10586B00E0FF22FFF5828E83A3A3E022AF497E00E7
:10587B00E4FD12084E754A0122FFC4540FF58275E0
:10588B00830022AB13AA14A91522900009E4F5F0AA
:10589B00020193900490E0FF7404D39F22AB16AAED
:1058AB0017A9182274FFF5F012014545F022900458
:1058BB0041F0EE900440F022E549255DFFE433FE14
:1058CB0022246BF8A60608A60722F090051BE0FB26
:1058DB00AD5622900017120067540F2274802FF5DB
:1058EB0082E434022274002FF582E4340222900405
:1058FB0090E090050BF0227403F09003C3E022902C
:10590B000003EF0200A6C4540FFFFD7C0022E92424
:10591B0004F9E43AFA22E9240DF9E43AFA221200E6
:10592B00A690046FE0227401F090048BE022AF4A42
:10593B007401A80708229002F2E054FAF0227DFFCE
:10594B007F01020843E4FDFFFE02084390038674C7
:04595B0086F0A3220D
:107F8000002A140403601000460246000000062484
:107F9000F0140E06140800000000000000000000AD
:0D7FA000000003102A362A393D34323F001C
:047FB0004201FFFF8C
:017FB500FFCC
:00000001FF
