:100000000203D625277286757F06220256572D2CAD
:100010002B2A29281C1B1A1918171615141300014E
:100020000102020303040405F0C8A7917767604644
:100030003835323024222014362A393D34323F00FC
:0A0040000091BA9004C474FFF0228E
:10004B0002548CBB010689828A83E0225002E7228C
:10005B00BBFE02E32289828A83E49322BB010CE577
:10006B008229F582E5833AF583E0225006E9258261
:10007B00F8E622BBFE06E92582F8E222E58229F5A5
:10008B0082E5833AF583E49322BB010689828A8356
:10009B00F0225002F722BBFE01F322F8BB010DE563
:1000AB008229F582E5833AF583E8F0225006E925AB
:1000BB0082C8F622BBFE05E92582C8F222EF8DF03D
:1000CB00A4A8F0CF8CF0A428CE8DF0A42EFE22BCD9
:1000DB00000BBE0029EF8DF084FFADF022E4CCF8CD
:1000EB0075F008EF2FFFEE33FEEC33FCEE9DEC9832
:1000FB004005FCEE9DFE0FD5F0E9E4CEFD22EDF8B8
:10010B00F5F0EE8420D21CFEADF075F008EF2FFF5A
:10011B00ED33FD4007985006D5F0F222C398FD0F42
:10012B00D5F0EA22C5F0F8A3E028F0C5F0F8E58297
:10013B00158270021583E038F022A3F8E0C5F02594
:10014B00F0F0E582158270021583E0C838F0E822E2
:10015B00BB0110E58229F582E5833AF583E0F5F0E2
:10016B00A3E0225009E92582F886F008E622BBFEBF
:10017B000AE92582F8E2F5F008E222E5832AF58305
:10018B00E993F5F0A3E99322F8BB0111E58229F578
:10019B0082E5833AF583E8F0E5F0A3F0225009E914
:1001AB002582C8F608A6F022BBFE09E92582C8F213
:1001BB00E5F008F222D083D082E493F20874019325
:1001CB00F208740293F208740393F2740473E6FB5F
:1001DB0008E6FA08E6F922FAE6FB0808E6F925F044
:1001EB00F618E6CA3AF622EBF608EAF608E9F62222
:1001FB00E0FBA3E0FAA3E0F922F8E0FBA3A3E0F90C
:10020B0025F0F0E582158270021583E0FA38F022B2
:10021B00EBF0A3EAF0A3E9F022BB010789828A8302
:10022B000201FB5005E9F80201D9BBFE05E9F80212
:10023B00031889828A8302032ABB011A89828A8363
:10024B00D0F0D0E0F8D0E0F9D0E0FAD0E0FBE8C095
:10025B00E0C0F002021B5016E9F8D083D082D0E048
:10026B00F9D0E0FAD0E0FBC082C0830201F2BBFE02
:10027B0016E9F8D083D082D0E0F9D0E0FAD0E0FBD9
:10028B00C082C08302032122BB0120E58229F582B3
:10029B00E5833AF583D0F0D0E0F8D0E0F9D0E0FA7E
:1002AB00D0E0FBE8C0E0C0F002021B5018E9258249
:1002BB00F8D083D082D0E0F9D0E0FAD0E0FBC08256
:1002CB00C0830201F2BBFE18E92582F8D083D082ED
:1002DB00D0E0F9D0E0FAD0E0FBC082C0830203216A
:1002EB0022D083D082F8E4937012740193700DA323
:1002FB00A393F8740193F5828883E4737402936873
:10030B0060EFA3A3A380DF8A838982E473E2FB08F7
:10031B00E2FA08E2F922EBF208EAF208E9F222E447
:10032B0093FB740193FA740293F9224104C9FF41C0
:10033B0004C4FFC19BC11C4103C4004103BC004169
:10034B000380FF4103C300410385004103C100410A
:10035B0003C7004103B2004203B800004103B500DC
:10036B00C102C107C105011F004102CA00C10181C1
:10037B000400C100C18341017A00015400C10C810A
:10038B000B008110FFC109015200015300C10BC1C9
:10039B000E4100ED0041054006012D00C112013256
:1003AB0000013000013100C110C10FC11341051212
:1003BB000041051400C126C125015800015700C199
:1003CB001AC117013B00C114C1150078FFE4F6D820
:1003DB00FD9000007FBD7E08E4F0A3DFFCDEFA7524
:1003EB00A0007581B902042E022066E493A3F8E401
:1003FB0093A34003F68001F208DFF48029E493A372
:10040B00F85407240CC8C333C4540F4420C883408A
:10041B0004F456800146F6DFE4800B010204081059
:10042B00204080900336E47E019360BCA3FF543FD1
:10043B0030E509541FFEE493A360010ECF54C02591
:10044B00E060A840B8E493A3FAE493A3F8E493A381
:10045B00C8C582C8CAC583CAF0A3C8C582C8CAC5E5
:10046B0083CADFE9DEE780BE90054FEFF0A3EDF026
:10047B009004C4E0FFF46002114190054FE0FF7E51
:10048B000064027006C21BD21C8002D21BEF4E709E
:10049B000D301C0291D4900550E0FF02081590041A
:1004AB00C9E0FFF4600291BA9004C974FFF0221204
:1004BB00323F5012123212F583E4F0A3F0EF122305
:1004CB00A8E4F0A3F00EAF0622E4FDFCFF91FBFFC6
:1004DB00F4600891BA9004C974FFF09004C4E0FF73
:1004EB00F460021141C21C22900561EFF0D21B2275
:1004FB00B1029004C9E02290053DEFF0A3ECF0A30C
:10050B00EDF0780BE27030B14890053DE0FF24FF31
:10051B009209EFB40103D38001C3920D30091D90F2
:10052B00053EE0FFA3E09000F0CFF0A3EFF0200D2D
:10053B000B753B01C21522E4FF122936227B017A8F
:10054B000479FD9004D9511B7A0409120FC1900450
:10055B00FEE0FFA3E04FFFA3E04FFFA3E04F7007C8
:10056B00B19AAD560232B17B017A0479FE9004B395
:10057B00B198123058600C12520AE24F6005B18FDD
:10058B00120FC1227B007A0079569004D9511B7B44
:10059B00FE7A0079132212592430050D7B017A0261
:1005AB0079CBF1A2B1BAC20522B19AF1A27B017A41
:1005BB000279937F049004A9511BAE071FEE6012C2
:1005CB009004ACF197114EFE9004A9F197EE1194A3
:1005DB0080E82290053A511B7D1BE4FF123843D172
:1005EB00AA1258DD9002E2511B7B017A01793990F6
:1005FB0002E5511B7BFE7A00790C9002E8511B7AC5
:10060B0000791112306A7811E230E007780F74012B
:10061B00F28004E4780FF2D1AA74011194D1AA905C
:10062B000001740111A67F103008027F08EF4443CC
:10063B0090000211A67811E2FF30E00CD1AAE92458
:10064B00021243B244801194EF7F0030E1027F80AD
:10065B00EF441CFF7811E2FE7D0030E4027D40EF99
:10066B004DFFEE7E0030E5027E20EF4EFFD1AA1249
:10067B0058ED780CE2D3941440037414F2780CE226
:10068B00FF240708F2E92407F9E43AFAC003C00291
:10069B00C001900139F1A0D001D002D003A1C090CC
:1006AB00053A21FBD223E4F55ED224F1EE747EF100
:1006BB00E47023C3747D9FFF747E1257E3202409DB
:1006CB00E0C39557C394025004F1D1F557055EE58D
:1006DB005EC3940240D520231DAF570557EF54013D
:1006EB00F1DA747E123657F97BFFF1A27B017A02A5
:1006FB0079007F80B1C0E4F55ED224D22390027ED4
:10070B00E0645A70521250BEE06F704BF1EE747C85
:10071B00F1E47023C3747D9FFF747C1257E3202494
:10072B0009E0C39558C394105004F1D1F558055EF8
:10073B00E55EC3941040D520234EAF580558EF54B7
:10074B000FF1DA747C123657F97BFFF1A27B017A39
:10075B000379007F80A1C07F747A027900F1A7F141
:10076B0094E41194DFF97F0A7B017A027974F1A981
:10077B00F19474FF1194DFF87F7F7A037900F1A76E
:10078B00F19474FF1194DFF8229004E8E475F00102
:10079B00410490048D31FB9004AC411B7B01900410
:1007AB00E8411B9004B0511BAE071FEE601590047F
:1007BB00B3F197114EFE9004B0F197114E6E60E8B5
:1007CB007F01227F0022C224C2239004EDE022FE8F
:1007DB00C3E494009004ECF0229E8D82F583E493A5
:1007EB00645A22E55E7F00FEC3747E9FFD22900457
:1007FB00C512563F7013301C101204D47A0579625F
:10080B00F1B4900562E0FF111522EF702290038086
:10081B0074FFF0E49003C3F0900385F0FEF1EC90CD
:10082B0003C3113B900385E0FD7F037E0011412242
:10083B00E0FD7F027E0012382E8006FFE433FEE4DB
:10084B00FD900521EDF090051FEEF0A3EFF0D18F99
:10085B00900521E0FD6F600E90051FE0FEA3E0FF09
:10086B00122BCC7F02227F012290048B121FB61217
:10087B005886FFC39420401DEFD394FF501790046C
:10088B008BE0FFA3E0FDA31201FB900490E090042A
:10089B0015F00218B1D11412004E64016002C107A9
:1008AB00124EE01202EC0D3901091302092D030B54
:1008BB00E6040C9E0508D9080BBE0B0A050C0B4071
:1008CB001409B31609F5170E012200000E07300CA0
:1008DB0002C107200902C107900490E0C3940350A2
:1008EB0002C107D10820E002C107D20E90048BE0B1
:1008FB0030E10AA3E0FFE4FBFA7D02802290048C36
:10090B00E0FFE4FBFAFD801790048CE0FF90048B72
:10091B00E07E0030E1027E02EE4405FDE4FBFA02CC
:10092B0044C2300C02C107200902C107900490E0B9
:10093B00C394074003D38001C34002C107780B74F3
:10094B0001F2D108F556D114124EE61207A2120588
:10095B009A7F041205C012059AAD561232B1E556B4
:10096B0070031232F6E556703712385C754919E58B
:10097B0049C3946E501912582AE54AC39410500B70
:10098B00E549254A114612529B80EEF1E580E0E4E1
:10099B00FD7F08FE114CE4FD7F09FE114CE4F5537D
:1009AB00E4FF12293602336D780FE27002C107E5BE
:1009BB005370057550018003855350D108F55112C2
:1009CB0045A87416F0A3E551F01244B6124667A37E
:1009DB007446F0A3742BF0AB50AD567F01121CEF95
:1009EB00EF6002C1077F0202462B900119E06403FE
:1009FB006002C107D108FF02284E12588C400261D9
:100A0B00407409C39F500261407550FFC2D5D1B5E8
:100A1B00FFC45407F55D7006D10EF552D2D5E552E1
:100A2B0070026105E4F549744B2549F8E6FF655200
:100A3B006012EF7008E550B4FF038549500549E596
:100A4B0049B405E3E549C394054010E55094FF50C4
:100A5B000A855049744B2549F8A652E55DC39404A9
:100A6B0040026134E549C394054002613430D50737
:100A7B00E54904FF124084E54975F011A4F54924BA
:100A8B0019F54930D507FF7E00AD52114C0549E5EC
:100A9B005D1258D4D1B55407F550E4F55D30D50B44
:100AAB00E55070071258A77DFE8018E55DC3955081
:100ABB0050171258A7D1141258F47C00E9255D1277
:100ACB00437BFD114C055D80E2E55DC3940450064C
:100ADB00E549255D1146E4F55D744B255DF8E6B5FA
:100AEB00520DD114E55D04FD1258CBD1C1803A05EE
:100AFB005DE55DC3940540E1802F30D52C75491918
:100B0B00E549C3946E501FAF49F1F9601512582A8D
:100B1B00E54AC39410500BE549254A114612529BE6
:100B2B0080EEF1E580DA12385CF1F27002C1071247
:100B3B00291D0228B112588C50747409C39F406E42
:100B4B00D1B5FFC45407F55DEF5407F550E55D7063
:100B5B00107F05124084D108F553FD7F087E0011EC
:100B6B004CE55DC394045046E550600F124262ADF4
:100B7B00507C00D1141258F4123255E550700BE52D
:100B8B005D70077DFE7F09FE8015E550C394045010
:100B9B00101242627C00EF2550FFEC3EFEE4FD118B
:100BAB004CE5536009D1141258CBE4FDD1C17F043D
:100BBB00022B71F1F27002C1071228A2E4780BF23A
:100BCB00122B96F1679000EE1232387002C107D1EA
:100BDB000824FEFF8D828C83020316300C02C107A2
:100BEB00900490E0C394045002C107D108D3941D24
:100BFB004002C107A207920B7402122931D20C904A
:100C0B000119E0B4040312522F12336DD1082403DF
:100C1B00FFE433FE900490E0D3124F394010D10E15
:100C2B00FF7E00E92403124EC712004E8001E478C8
:100C3B000EF2780EE270067E017F5980047E007FF3
:100C4B00F890013C12305FC003C002C00112079D37
:100C5B00D001D002D0037F211205C090048CE0900C
:100C6B0000F6F0A312590C30E1079000F7E04402B4
:100C7B00F0D212D1ADFF2403FDE43EFAA9057B01AE
:100C8B00D1A5E0FD1256A7EF24079000EDF0E4FF8D
:100C9B00022C80780B7404F2122B96900490E0D304
:100CAB0094024004D1088001E4780EF2780EE2FB46
:100CBB0070067C017D5980047C007DF890013CEC32
:100CCB00F0A3EDF0F5828C837401F0A37406F09021
:100CDB00049212590C30E107900492E04402F0D1D7
:100CEB00AD1258217004D1A504F0D1AD125821D109
:100CFB00A5A32582122D49EBD1ACFFAA06F97B01E6
:100D0B001244BCD1A5E02404FF780EE27E007002F1
:100D1B007E01C3EF9E9002F1F09004921258139053
:100D2B00048C1245B06002C1077F02022936900481
:100D3B0090E0FFC39406E494005002C1078F4A7BF6
:100D4B00017A0179257D14E4FF123843D1B520E2F5
:100D5B0058E924031243B2440412009412079D7BFA
:100D6B00017A01791D7F061205C0900122E0A3F0E4
:100D7B00124F6DE4900124F0054A054A900490E06F
:100D8B00FF24FAFDE434FFFCD3ED9400EC94004017
:100D9B004DEF24FAFFD114E92406F9E43AFA1207CD
:100DAB00A27B017A0179258032900490E0FF120733
:100DBB009D7B017A01791D1205C0900120E020E195
:100DCB001D124F6D054A900490E024FBFFD11412C5
:100DDB0058DD1207A27B017A0179231205C090041A
:100DEB008CE0FD7B017A017922E54A24FB9004CF4C
:100DFB00F07F840230A5D108FF122C592290048D6C
:100E0B001201FB90000202006790048D0201FB7F30
:100E1B00067E00D186EF644270227F01FED1869060
:100E2B000380EFF07F027E00D1869003C3EFF07F4B
:100E3B00037E00D186900385EFF0801D1259347E1E
:100E4B0000F1ECE4FD7F02FE1141E4FD7F03FE1196
:100E5B00417D427F067E0011411231797A0379BDC3
:100E6B00F1B49003BDE0600DE4FFFED186EF6005A9
:100E7B0012200E8003121FAF7F012212382E800426
:100E8B00FFE433FEC3EF9480EE940050051258C27A
:100E9B0080031258B9F583E0FF228F828E83A3A3C0
:100EAB0022F090013CE0FEA3E02290048D1201FBA6
:100EBB0090000302006790050AEDF09005071202FF
:100ECB001BD10E7002E160900507D1B8C4540FF529
:100EDB004A600C90050AE0246ED18B8F508003E49E
:100EEB00F550900507D1B8540FFF90050BE0C39F49
:100EFB00C39405402E7E00E92404124EC712004E07
:100F0B00FFF161900008EF1200A6FFE54A701E5337
:100F1B00500FEF540633333354F8FEEF54C04E42A8
:100F2B0050800A53500FF1617408124F0AF161128D
:100F3B00173230E30E1259148002C333D8FCF4522B
:100F4B0050800B1259148002C333D8FC42509005C9
:100F5B000AE0125837229005070201FB754919E484
:100F6B00F54AAF497E00D18F744B254AF8A607741A
:100F7B004B254AF8E6D394E84008E4F6AF49FEFD6A
:100F8B00114CF1E512591C40D9227D547F067E008D
:100F9B00114C7DA57F077E00114C12058FF1C112FC
:100FAB0028A212424F8F5380B37B019004D91202B7
:100FBB001B1B7A0079009004D612592CD18F900408
:100FCB00D9122B2F9004D61201FBE94A600B124267
:100FDB0076F07F017E001237E52274112549F54921
:100FEB00227DFF7F010141900119E06401227E0007
:100FFB00D18FEF229004C8E014F0701811209004E8
:10100B00C7E0C3941B748094805003E004F09004F9
:10101B00C7E0A3F02230093A200C377F05120FF9F5
:10102B0070307B017A0079B71205DEE49000B312C1
:10103B0057F7A304F0FB7A0079B3780DE224049000
:10104B00046FF0A37411F0E4A3F0A3F07DFFAF568F
:10105B0080037F002290046A121FB612021B1257E4
:10106B00148F3DEFC3940240022106EF1257A131BA
:10107B000E3109900001E41200A690046AE0900082
:10108B00021200A690046BE09000031200A69004DD
:10109B0070E0FF54F0FEC4540F9000051200A6EF51
:1010AB00540F900004125904FF602990046C120134
:1010BB00FBEA494B601E310EE9241CF9E43AFAC0F5
:1010CB0003C002C00190046C1207A0D001D002D063
:1010DB00031205C0310E90001674FA125904241134
:1010EB009000061200A6900471E0FFA3E0900009A7
:1010FB00CF8FF0120193E53D04FF227F0022740194
:10110B001200949000D20201FB90054C12021B714D
:10111B00DCF1E9541FF54071F7FFE53B6401601CFE
:10112B007412D39F5016E540B402067419D39F5026
:10113B000BE540B40108741DD39F4002C32271DC40
:10114B00910330E20CF1326556600671EBFF122908
:10115B00C2E5406402707671F120E76F120224F150
:10116B00326556701C301663C21671EBFD7F03128D
:10117B0056E171DC71EBFFD22EE92413122DB580F1
:10118B004A71DC90000C120067FF540FFE603C129A
:10119B0058FC1E7C00E92E12437B6556702D71DCCA
:1011AB00EF54F024102E90000C1200A690000BE4CC
:1011BB0071D91207A27F1812580AC20371DC71EBA6
:1011CB00FFF132FD1257B5F0121E53C322E4FF712B
:1011DB00DC1258FCEF124378B55602C3220FEFB462
:1011EB0004ED71DC71EBFFF1EF540FFD122AC050CF
:1011FB0002C32271DCF13265567002610A7811E28A
:10120B00FF54306002610AEF20E002610AE540649E
:10121B0001600571F130E71C201502610AE540649D
:10122B00016002610A71DC12586FFEAF01122FF9D7
:10123B004002610A1257148F3DBF0202C322E540E0
:10124B00B4011F71DC12586FFA7B01C003C002C0DE
:10125B000112059A1207A2D001D002D0037F04120B
:10126B0005C0E53D1257A171DC71F7FF310E123944
:10127B00E0C003C002C00171DC1207A2D001D00292
:10128B00D0031205C071DC71EBFF122A3471DCF153
:10129B00EF540FFE122B36A606EF122A2C760708F8
:1012AB0076D090000C12006754F0FF605224F0FFD0
:1012BB00310E1258B0FEE92418F9E43AFAEE7C002C
:1012CB0029F9EC3AFAE556120094EF2E04FF310E91
:1012DB0090001771D871EBFF310E90000271D8F1AD
:1012EB0032FF310E1258ED3109900004744071D960
:1012FB0071F7FF310E900006EF1200A612587D71A8
:10130B00DCF132FF65566006EFF4600261D471F1D7
:10131B0030E70261D4E540600261D490054C124382
:10132B00AC440112009471DC12586FFAC003C00276
:10133B00C00190054C1201FB90000312029371DC6B
:10134B0071F724EEFF90054C1201FB900006EF1293
:10135B0000A6120224F1E330E66871DC71EBFFC2E8
:10136B002EE9240C122DB571DC1207A27F11125835
:10137B000A71DC71EB9000E6F0F1EF540F9000E78F
:10138B00F071DCE9240CF9E43AFA1207A27B017A3A
:10139B000079E87F051205C09000D9E556F0900062
:1013AB00DC7419F071DC71EBFD9000DDF0A374229D
:1013BB00F0A37407F0C2031257B5F0AF56121E53C9
:1013CB008009E540C37001D322C322D322EF120060
:1013DB00A690054C1201FB020224AB13AA14A9150B
:1013EB0090000402006790054C1201FB900007026D
:1013FB000067AB13AA14A91590000A020067AC058D
:10140B009004F812305F8B138A14F515ECD3940803
:10141B005002E12B71F7FDECC39D5002E12B1248FA
:10142B0034EF6002E12BF51AA20F92071256DA7B0A
:10143B00007A007913124867F1D6F1DEFF540F647E
:10144B00017060EF30E70C91031239DAE92FF9EEF6
:10145B003A8009F1D67B012409F9E43EFAE924012B
:10146B00F9E43AFA9004FA12021BE51A546070334D
:10147B009004FA122AFFFF600864186004EFB407A7
:10148B0005E51A30E718EFB403199004FA1201FBC3
:10149B001258E59004B312059812305870057FFE70
:1014AB001229C271E5F5127801F2E51A30E251907A
:1014BB0002BAE020E74A7F031239E890028DE51B60
:1014CB00F0125876F1E330E50990028AE04420F0FF
:1014DB00802B12589612004E64017021124EE0645C
:1014EB0018701AE519B40409120EBBFF12467D8061
:1014FB000A125896120E0EFF1252BD8F32123D4E2B
:10150B00200402C15AE51A30E61D125876F1E9C4DF
:10151B00540F900280F01237DB90029DE054F0FDE7
:10152B007BFF124018C169E51A20E102A1FDE4F529
:10153B0012900298E0FF540F64016002A1D2EF20D9
:10154B00E702A1CD9002BEE0FFD3940A40079002C0
:10155B009DE0FE80047883E6FE8E5CE55C540FFE16
:10156B00B40F028022EFD3940A400A749E2E123CD1
:10157B0095E0FF800674842EF8E6FF8F12E55C542D
:10158B00F0C4540FB506057865E6F51220003878DF
:10159B0007E270337805E220E10F702B71E56512DD
:1015AB007025E512786566601E7F0C12403112477C
:1015BB00F67C477DE3E4A3F0122B05EF6009D20024
:1015CB0080057865E6F5129002BAE0FF20E502C1CE
:1015DB0069A3E064037002C16971E5651260057867
:1015EB0005E2607AEF54DF9002BAF0F1F51236D2D1
:1015FB00806CE51A30E5189002BAE0FF30E45F54D6
:10160B00EFF0F1F5F1D6FF12363A124FAE804FF1F3
:10161B002CF46014F1D6FFF1DE540FFDBD0203D3A1
:10162B008001C3400312363AE51A30E30B9004F8FD
:10163B0012365CF97B01F138202F23124FCC71E568
:10164B00FD125896900490E519F0120874800F90D3
:10165B0002BBE0B40408A3E0FF600312321FE51ADB
:10166B0020E402E12B300102E12B7F013007027FE6
:10167B00028F12D2057B017A0279811207A2124FD7
:10168B002771FDFF540FFEF1E9FD30E0031E803E94
:10169B00EFC4540F146E7035ED30E33171FD124F02
:1016AB00171239E0E92D12437B540F7020EFFDE543
:1016BB0015240BF9E43514FAE92DF9EC124EDE542E
:1016CB0060FFBF200543120880034312100E71FD0B
:1016DB0054F0FFEE540F4F90000A1200A671F7243E
:1016EB00F6F554D394384003755438AB13E51524F1
:1016FB0009F9E43514FA1207A2F1CFAF541205C061
:10170B00C20371E5FDF132FBC003F1CF1244BC12F1
:10171B0046FF7446F0A374A3F0D003AF121246F643
:10172B0022AB13AA14A9159000080200679005318B
:10173B0012021B300102E1C5F1C9E924091243B2BF
:10174B0044011200944402F1C69103540FFFE924A3
:10175B000A1243B254F0F1C6910354F0FEEF145445
:10176B000F4E90000A1200A69103C4540FFF71F79D
:10177B00FEC39FFFC3EE9F2402F554D3943840035E
:10178B00755438F1C9124ED21207A2F1CFAF5412D1
:10179B0005C07883E654F7F6C2037F013007027F5A
:1017AB0002F1C971EBFBC003F1CF1244BC1246FF2F
:1017BB001246EED003AD561246F622120094900557
:1017CB00310201FB7B007A007982229004F8E0FE63
:1017DB00A3E022AA06F97B019000050200679000A6
:1017EB000902006790000602006712404112004E8A
:1017FB00FF1204BAE4020094900563EFF0D21C7C54
:10180B00047D731204FBF47058900563E06401903F
:10181B0004C57006F0A304F080227407F0A304F053
:10182B00A37401F0A3F012518DEF543F2432FD7ECF
:10183B000F7FFF7BFF11719004C4EFF07E077FF9E0
:10184B00116D9004C9EFF0301B17900563E0640134
:10185B00700F7A047BF3FD7FFF1244C2EF6002C26C
:10186B001B227BFF7D649004F77403F09004F3EE6E
:10187B00F0A3F1B6EBF07FFFA3E0F9E9C3940A50B4
:10188B0024E91223A8E0FCA3E04C7016AF019004EE
:10189B00F3124048FBA3E09004F2F01231C1E904CB
:1018AB00FF220980D622900410F1B612021B90047D
:1018BB0015E0FF9004121207A07B017A047916122F
:1018CB0005C0900410E07F0030E1027F02EF442559
:1018DB009003C2F0900416E064756002418290039D
:1018EB00BCF0900417E01202EC190D01193C02191F
:1018FB00590419A60619BB0719D0091A410A000089
:10190B001C36900415E064037004900419F09004E5
:10191B0018F1D65008E09003C3F012083B9004195D
:10192B00F1D640028136E0900385F0E0FD7F038124
:10193B0023913E7403F09003C3E0900388F090036F
:10194B0085E09003899137900446740441B1913E30
:10195B007405F0A37403F09003C312589D8005C364
:10196B0033CE33CED8F9125864900389F0900441EA
:10197B00E090038AF090038512589D8005C333CE07
:10198B0033CED8F912586490038BF0900441E09059
:10199B00038C9137900446740741B1900418E0D33F
:1019AB0094E87480948040028136E09003B2F02278
:1019BB00913E7408F09003B2E09003889137900445
:1019CB0046740341B1900418E070028062900418D1
:1019DB00E0D3943C748094805008E0FF9003B8E40B
:1019EB00802A900418E0C39441748094804035E0C1
:1019FB00D394FE74809480502BE024C1FFE434FF19
:101A0B00FE7C007D3C1200C89003B8EEF0A3EFF013
:101A1B009003C4E0FF1204BA7E287F0F116D900370
:101A2B00C4EFF022900418E0F46002813674FF904A
:101A3B0003B8F0A3F022913E740BF0F1CDBEFF0B77
:101A4B00BFFF0890038874FFF08020D3EF943CEE27
:101A5B0094004010EF243BFFE43EFE7C007D3C12E3
:101A6B0000DA8002F1CD900388EFF0900411E0FFD3
:101A7B009004467403802F9003B2E0FE900411E0B3
:101A8B00FF6E604A9003B8E07002A3E060409003E1
:101A9B0085E06401702EA37422F0A37402F0E4A31A
:101AAB00F09004467403F09003C2E0900447F07B7F
:101ABB00007A007900A312021B90044B7420F0A350
:101ACB0074086195900385E064027002813690047E
:101ADB0016E064727025A3E024FC6002813690034B
:101AEB00867472F0A37405F0E4A31257F7A3F0A366
:101AFB009137900446740891496195900416E064FF
:101B0B00866002619DA3E024ED60252402600281C2
:101B1B0036F1C57412F0120008900388EF916374CC
:101B2B00439163744F913790044674079149805ADF
:101B3B00F1C57414F0900418E0900388F090041829
:101B4B00E01202EC1B6B201B6D251B71271B7372A4
:101B5B001B7F731B77751B6F7A1B758600001B87AA
:101B6B00801280108006800C800A80089003897494
:101B7B0002F0800D9003897401F08005E4900389D5
:101B8B00F0900411E0FF74049146F00B7A03798610
:101B9B00817C900416E064207014A3E01460071499
:101BAB00600281368018900418E07051805C9004BC
:101BBB0016E064257026A3E014601714706DE4FF23
:101BCB00FE120E86AB07900411E0FF900416E0FDA9
:101BDB008057900418E0700280308021900416E04A
:101BEB0064277047A3E014602314603124FD601058
:101BFB00047038900380E060326401602E02200E86
:101C0B00900380E0602564026021E1AF900418E04E
:101C1B00900380F0E0FD7F017E00020841900411EB
:101C2B00E0FF900380E0FB7D27916A22F090041186
:101C3B00E0FF229003867475F0A322900446F09087
:101C4B0003C2E0900447F07B007A007900A31202F4
:101C5B001BE490044BF0A322F0A37403F0A3229097
:101C6B000386ED9163EBF074039146F00B7A0379E5
:101C7B0086900442EFF0A312021B900447E0FF3062
:101C8B00E502D2069004481201FBE94A9004436036
:101C9B00341201FB9002D512021B900446E0900215
:101CAB00D8F0A3EFF09004481201FB9002DA120275
:101CBB001B90044BE0FFA3E09002DDCFF0A3EFF10C
:101CCB00E8FF0242921201FB1244BC900446E090E2
:101CDB0002F1F0900447E09002F2F090044B1245B1
:101CEB000BF1E8FF9002EDEBF0755B019002F1E078
:101CFB00FEA3E0FC20E72130E409EED39436401834
:101D0B007F0022300609EED3942E400C7F0022EE8A
:101D1B00D3943040037F0022E51FC394024002C1DD
:101D2B00408F11E51154186003431102D14C24610B
:101D3B00F8E4F6D14C2460F8E4F6AF05D14C2466F8
:101D4B00F8A6079002EDE0FDD14C2465F8EDF6FE08
:101D5B00BEFF02F1BD30060BC206D14C2460F876F3
:101D6B000180119002F2E030E60A755B04D14C243D
:101D7B0061F876069002F2E05490702DE55B6401F9
:101D8B007027AF05123663EF601FE5115418600919
:101D9B00D14C2460F8740246F69002C4E0600375DF
:101DAB005B04D14C2461F876029002EDE0FDB4FFA8
:101DBB0002F1BDD14C2461F8E6704B9002F2E05475
:101DCB008564057041AF0512415750337881E63079
:101DDB00E40B540625E025E04402FF80027F018FCF
:101DEB0011D14C2461F87604787BE6D14B2465F84D
:101DFB00A607123D38600F123D42755B04800790B9
:101E0B0002F2E054FBF0D14C2461F8E67002760547
:101E1B009002EE1201FB9002F1E090045DF0900253
:101E2B00F2E090045EF09002F312438AAD5BAF11C7
:101E3B00D1FE7F0122C206D2037F0022E0FEA3E087
:101E4B00FFE51F75F00EA42290047BEFF0A3EDF0DD
:101E5B00AD03AC02E51FC394024002C1F975120633
:101E6B00300305123C9D800FAA04A9057B011217B4
:101E7B00EF540FC454F0FFEF4212D14C2462F8A67A
:101E8B0012D14C2460F8E4F690047BD14A2466F816
:101E9B00A607D1492465F8A607D14C2464F876022D
:101EAB00D14C2463F8E4F6900480D14A245FF8A661
:101EBB0007AE04AF05AA06A9077B01D14C2467F82E
:101ECB001201F290047FD14A246AF8A6079004818C
:101EDB00D147F1DFD203AF1F051FEF7005AF121211
:101EEB0039E89002BBE07003123D4E7F0122D20312
:101EFB007F0022900458EFF090045ED14A245FF8E3
:101F0B00A607D14C2467F81201F290045DD14A2444
:101F1B006AF8A60790045FD147F1DF900458E0F50B
:101F2B0011D14C2465F8E6F512B4FF028017E511C8
:101F3B005407701730070E7801E2B51208431102EF
:101F4B005311FE80064311015311FDD14C2464F84B
:101F5B00A611D14C2463F874FE56F630031EE5111E
:101F6B00C330E101D3921FED540FFF64046003BF34
:101F7B000603D38001C3123D31FD8009E51E540FCA
:101F8B00C454F04DFDD203D14C2462F8A605AF1F0B
:101F9B00051FEF7005AF051239E89002BBE0700327
:101FAB00123D4E221259345380FE22EFF0A3EDF076
:101FBB00A3229002F2E054FAF0229003867486F08A
:101FCB00A3229003B8E0FEA3E0FF22E0D3940274B7
:101FDB0080948022246BF8A60608A60722F09004B2
:101FEB0042E0FBAD56E422900564EFF0301C031287
:101FFB0004D4900564E0FF6003121803229005657A
:10200B00EFF0227DFFE4FFFE120841438001221214
:10201B0031A4900566EFF0F1DC500E1231B2500591
:10202B00121FAF8002110EF1DF9003BCE024FE60A3
:10203B001824027025900566E06401701D7F011263
:10204B001FF29003BC7402F022900566E0640170ED
:10205B0009FF121FF2E49003BCF022907FA2E493DD
:10206B00F5CF9004837450F0A3745AF090048974E4
:10207B0051F0A37486F09004877450F0A37469F048
:10208B009004857451F0A37497F0125759125010A5
:10209B00E5C120E00BE4FF512FE49007E7F0800A45
:1020AB009007E7E070047F01512F1253987108904D
:1020BB0007E7E07006202F03120E1A9007E7E06087
:1020CB00337F0131FC12547740269007E6E0600C19
:1020DB00E014F07007FF31FC7F0151389007E7E007
:1020EB0060129007E6E0FB7D027F051251AC800485
:1020FB007F0251381252A5780FE2B401047F0131EF
:10210B00FCD2AF1233771251FB5004D229515490A9
:10211B00017AE06053780BE2704EF1C15004511616
:10212B0080F8E52E20E507780FE27002519F1250E0
:10213B00CA90017AE0FFB4020575DA7E802AEFB40B
:10214B00030575DA6C80FEEF6405701C7811E230C4
:10215B00E50743B3807F1F8002E4FFF1E29007E7BE
:10216B007401F075DA6C80FE714E202F04111A8009
:10217B0002F1E55116E52E30E1317F0251E685552E
:10218B0054C37440953490017BF00555E555C394C9
:10219B00024003E4F555E52E20E504514351BBE520
:1021AB0054514590017BE0FD121409B1BE210E90F4
:1021BB000568EFF043AF2043B220E4F559C3E5596E
:1021CB00940A748094805004055980F1E59020E5C1
:1021DB00037F002243AF8053B27FC22A7F0112528A
:1021EB001B53AEFE43B101121FAF7F0122EFF07FF5
:1021FB0001EF6006514351BB800EF1C150045116E3
:10220B0080F8519FE433FF227F0122E52E30E21349
:10221B007F0451E6123E88EF6009E52E20E5047F2E
:10222B000131FC2231BAEF24FFB3922F2231BA12C3
:10223B000E1AE49007E7F022E55575F040A4247CD4
:10224B00F582E43401AF82FE22E4FF31FCEF604300
:10225B0012059AC22D71C77813E2C394C040F17B6B
:10226B00FE7A007915D22D71C77813E2FF08E25F71
:10227B00FF08E25FFF08E25FF460E4780FE2B4016D
:10228B00047F0131FCE4F55630290812059AAD564E
:10229B001232B122E52D70167F20B1B6C2EB53C3BB
:1022AB00BFE4F52875BE08E5BE20E3FBD322C322AD
:1022BB00E52D7026C2EBC21353C3BF8E268F27AA00
:1022CB0006A9077529018A2A892B753440F5287FC1
:1022DB000151E651EF43C340D2EB22C2AFEFF452B0
:1022EB002ED2AF2275BE08E5BE20E3FB907F8AF1AC
:1022FB00D275BE0DE5BE20E3FB7F2080DE1206AF5C
:10230B001233067F067E00120E8FBF54097F071211
:10231B000FF964A560081232E71232558000120FD4
:10232B009512406912058F120FC112520AE24F70BB
:10233B0004C2295154E55654032413F8E265567828
:10234B0012F2227800E26052E214F2E4F55AE55AF6
:10235B00C3940A50EE71A6E0FEA3E04E603871A65E
:10236B0012563F703171B66007F4600471B614F009
:10237B0071B66013E55A123213F583E0FEA3E0FF4A
:10238B0071A6EEF0A3EFF0E55A12324712365CF964
:10239B00120312122B3F055A80B422E55A75F0072F
:1023AB00A424C8F582E43403F58322E55A75F007BB
:1023BB00A424CEF582E43403F583E02290050C12BD
:1023CB00021BE490050FF0A3F0E52E20E502C322DB
:1023DB0075D70875CD01E5CD20E0FB75C5FF75C33D
:1023EB00437D1A900510E025E0F090050FE033F0E7
:1023FB00E5C030E3FB43C008E5CA7E0030E6047F4E
:10240B000180027F0090050FE04EF0A3E04FF0DD5E
:10241B00D2302D031252D290050FE0FF90050C1213
:10242B002B2F900510E0FF90050C1201FBEF1230E3
:10243B009FD3228FEE30100543AB02800353ABFDCD
:10244B0075BE08E5BE20E3FB907F88F1D275D744BB
:10245B0053D4DF7D1091BADDFC43D480E5D420E763
:10246B00FBACD5907FB5E493FFF4600280027F0252
:10247B00AB07C3741F9BFFECD39F4004741F9CFBE3
:10248B00EC2BF5D543D42043D4047D05DDFE53D48A
:10249B00FB53D4DFF1F04006AF031BEF70E27D3846
:1024AB0091BAEDB4180343D701DDF57F2041E6E582
:1024BB00D320E1FBE5D330E1FB22EF20E14D2012ED
:1024CB000330E30CE530C394F0503C124F428032A2
:1024DB00E5326020E4FFEF90002893B53209EF90CE
:1024EB00000E93F53280050FEFB410EAAF32913E38
:1024FB00E4F53222E530C394F0500CE530540FFF75
:10250B00600512467D8006AF368002AF2C813E906F
:10251B00044EEDF0CEEFCECDEBCDE52D6002A1B5A7
:10252B00C2EBC213EE5407FFBF0203D38001C39269
:10253B0010E4F5289004501201FBCBE9CB8A378BC2
:10254B0038900453E0F53AA31201FB8B298A2A89B0
:10255B002B900457E0F52F7535FF752D01EE5418B0
:10256B0060247F40B1B6753313D210900541E4F06F
:10257B00A374FBF0EE5418FFBF081D900541E4F067
:10258B00A3743FF0801230100C90044EE0B40105A0
:10259B0075331380037533097F0451E6CFEDCF916B
:1025AB00C57F01B1B6D2EB75AC5522C2AFEF422E4F
:1025BB00D2AF227F3E7D3F125760E53E147003126F
:1025CB002A95E4F53DE53D75F04BA4241AF974000A
:1025DB0035F0FA7B019000B012588624FE6015246A
:1025EB00FE601514601614601714601824067048EA
:1025FB00D1D58044F1618040D163803CF126803895
:10260B00F1A68034D15D90000912015B45F060208A
:10261B00E53E64046005124EE0F53F90000912019F
:10262B005BF58285F083AF3F120316D15D12587DA7
:10263B00D15DE4120094C217053DE53DC394024001
:10264B0084E53C6009FD7F011256E1E4F53C221262
:10265B0000949000B00201FBE53E706DD15D12134A
:10266B00EB30E613900007E475F0641201937406E7
:10267B00120094C20380151217E31257C8FF1238C9
:10268B0043D15D7405D15A1257FFD2039000B0129B
:10269B000E0BFF120EBBFD1239E0AB01C002C003E3
:1026AB00D15D1217EF90047FF01213EB900480F0C2
:1026BB00A37456F0A374DDF0D003D002121E53EFB7
:1026CB007007D15D740712009422D15DE4D15A12C8
:1026DB0017E31460030470421258B0900577F06052
:1026EB002C12518DD15D90001612006704FEEF8EF7
:1026FB00F084E5F0FD900577E014F075F064A42408
:10270B0019FFE435F0CF2DCF3400FE80047E007F1F
:10271B0000D15DF1C9740212009422E53E24FD60E4
:10272B00261460162403702DF1775029C216D15D43
:10273B0090000174011200A68016D15D1213EB20DC
:10274B00E002800CD216229000B0120EB8B53F05F5
:10275B00740712009422E53E147010F177500C2090
:10276B001709D217D15D740412009422D15D900029
:10277B000712015BFFAEF0AD3F7C00D39DEE9C409A
:10278B0008EF9DFFEE9CFE80047E007F00F1C99058
:10279B00000712015B45F024FFB322E53E24FD60E8
:1027AB000D14600A2403700DF17750098000D15D80
:1027BB00740712009422AF2DEFC36001D322900057
:1027CB0007EE8FF0020193E493F5D1A3E493F5D2D6
:1027DB0022A21E22C21E228FEB22F1E980FE302F95
:1027EB00031253B7227F78E4FE91BAE5D620E108B5
:1027FB00E5D620E0030E8002E4FEEE20E402DFE9E2
:10280B00EEA2E422121FCDF47002EEF46004EF4E40
:10281B0070089003C4E0FF0204BA9003B874FFF58C
:10282B00F002012F900567EFF0113880FE900483C2
:10283B001147600271492211A29000EEE0FEA3E065
:10284B00FF4E229005711221F8311D11B1900571C7
:10285B00E06405701F740411A79000F07428F0A3B6
:10286B0074FCF0740131311144602B8F828E837FA5
:10287B0005020316900571E0700D90011B7413F0A7
:10288B009001197403F022114460098F828E837FAB
:10289B000412031611A22212522F7401900119F087
:1028AB00E490011BF0229004B9ECF0A3EDF090043E
:1028BB00B6125886FFF4600302321F9004B9E0FE93
:1028CB00A3E0FFA371649004B6712F9004B651FF7F
:1028DB00B4FF061142600231A52290056F1221F858
:1028EB0090056FE07004311D80BC1142600231A570
:1028FB0022900570EDF0EF7018900119E0B404040C
:10290B00311D80A2114260098F828E83E4FF120376
:10291B0016227B017A01791A7C297DAE9004BB7457
:10292B00FEF0A304F022780BF2E4FF900574EFF0B5
:10293B007196780BE2FF6403605BEFB40402805581
:10294B00780BE2B40107C209E5567001F2780BE28D
:10295B00701AFF123325C209E4780EF2200D0B78A2
:10296B0011E2543070047F019159C20D9000F012A6
:10297B0032386018780BE2FF8D828C83AD561203D0
:10298B0016780BE270069000F0F0A3F0780BE2B42F
:10299B0001077403F27F047171228F828E837F0192
:1029AB0002031690011BE004F0D394144008114469
:1029BB00600231A511A22290055DEFF06556604DC6
:1029CB00E4A3F090055EE0FFC394025022EF511D8B
:1029DB00E0FEA3E04E60105119E0FEA3E0F582315A
:1029EB00A75119E4F0A3F090055EE004F080D490B9
:1029FB00055EE0125722E4F0C21790055DE0B4FECD
:102A0B000C7FFE5134EF512C76070876D0229005BF
:102A1B005EE075F04BA42423F582E43400F58322A9
:102A2B00EE25E025E02443F822EF70027FEF9005BE
:102A3B007874FFF0FDFCE4FE512BE6FA08E6FBD3BD
:102A4B009DEA9C5006AC02AD03A906518CE6B50776
:102A5B0004A9068013512BE6FA08E64A7005900587
:102A6B0078EEF00EEEB402D0EEC394024010900557
:102A7B0078E0FE94FF5002A906E9518DA607AF013D
:102A8B0022EE25E025E02441F822E4FFEF512CE66D
:102A9B00FC08E64C6019EF512C08E616187001166D
:102AAB001486044C7009713676FFEF518DE4F60FE6
:102ABB00EFB402D822EFB55602D322EF70027FEFAC
:102ACB00E4FE512BE6FA08E64A601FEFB4EF08511B
:102ADB008CE6B4FE02D322518CE6B5070DEE7137AE
:102AEB00E66D6004EFB4EF02D3220EEEB402D3C353
:102AFB00229004931201FB02004E90049312021BCE
:102B0B009004931201FB1217F8AE04AF05900498D2
:102B1B007164900493712F51FCB4FF04E412009480
:102B2B0051FCFF221201FBEF020094EF25E025E0A0
:102B3B002442F82290048511476002714922AA06AB
:102B4B00A907020312900489114760027149229070
:102B5B00048711476002714922E0FDA3E0FBE4907A
:102B6B0004F7F0021877900573EFF07196900573E8
:102B7B00E060049000EDF07E2B7FA67BFF7D2F7134
:102B8B00697810EFF2BFFF0271A6227810E2FFF412
:102B9B0060031204BA781074FFF2229000EDE0FF8C
:102BAB0014F0EF70157196780BE2B403028006787F
:102BBB000BE2B40405E4F2FF3136227BFF7D01808A
:102BCB009D900548EDF0900546EEF0A3EFF0C39411
:102BDB0080EE94005035900546A3E0FF2400F5826B
:102BEB00E43402914D605A1258C2F583EDF0D225B0
:102BFB00900512E070107E517F4C71C6900512EF5C
:102C0B00F0BFFF02E4F09005138033900546A3E07C
:102C1B00FF2480F582E43402914D60251258B9F5FA
:102C2B0083EDF0D226900514E070107E517F697110
:102C3B00C6900514EFF0BFFF02E4F0900515741475
:102C4B00F022F583E0FE900548E0FDEE6D22E4F501
:102C5B003BEF24FF9215EF600302573D7BFE7A009A
:102C6B0079180217F87E2F7FCBE4FB7D017169BFCA
:102C7B00FF02F1CB22900551EF120EAC125822330A
:102C8B00333354F8900552F0200C02A134900552C6
:102C9B00E0FF900551E0FEC39F504FEE131313540A
:102CAB001FFFF1EBA3B146E0FD7C00EE5407FFF1F3
:102CBB00E38005C333CE33CED8F9FFEE5CFEEF5D78
:102CCB004E601F900551E090011CF0124F42AD0772
:102CDB0090011CE004FF7A2F7B85124517EF704B98
:102CEB008083900551E004F080A3C212C20C1246FF
:102CFB005F7407F0E4A3F0780B7403F27F01300BE1
:102D0B00027F027B017A0079F21244BC9002F174CB
:102D1B0003F09000F71258139000F6E0FBAD56123B
:102D2B001CEFEF70067F022136C21222E51025E060
:102D3B0025E024BFF582E43407F583E5822FF58285
:102D4B00E43583F583229002CAE0FFB137E0FEE45D
:102D5B00FDB17F2DB149E0FCC39401400CEC9E50BA
:102D6B0008B17F2DB149E004F00DEDB404E3B137A8
:102D7B007401F022E51025E025E024BFF582E43450
:102D8B0007F583E5822204FFAD4AE4FEEEC394040B
:102D9B005015AC060EEDB1812CB149E0B507EDEE47
:102DAB0014FF9002CAF0227F0022F9E43AAD0190A1
:102DBB00054AF0A3EDF01233BA900502EFF0C3947D
:102DCB00024002E174900502E024D8F582E4340756
:102DDB00F583E0FFE4F54AEF65536010744B254A29
:102DEB00F8E66F600512591C40F2054AE54AD39488
:102DFB00054002E174900503E54AF0246E120E8B38
:102E0B008F50E5505430FF6026F17554C7F074DADB
:102E1B002EF17C4410F0900502E0FE24E4F1D8542E
:102E2B00E7F074E42EF1D8FEEFC313FFEE4FF090F2
:102E3B0005057404F012584EE4900504F0F1CF50E0
:102E4B0044F1755407FDEFC39D500AEE125842B181
:102E5B0044E0FF800C900504E070047FFE80027F4D
:102E6B0000900506EFF0E0FFC007900504E0254950
:102E7B00120E8BC3D0E09F900506F07008900504EE
:102E8B00E004F080B8900504E064047002E174740F
:102E9B00042549F549900505E014F0E0D394005062
:102EAB009712584EE4900504F0F1CF501BEFB191FF
:102EBB00EF75F004A42549124F1F120E8FEF600817
:102ECB00900504E004F080E1900504E0C394044015
:102EDB00037403F0900504E0B191900504EFF01238
:102EEB0058D4900502E0F17A5407F550E4900505AB
:102EFB00F0E550700BE02549FFE433FE7DFE801CAE
:102F0B00900505E0FFC39550501D900502E0125847
:102F1B0042B144E0FDE5492FFFE433FE12084C902B
:102F2B000505E004F080D9900505E0FFC39404503B
:102F3B0006E5492F120846E54A246E120E8B8F5078
:102F4B00900502E0F17A5438C39410500DF1C08013
:102F5B0002C333D8FCF45250800AF1C08002C33351
:102F6B00D8FC4250E54A12583722900502E0FE2465
:102F7B00DAF582E43407F583E02290011CE090053A
:102F8B0072F0EF6028E0FF131313541FFEF1EBA355
:102F9B00E5822EB149C083C082E0FEEF5407F1C435
:102FAB008002C333D8FCF45ED082D083F0900572DC
:102FBB00E004FF8180900504E0FF7401A80708225C
:102FCB00E4FF80B6900504E0FFC3940422F582E48D
:102FDB003407F583E022B19574017E00A80708221F
:102FEB0090013CE0FCA3E0F5828C83A3A322900527
:102FFB005F12305FC003C002C00112059A9004B388
:10300B0012021BD001D002D00311587002D32290B0
:10301B00055FE0FEA3E0FFF5828E83A3E0FD8F82C8
:10302B008E83E04DFF90055FE0FCA3E0FD122FF2D5
:10303B00E04FFF8D828C83A3A3A3E04FC37001D31A
:10304B00229004B312021B7B017A0279817F041256
:10305B0007AEEF22EEF0A3EFF0AA06F97B01227484
:10306B00031196741011967401119F7BFF7A0079EE
:10307B0003C003C002C0019002E51201FB1202441F
:10308B009002E81201FB7405020094120094900266
:10309B00E20201FB9000010200A69004CA121FB6C7
:1030AB0002021B314AE5907F0130E7027F00EF609F
:1030BB00189004D3E0D39464748094805004E0049B
:1030CB00F0229004D17402F0229004D3E0FF606EE2
:1030DB007E00121FD74067EF943274809480504E5D
:1030EB009004D17401F0E49004D3F09004D5E00483
:1030FB00F0E0640170157E317FA17B017D641218B5
:10310B00719004D4EFF0F47035F0229004D5E064A4
:10311B0003702B9004D4E0FF600E9004D17404F084
:10312B001204BAE49004D4F0E49004D5F022900495
:10313B00D1E0640270087403F0E49004D3F0223100
:10314B00649004D0E0FF9004D2E0FE6F600A201E72
:10315B0007D21E9004D0EEF022E59054029004D2D8
:10316B00F0223164E09004D0F0C21EC21D22E49024
:10317B0004D1F09004D3F03198316D7E307FAE7B6B
:10318B00FF7D01121871EFF4D37001C3229004D5A7
:10319B00F09004D4F022E480F49004D1E0FD6402BA
:1031AB006002E4F0AF05229004D2E024FF22A21DBE
:1031BB0022A227921D229004EFECF0A3EDF0AA07B8
:1031CB00AF03EF70010FEF75F005A4FFAEF0EA51FE
:1031DB0013F583EEF0A3EFF0EA1223A8EEF0A3EFC2
:1031EB00F09004F2E0FFEA75F007A424CEF582E438
:1031FB003403F583EFF09004EFE0FEA3E0FFEA5118
:10320B0047EEF0A3EFF022EF75F007A424CAF58286
:10321B00E4340322513F50125112F5835138600AA6
:10322B00EF1223A8ECF0A3EDF00EAF0622E0FCA307
:10323B00E0FD4C22E4FE1FEFC3940A2275F007A4B5
:10324B0024CCF582E43403F5832290047312403AC4
:10325B00ECF0A3EDF0A312021B90047A7401F09032
:10326B0004751238136039900473E0FEA3E0FF90ED
:10327B0004771201FBEA494B600C90047712079715
:10328B0012004EFD80027D0012084CEF14FF9004DB
:10329B007AE02FF0900473E475F00112012F80BFD8
:1032AB0090047AE0FF2290052212592C12084C90C0
:1032BB0005221201FB7D0451EF51557F012271064E
:1032CB001252A578131201C00000000012059AE4F7
:1032DB00FD51B151F651E75155020F957B007A0024
:1032EB0079007D737C007F017E00227F0274D72FD3
:1032FB00D13FE4F0DFF79007D7F02290015B740128
:10330B00F0E4A3F09000FA04F0E4A3F090013C7415
:10331B0001F0A37459F0C208E4FFEF6040D21AD158
:10332B0005EF6401703B9007D9E09007D8F0E4A358
:10333B00F09007DBE09007DAF09007E5E09007E408
:10334B00D147E4FF74E02FF582E43407F583E0FE08
:10335B0074DC2F71B2EEF00FEFB404E822C21AC284
:10336B000A2290048CE0FF7125D20A22300A0878D9
:10337B000BE27003FF712530112290040EE0A3E0E5
:10338B00FFC39539400BEF9539D39402400EC21110
:10339B0022E539F42FD394014002C211229004C3C9
:1033AB00E025E025E024DCF582E43407F58322AD4B
:1033BB00077FFF3019028153AF05D105EFF470245D
:1033CB00D14F5017E004F0E4FFB1CEE060050FEFF2
:1033DB00B402F6EFB4020D7F018009201A04E4FF5A
:1033EB0080027F0190054AE0FAA3E0F5828A83E030
:1033FB00540FFEFCD122F583ECF0B1CEEDB1F7D139
:10340B0022F583E04410F0EE6036E4FEAD041CEDD3
:10341B00603490054AE475F001302E1112012FB182
:10342B00E0FDAB060EEF71ACE5822B800C12012F89
:10343B00B1E0FDEF71ACE5822C122D49EDF080CCA3
:10344B00EF71AC74FEF0D219229004BDEEF0A3EF35
:10345B00F020190B20070BB1E71217DE20E7037FD3
:10346B00FF229004BDD15CF97B011213EBFF655673
:10347B0060028004121732FF9004C2EFF0D1059066
:10348B0004C3EFF0F4704CD14F5033E004F0E490F0
:10349B0004C3F09004C3E0FFC39402500DB1CEE01F
:1034AB0060089004C3E004F080E99004C3E0B40228
:1034BB00037401F09004C3E024FF92188015201AC6
:1034CB000CB218A218E4339004C3F080069004C326
:1034DB007401F0B1E71217DE20E702A19712140373
:1034EB00C4540FFF9004C1F09004C3E0FEB1EFF59C
:1034FB0083EFF01217E930E32E9004BDE0FCA3E05C
:10350B00AA04F9121403C4540FFD7C001239E0E92C
:10351B002DF9EC124EDE5418FF74E42EF582E434D0
:10352B0007F583EFF080089004C3E024E4B1FBB10E
:10353B00E7FF240BF9E43EAD01A3F0A3EDF0AA06DF
:10354B00A9077B011217E920E0219004C1E0FF14C9
:10355B00F0EF604A9004BFB1D9FF9004C1E0FE7157
:10356B00A8E5822E122D49EFF080DFE4FF9004C115
:10357B00E0FE14F0EE60279004BFB1D9FEAD070F4B
:10358B0071A8E5822D122D49EEF080E19004C3E085
:10359B00FFB1EFF583E4B1F7EF71AC74FEF090047B
:1035AB00C3E0B1EFF583E0FF7E003007027E10EF42
:1035BB004EF09004C2E0FEA3E0FF24D8B1D1EEF0B0
:1035CB00D2192274D82FF582E43407F58322E475DF
:1035DB00F00112014585F082F583E0229004BDE0F5
:1035EB00FEA3E02224DAF582E4340722F074E42F00
:1035FB00F582E43407F583E4F0227E02EF60159048
:10360B0007D7E0600F74D72ED13FE0B50704EE1457
:10361B00FF22DEF17FFF2274DA2FF582E4340722DA
:10362B00D105EFF46008201A05B1CEE4D147229101
:10363B0054022DC4F582E43407F58322F09007D7AA
:10364B00E014F0229007D7E0C39402229E9004EB83
:10365B00F0E0FEA3E0AA062290055BEFF0A3740254
:10366B00F0EF60609007D7E0605A90055CE0FF24B4
:10367B00D7D13FE0FE90055BE06E704074D92FF51B
:10368B0082E43407F583E0FE123D3BEE7F0130E42C
:10369B00027F0290055CE0FE24E3F582E43407F53B
:1036AB0083E054184FF511EE75F004A424D8F97487
:1036BB000735F0FA7B01123D487F012290055CE053
:1036CB0014F070A67F00227862E6540F6404705DDC
:1036DB007866E6655670569002BBE0B40403740539
:1036EB00F09002BAE04410F090029CE030E323A388
:1036FB00E0C4540FFF123C93E0540F70151258594D
:10370B00E05460600DF1D32403F1DC7BFF7D780284
:10371B004050F1DBF1D3FD7864E67C0030E1027CB4
:10372B0001EC243E8DF0A4FD7BFF02401890029823
:10373B00E020E7109002C0E0F46003122D517E02EE
:10374B007F93D13A9002BAE0FF786BE6FC08E6FD76
:10375B00AA044A6028EF30E219900280E060092445
:10376B0005FF8D828C838012F1CCF5828E837F01D5
:10377B008008F1CCF5828E83E4FF1203169002BA17
:10378B00E05480F0E51F6003D51F129002BAE030C1
:10379B00E7028024E49002BBF0C2018021121E4C90
:1037AB00FF7B007A00796D1207A27A00795F120510
:1037BB00C07862E6FF1239E8123D4E7F00227F018E
:1037CB0022786BE6FE08E62290029DE0C4540F229D
:1037DB00E49002BDF07E387F682290049A12403A42
:1037EB0012021B90049F123813601C90049AE4750C
:1037FB00F001120145AFF0FE120E8F90049C1207E0
:10380B0097EF12009480DC2274FFF5F0120145450E
:10381B00F022112E9004E1E0FD90049FE4F0A3ED63
:10382B00F080B7EF2480FFE43EFE22112E9004A619
:10383B00E0FCA3E0FD02325590052512021BAE05FC
:10384B001DEE600C900525120797EF12009480EE89
:10385B00227B007A00794B7D05E4FF80DB7862E602
:10386B00540F90056DF09002BDE0600614F06002FD
:10387B0021D91217F59002BBE0FF64046007EF64D7
:10388B0005600221C47863E654FEF630020D785FC2
:10389B00E630E507E4900280F02127785FE630E21E
:1038AB007B7861E6FFD39404504CEF6404701CE505
:1038BB00109002C06008E004FF12409B8006E004F9
:1038CB00FF1241BA9002C0EFF080257860E630E13C
:1038DB001254FDF67865E6FF1236637864A611780C
:1038EB006280337865E6FF124157500478617604A5
:1038FB0091D5500221C27861E6C39405501E7865BC
:10390B00E6FF12470BB3921FC22091A1EF4401783F
:10391B0062F618760508E6FF31E821C290056DE0E6
:10392B00B404077865E6FF12362B30020221D478F7
:10393B0061E6C39406400221D418E620E00221D4AC
:10394B007865E6FD78671201D9786AE690046FF026
:10395B00785FE654034401A3F0786BE6FF08E6A317
:10396B00CFF0A3EFF07866E6FF121060EF605A120B
:10397B00110E1217E31257C8FF114312110E7405E3
:10398B0012110B1257FF786B76560876DD7864763A
:10399B00021213EB785FF61217EF786AF6919DEF30
:1039AB0044067862F612110E31E078671201F27854
:1039BB006176067F0631E8A14E9002BBE0600A12E9
:1039CB0037DB7BFF7D040240187F0412375422C47F
:1039DB00540FFF7E00E9240BF9E43AFA22EF540F5F
:1039EB00FC64036009E49002BDF0900280F0918AC0
:1039FB00FE900299E054F04EF0EC14604514700206
:103A0B0061BD24FE700241B924FE700261F22403F1
:103A1B006002815912059A1207A27A027985124F18
:103A2B0010900289E556F0A37403F0E51E540FFFC6
:103A3B00A3E054F04FF0A3740AF09002BAE0448074
:103A4B00F0229002987401F0785FE630E01D20E7D9
:103A5B0002800C7883E6540FFFBF0F07900298E0AB
:103A6B004440F09002B97403F080029169785FE6EC
:103A7B0030E707900298E04480F07811E2FF7E0077
:103A8B0030E5027E20EF7F0030E4027F40EF4E54A2
:103A9B0060FF900299E0549F9178786AE6240A912E
:103AAB005A7409918220E10261EF917061EF785FA6
:103ABB00E630E64978671201D9124EE054F0FFC4A4
:103ACB00B13B1258E5B1489002C4E02402FF78677D
:103ADB001201D91207A27B017A02799C1205C090C0
:103AEB0002C4E0FF2402FDE433FC7869ED26F618EE
:103AFB00EC36F6EF2403FFC3786AE69FF690029844
:103B0B007401F04480F0785FE69002B930E0057400
:103B1B0003F080037401F0E490029CF09002C4E087
:103B2B00FFC454F090029DF09002C11207A07B01DC
:103B3B007A02799E1205C07864E6FC5418FE603751
:103B4B007866E66556703090029CE0FD20E02878A0
:103B5B0060E620E122ED4408F0A3E0C4540FFF918E
:103B6B00937410F0EE25E025E0FE125859EEF0ECC0
:103B7B0054E77864F6800790029CE054F7F09002CB
:103B8B009CE030E30FA3E0C4540F9193E0C4540FB7
:103B9B0004FF80027F009002C4E0240B2FFD917A7A
:103BAB00AF05EF04786A26915AAF059002BEEFF08D
:103BBB0080329002987402F090029B741DF0900278
:103BCB008E1207A07B017A02799C7F1D1205C09192
:103BDB00697D26742604786A26915A742691823060
:103BEB00E10291700205A178671201D91207A27B3D
:103BFB00017A0279937F111205C07869741126F648
:103C0B0018E436F6786A74EE26F6785FE620E6332B
:103C1B00786A06125924A37405F0918AFFA3E05425
:103C2B00F09178786AE6241290029AF0785FE6FDBC
:103C3B0030E007900298E04440F0ED30E1029170E3
:103C4B001205A19169A391619002BE7411F02290AB
:103C5B00029AF09002BAE05480F04440F0229002B5
:103C6B00B97401F022900298E04420F0224FF078D2
:103C7B0065E690029BF0229002BEF0785FE6227818
:103C8B0062E654F0C4540F22249EF582E43402F50C
:103C9B008322D21FD2207F1D301F027F1CA807302A
:103CAB002013E6FF54F0FEBEF004EF540FF6741031
:103CBB0026F6E68011E6FF540FFEBE0F04EF54F01C
:103CCB00F606E6540FC454F0FF229002C0E0F460F5
:103CDB0053787BE67865F67881E6FF5406FE25E09F
:103CEB0025E0FDEF7F0130E4027F02ED4F7864F6B3
:103CFB00EE60067860E654FEF6B1387F0160027F15
:103D0B00047862A607B142E6FD7864E6A2E1921F51
:103D1B00EDB40403D38001C3B131FF7862F6D20353
:103D2B0031E8D322C322922091A1ED4F22787CE679
:103D3B00540F9002C4F0227B007A00797D9002C16F
:103D4B0002021BF1A31227C1400DE52E20E20890C1
:103D5B0002BB7401F0B163221227C15002C18790DC
:103D6B0002BBE0B404037401F01252AE503A124796
:103D7B00F61217F8C2007804E204F2D394644019E7
:103D8B001217F5F19BE47804F2E51F60091237CCAA
:103D9B00FF4E6002F1AC0237883007047F028006C9
:103DAB00F1CBEF2402FFE1E7E47804F29002BAE0F2
:103DBB0030E73DA37402F07F01300701FF90028AC8
:103DCB00E07B0030E5027B02C0037B017A02798540
:103DDB0090045012021B9004537408F07A02798DF0
:103DEB00A312021B9004577401F0D003E4FDC184AD
:103DFB00300003C200229002BB7403F09002BAE0C1
:103E0B0054DFF07864E6FF540770097D01124F9F71
:103E1B007864A607785FE65422F512F194BF060783
:103E2B0090029CE030E10BE51220E5097865E6B4E1
:103E3B00FF0343120853120A7860E630E1067864F8
:103E4B00E654E7F6F194BF04047FE780027FFFEFAF
:103E5B00786456FF18E65401FD900450124F3090D1
:103E6B0002BEE0900453F078671201D9A312021B33
:103E7B00786AE6900457F0AB1212251A22D228F179
:103E8B00A39002BBE06402704CF19B30E308E0545A
:103E9B00F7FFF0023754E51F60169002BAE020E6F8
:103EAB000F1217F51237CCFF4E6002F1AC023788B8
:103EBB009002BAE0FF20E602E18930E506A3740424
:103ECB00F0E18EEF30E4089002BB7405F0E18EB1A7
:103EDB004EC228E18E9002BBE064036002E1899040
:103EEB0002B9E0603E14F0603AA3E04420F030E702
:103EFB0006B163C22880069002BB7404F0F1CB902C
:103F0B0002BDEFF07E477FFD900298E030E7109006
:103F1B00029CE020E009F1C0B504047D07804CF160
:103F2B00B58048785FE630E049900298E0540FFF87
:103F3B00BF0503D38001C340399002BAE04420F09F
:103F4B0030E706B163C22880069002BB7404F012FE
:103F5B0037DB900298E030E71090029CE020E009FC
:103F6B00F1C0B504047D078002F1B57BFF12401848
:103F7B008011E4FF123754EF24FF92288005E49060
:103F8B0002BBF0A228E433FF227862E6540FFF2233
:103F9B009002BAE0547FF0227BFE7A007909021777
:103FAB00F88F828E837F02020316786AE675F00A19
:103FBB00842406FD22A3E0FDC4540FFCED540F2214
:103FCB0012518DEFC4540F6FFEEFC41354076EFEE6
:103FDB00EFC413131354016E5403FF227BFE7A00BC
:103FEB0079097C3D7D4E900498EFF0E4A3F0022B11
:103FFB00057864E630E115EF2403FFE433FEEF7838
:10400B0002CEA2E713CE13D8F8FF8000229005282A
:10401B00113AEBF0AF051131114190052811489081
:10402B000499F0022B05123FFC900498EFF022EE5E
:10403B00F0A3EFF0A3227B017A0279BC22E0FCA370
:10404B00E0FDA3E0228F828E83AE03AF051141AC5E
:10405B0083AD82900498EFF0A3EEF0022B05E49071
:10406B000569F0F0900569E0FFC39406500A1184CE
:10407B00900569E004F080EC22E4FEEE04FDEF1203
:10408B002D812E122D49EDF00EEEC3940440EC223F
:10409B0090056AEFF031395060314A2408FFE43E55
:1040AB00FE120E8F787BEFF660473141122D95EFA4
:1040BB0075F004A4FBAAF0314A2409FFE43ECF2B90
:1040CB00CF3AFE5170F01237E590056A51566029D0
:1040DB00E4FF747D2FF8E6700E90056AE0601AEF2E
:1040EB00701774FFF08012787C060FEFB404E38036
:1040FB000890056A7404F0809C3139400574FFF018
:10410B008026E510246E120E8BAB073141122FE186
:10411B008005C333CE33CED8F9FFEBFDEF5D7006D0
:10412B00788176088002517F90056AE0FF22900526
:10413B006AE0C394042290056AE004FFAD1022AF3D
:10414B00107E007C007D111200C8EF2290056CEFF1
:10415B00F0514F7819EFF27510FF9002C0E510F097
:10416B0090056CE0B5070EE4FF31BA9002C0EFF09A
:10417B00E4F510802FE4F512744B2512F8E6FF904E
:10418B00056CE06F60090512E512C3940540E9E583
:10419B0012C39405500EE51204F510E4FF119B9029
:1041AB0002C0EFF0E510C394FF50028001C32290D0
:1041BB00056BEFF0513E5046514F787BEFF6603672
:1041CB005146122D95EF51645170F01237E5900561
:1041DB006B51566029E4FF747D2FF8E6700E900545
:1041EB006BE0601AEF701774FFF08012787C060F8B
:1041FB00EFB404E3800890056B74FFF080B6513E7A
:10420B00400574FFF080267F6E7E00120E8FAB0789
:10421B005146122FE18005C333CE33CED8F9FFEBD5
:10422B00FDEF5D7006788176088002517F90056BFB
:10423B00E0FF2290056BE0C394042290056BE00431
:10424B00FFE4FD227F087E00020E8FE0C454F0785D
:10425B007CF608E664FE22E55D75F004A42409FFF4
:10426B00E435F0FE227B007A00797D90049FE4F028
:10427B00A3740422EB5430131313541FFFEB54C0DD
:10428B0044104F7881F6229002D2EFF0E51F707147
:10429B009002BBE0706BAF057866A60718A603907B
:1042AB0002D2E0700FAF03F10B7F0250027F01903F
:1042BB0002D2EFF0E4FE9002DA711160050EEEB45B
:1042CB0004F4786176039002C4EEF09002DA1201E6
:1042DB00FB123D48EE7D0470027D019002D5120168
:1042EB00FB9002D8E090045DF09002D9E090045E60
:1042FB00F09002DD718A9002D2E0FF121EFE7F0168
:10430B0022D2037F00221201FB8E827583000200F2
:10431B00677182F5827116FFED5407FEEFA8060850
:10432B008002C313D8FC5401FF2290052E12021BEE
:10433B009002C4E0B5071190052E1201FB1213EB8E
:10434B00FE90029BE06E6002C322E4FEEEC39F5020
:10435B001990052E1201FB1239E07177FD9002C105
:10436B0071116D6002C3220E80E2D322EE7C002914
:10437B00F9EC3AFA02004E1DED131313541F22E011
:10438B00FFA3E090045FCFF0A3EFF02271822971BD
:10439B00B271CC088002C333D8FC4F020094900456
:1043AB00611201FBE92407F9E43AFA02004E71822B
:1043BB002971B271CC088002C333D8FCF45F0200C0
:1043CB0094FFED5407FE7401A806229005431202D8
:1043DB001BAC07AF040CEFC394E8501090054312CD
:1043EB0001FBAD04711CEF60EAAF04227F00229049
:1043FB0004E212021BE5536005120FF26002C322A6
:10440B00E4FFEFC39D500D9004E21201FB8F82710C
:10441B0016FE80027E00744B2FF8A6060FEFB40534
:10442B00E19004E6E0FCA3E0FD7F01913CEF24FF6B
:10443B0022900553EFF0A37407F0E5536005120FBC
:10444B00F260037F00229001197402F0AF05900017
:10445B00EEECF0EFB1A67415F07B007A00794B12FD
:10446B0007A20B7A0179407F051205C0900553E036
:10447B00600C90014574FFF0900554E004F091B688
:10448B00900554E09002F1F0A37405F0A37428F0AA
:10449B00A374E5F0AB53B1B2700E90011904F0E4C4
:1044AB009000EEF0A3F0FF227F01227B017A0179CD
:1044BB003E9002EE02021B90051B121FB6EAF0A300
:1044CB00EBF07B017A01793E1205DE300E0CC20E49
:1044DB0091B691F991F07F02800891B691F991F024
:1044EB00E4FF021CEFF090051BE0FBAD5622780DAC
:1044FB00E29002F1F090051CE09002F2F090051DA5
:10450B00E0FFA3E09002F3CFF0A3EF229001FC12A7
:10451B001FB6EAF0A3EBF0D15F7418F09001FDE049
:10452B00FFB1749000F4EFF09001FDE09000F5F016
:10453B00755001780EE2FF600C7F10B402027F0809
:10454B00EF4402F5507B017A0079F291BC9002F1B5
:10455B007404F0A37411F09001FEB10BF09001FC08
:10456B00E0FBAD56AF50021CEFD1572F90002893B4
:10457B00FF22900557ECF0EDB1A604F0D206AB0785
:10458B00C00391B69002F17402F0A37405F090058C
:10459B0057B10BF0D003B1B224FF22A3F090013E30
:1045AB007401F0A322E0FBAD56E4FF121CEFEF22E7
:1045BB00EF6003780AF22002537803E230E04D906B
:1045CB0002BFE0FF90028E1201FB71D69002BFEF8B
:1045DB00F060397806E2C330E501D392069002CF42
:1045EB001201FB91BC7808E29002F1F07803E2D162
:1045FB00729002BFB1B07027780A7402F2900291E8
:10460B00E0FEA3E0F5828E837F028010780AE2FF42
:10461B00900291E0FCA3E0FDF5828C83120316223D
:10462B00B1A87417F0EF7006A37405F08006900123
:10463B00407404F091B6D167E4A3F0A3F0AB51AD95
:10464B00567F01021CEFE4780EF2A117E53054F00F
:10465B00C4540F229000F27401F0A3229002F17463
:10466B0003F0A37405F022A3F0A37445F0A374BB6D
:10467B00F022D157FEEF90001E932E90000E93FF69
:10468B0022900555EEF0A3EFF0120F67900555E061
:10469B00FCA3E0FDE4FF813CC201EF60457882E6BC
:1046AB0020E03F08E6C454F0440518F608E6FF5432
:1046BB00F0FEEF24FE540F4EF6EEC4540F2402FE10
:1046CB00C2037F013007027F0290029BE0FD1217AD
:1046DB00CF91BC9002F1EEF104D1EE900297E0FB8A
:1046EB00D1F6227448F0A3742CF022121CEFEF24A5
:1046FB00FF9201229002F1E554F0A37481F0A32202
:10470B00900575EFF0123605D22CEFF4600D74DACC
:10471B002F122F7CC320E401D3922C302C34E4FFD6
:10472B00900575E065536015744B2FF8E6FE900508
:10473B0075E06E60070FEFC3940540EC0FEFD39459
:10474B0005500FEF246E120E8BEF540FC37001D375
:10475B00922CA22C229002F612021BE51FC394028C
:10476B0050739002FCE0FE941940037F00229002EC
:10477B00FDE0FF54207806F2A3E0FDA3E090029148
:10478B00CDF0A3EDF09002F91201FB9002CF1202D3
:10479B001B7808EEF29002F61201FB90028E1202C9
:1047AB001BEF4420FF7803F2E4780AF2C202121ED8
:1047BB004C2466F8A656E49002BFF09002CF12018B
:1047CB00FB90045DEEF0EF54FED1727D027F01127F
:1047DB001EFE7F01227F00222000099002BBE060B9
:1047EB0003123D4EC200F1F60217F87BFE7A0079F8
:1047FB0007229002BBE0B4041E9002BDE070119042
:10480B0002B9E0640360067863E64401F6023D4EAC
:10481B009002BDE014F0229002BBE070031217F57A
:10482B002290056EEFF0C2012290052B12021B7F26
:10483B00FF90052B12079712004E6FFFDDF322E559
:10484B001E540F60127802E2FF651E600A30010AE7
:10485B00E51E54BFB50703D38001C3229004611238
:10486B00021B12022490046712021BD1C190000795
:10487B00E41200A6C204300C1BD1B71217E3540F7D
:10488B00FF6403600FEF64016002C1A91217E920F6
:10489B00E102C1A9E47805F2D1B71207A27A027935
:1048AB0081F110202F1012059A12304C6008124320
:1048BB00A944801200949004611213F430E75CE574
:1048CB0056603130152ED1B71217E3540FFF640524
:1048DB006049EF6401701D1217E330E717D1B7126F
:1048EB0014031239DAD1CBD1E69004B31205981226
:1048FB0030586027200902C110200D1FD1B71217A5
:10490B00E320E717E92409F9E4D1DEB4030DD1B7AD
:10491B00D1D2D1E612304C7002C110D1B71217E3CD
:10492B00FF540FFEBE010CEF30E7081217E930E31E
:10493B0002D2071217EF540FFF7E003007027E8062
:10494B00EF4EF51E7862E6FF7864E6FEEF54F0C496
:10495B00540FFDEF540FFFBF04047F4080027F0014
:10496B00ED4FFFEE7E0030E1027E80EF4E7802F2DB
:10497B00D1B71217E3FF540F24FE7002A15B147022
:10498B0002A1E824FE7002C10924046002C110EFE9
:10499B0020E702A10E431E40121403C4540FFF90D4
:1049AB000464F06006E0D394044009D1C190000781
:1049BB00E40200A6D1B712173265566002612C12C1
:1049CB0017E990046730E31B1201FB1239DED1CBE0
:1049DB0012004EFFC4540F29F9EE3AFAE92401F9FB
:1049EB00E4800D1201FB1214031239DAE92FF9EEF0
:1049FB003AFAC003C002C001D1C190000312029366
:104A0B00D1B71217E930E31F121403F1171239E073
:104A1B00E92D12437BC4540FFED1B71213F7C39F7A
:104A2B00C39E24F3FF8011D1B7121403C4540FFF9C
:104A3B001213F724F4C39FFFD1AA121403540FFFD0
:104A4B00900464E06F70791243A94409120094D169
:104A5B00B71217E330E6081243A94404120094D1AD
:104A6B00B71239E07E00D1CB90FFFFD1BDEFF10A39
:104A7B001213F730E7028192D1B71217E320E70246
:104A8B008192121403C4540FFF1239E0D1CB1200E0
:104A9B004ED3940140028192D1B71239E0D1DA643E
:104AAB000360028192D1B7121403C4540FFF123961
:104ABB00E0D1CBD1E61207A27B01F127D20581927F
:104ACB00D1B7121403540F640F600281921217E3D3
:104ADB0030E6081243A94404120094114A5016D12F
:104AEB00B7121403C4540FFF12433550081243A9D5
:104AFB004401120094D1B71217E9FF30E1071243BA
:104B0B00A944208009EF30E2081243A94440120067
:104B1B0094D1B790000BD1BD900008EF1200A68185
:104B2B0092D1B7121403FF540FFEEFC4540FFDEED6
:104B3B00C39D400281351239E0D1F6FA12004E6561
:104B4B005660028135D1B71217E930E06F114A5028
:104B5B00081243A9D1EE7405F2ED14900467B50663
:104B6B00081201FB900004800C1201FB1239E0D1FA
:104B7B00F6FA900001D1BD900008EF1200A6EE608E
:104B8B00028119D1B71217E920E30281191214031C
:104B9B00F1001239E0E92582F9E5833AFA12004E69
:104BAB00540F706AD1B7121403F1001239E0E925E2
:104BBB0082F9E583D1DE54186054804AEE90046785
:104BCB0070081201FB900004800C1201FB1239E0FB
:104BDB00D1F6FA90FFFFD1BD900008EF1200A6EDC1
:104BEB00146E702AD1B71217E930E3221214031294
:104BFB0039DAD1CB12004E540F7013D1B71239E002
:104C0B00D1DA546060081243A94404120094D1B75E
:104C1B001217E390046130E6071243AC441480058D
:104C2B001243AC4410120094805DD1B7121403549C
:104C3B000FFE114A5051D1B71217E930E020EE2484
:104C4B0002540FFE121403C4540FFFEEC39F5037D0
:104C5B00D1B71239E01243776556702B8021EEC322
:104C6B0094024023D1B71239E0AF06EF24FEFFE4E4
:104C7B0034FFFEE92FF9EA3EFA12004EB556081240
:104C8B0043A9D1EE7401F2D1B71213EB655660272D
:104C9B00C003C002C0019004B3F130D001D002D0E8
:104CAB00031230586002C110D1B71213EBFF900200
:104CBB0097E06F6002C110114A4002C110D1B712C8
:104CCB001403FF540FFE121732FD90029BE06D6030
:104CDB0002C110D1B71217E930E017EFC4540F24FB
:104CEB00FE540F6E6002C1101243A9D1EE7403F291
:104CFB00C110EE64016002C1101243A9D1EE740120
:104D0B00F2C110D1B7121732FF65566006EFF4608F
:104D1B0002C1101243A94401120094D1B71213EB34
:104D2B00D1C0900008D1B3D1D2C003C002C001D111
:104D3B00C1900003120293D1B71213F724F6FFD1DF
:104D4B00AA1217E320E602C1101243A94404C104BE
:104D5B00D1B712173254E0FDE556D39D5002C11066
:104D6B00121732541F75F008A42DF11FD3E556F11D
:104D7B00394002C110D1B712173254E0FFC3E556C8
:104D8B009F14FFD1D2EF131313541F12437AFEEF6C
:104D9B005407122FC48002C333D8FC5E60671243E2
:104DAB00A94401120094D1B7121732541FFF7E0091
:104DBB00E92409D1C7C003C002C001D1C1900003CF
:104DCB00120293D1B7121732541FFF1213F724F6A6
:104DDB00C39FD1C0900006EF1200A68028E51E5499
:104DEB000F60097802E254BF651E7019D1B7121714
:104DFB0032B556111243A944031200948007D1C156
:104E0B001211149204D1B71217E3FF540F6401600F
:104E1B0002C19EEF90046730E7141201FB121403DA
:104E2B001239DAD1CB12004E900466F0800C1201CD
:104E3B00FB1217E9900466F0D1D2D1E0900465F033
:104E4B009004611213F430094A54E2648070449068
:104E5B000466E064017034900465E0FF640860331D
:104E6B00EF64037026300D0BD1B7D1D2D1E61230DF
:104E7B004C6020D1B7D1D21213EBFF120EBB4FFFF8
:104E8B001217E34FFF1217EF4F60081243A954EAB2
:104E9B001200949004611213F430E002D2042290B9
:104EAB0004611201FB900006EF1200A6900467024A
:104EBB0001FB120067FF9004610201FBF9E43AFA6F
:104ECB00E92FF9EE3AFA22E92409F9E43AFA22E950
:104EDB002FF9EE3AFA900001020067E92403F9E496
:104EEB003AFA224403120094780522EE75830029C6
:104EFB00F9E5833A22FFC4540FF5827583002290A3
:104F0B0000080200A67B017F040205C0C4540FFFFA
:104F1B00FD7C00227C00FFEC35F0FE227A0279CB7F
:104F2B007F040205C07B017A02799302021B9FEE7C
:104F3B006480F874809822900540E0FDFFC37410E4
:104F4B009FFFE49400FEEFC4F8540FC868FFEEC453
:104F5B0054F048FEE53054F0C3F1397F005002AFF6
:104F6B0005227B017A01791FD1E0FF30E11112009C
:104F7B004E90000330E704740280117401800DEF32
:104F8B0090000330E3047404800274031200A61231
:104F9B000EBBFF22EF54F84DFF22785FE630E5029F
:104FAB00D20222123F94BF0417785FE630E20A90D8
:104FBB0002C0E0F46003122D519002BAE04408F0F5
:104FCB00221256CAEF60047F0180027F00125876CE
:104FDB001217E3FD30E504EF4402FFE51A30E70456
:104FEB00EF4480FFED540FFDBD0506EF4410FF802D
:104FFB0013BD010C12172CB4FF0AEF4404FF8004FD
:10500B00EF4408FF227FBD7E078F828E83E0B47A48
:10501B0006A3E0649C60360FEFAC0670010E14F52E
:10502B00828C83747AF00FEFAC0670010E14F5824C
:10503B008C83749CF0C3EF94E8EE9407500D8F8231
:10504B008E83E4F00FBF00010E80EAC322D322430C
:10505B00C20243C204E5C254024401F5C22280F2EB
:10506B00115D8F95AE04ED7803CEC313CE13D8F933
:10507B0054E0F594C2AF439401439402D2AF229013
:10508B000512E0FF1204BAE4900512F0C22590025B
:10509B007DE557F0FF0557EF5401FFC3747E9F90DA
:1050AB000511F090027E745AF011BE31447C027DE2
:1050BB000080AD7E027F007D7F311E90027F2290AB
:1050CB000512E07003302502118A900514E070037D
:1050DB0030260211E122900514E0FF1204BAE4908D
:1050EB000514F0C22690037DE558F0FF0558EF54E8
:1050FB000FFFC3747C9F900511F090037E745AF0E0
:10510B007E037F007D7F311E90037F31447C037DC6
:10511B0000016B900559EEF0A3EFF0E4FBFAAF053D
:10512B001DEF600D9005591235D92BFBE43AFA802F
:10513B00EDEAFFAD03ED2FFF22EFF0900511E0FF3D
:10514B0022E5C054C07005E52E30E00790051374BE
:10515B0014F022900513E014F07002118A22E5C0BE
:10516B0054C07005E52E30E0079005157414F0223D
:10517B00900515E014F0700211E12243C20453C2F2
:10518B00F9227812E264AA2411FFF222E52E30E212
:10519B000FE52E20E50AE52E30E0057F011221FCFC
:1051AB0022900534121FB6EBF07811E254306006F2
:1051BB0031F85002C322900535E0F4F5DC53B37F90
:1051CB00900534E0FF90017AB404087403F043B304
:1051DB00808002EFF0E5DC20E109E5DB5402F5B459
:1051EB0043B480900536E09007E6F0D322A211225B
:1051FB00E5567009510AE24F7003D38001C3227840
:10520B0013E2FF08E24FFF08E24FFF08227F002264
:10521B00EF7E0270027E01AF06EF302A0342DB22E3
:10522B00F452DB227B017A01791A90053712021BAB
:10523B00900537122AFFFF1204BA9005371201FBB3
:10524B0074FF020094A22B9208D322EF7002C322A8
:10525B00E4F549744B2549F8E66F60070549E549C4
:10526B00B405F0E549C394055024E54975F011A444
:10527B00241AF549E4F54AE54AC394105010E54960
:10528B00254A120E8BBFFE02D322519B80E9C3220B
:10529B007404254AF54A22AF53227B017A01793EE9
:1052AB000205DEE528D394015003301103D38001AE
:1052BB00C3227E10EE60091EEE90002893B507F412
:1052CB00EE90000E93FF2275BE08E5BE20E3FB9027
:1052DB007F82E493F52C907FB0E493B4421F907FD0
:1052EB00B2E493FFF460048F368007907F81E493E0
:1052FB00F536907FB3E493FFF460028F2C907F839D
:10530B00E493F5BEA3E493F5D9A3E493F5D4A3E416
:10531B0093F5D5907F91E493F5C5907F93E493F546
:10532B00C7907F95E493F5AB43D70875CD01E5CDD9
:10533B0020E0FB53D7F7E5CE540F2406FFD3940F91
:10534B0040027F0FEF4410F5CE907F92E493F5C6A9
:10535B00907F94E493F5B6907F8FE4934433F5C339
:10536B00E4F530E53090000E93D3953640070530C9
:10537B00E530B410EEE530C3941040057530FF8076
:10538B0007E530C454F0F5307F200225B6C2EBC2DE
:10539B00A9C211D2B9D2FB51D2C28D753104758C11
:1053AB00C1758A7F438901D2A9D28C22201309D2DD
:1053BB0013D210AF3612243E2253C3BF7529018579
:1053CB00262A85272B753440E4F52843C34022E475
:1053DB00FFFEC2EB53C3DF43C3400FEFC394344014
:1053EB0006EED394034047E5C020E542E5C030E428
:1053FB00FB75C010E5CAA2E59221A221302201B3B0
:10540B004010EED394024006EE24FEFD80177D0083
:10541B008013EEC394FF5009EE2401FDE433FC80AE
:10542B00047C007DFFCEEDCEA221922280ACE5C0A4
:10543B0030E53675C020E5C030E5FBE5C964557035
:10544B002075C020E5C030E5FBE5C965566008E571
:10545B00C9F460037F002243C32071C4D2EB7F01E8
:10546B0022E5C9B454037F33227F002271DAEFB4F3
:10547B000102D322EFB4330771DABF0102D322C387
:10548B0022C0E0C0F0C083C082C0D075D008E52E2A
:10549B0020E002A186E52D1202EC54C40154D40283
:1054AB00551503553704555505555D06556D08546F
:1054BB00E60954EE0A0000563475AC551533E53346
:1054CB006002C134752D02C13475ACF0E52E30E6A7
:1054DB0005752D09C134752D03C13475AC55752D6A
:1054EB000AC134E5382408F582E43537F583E0F555
:1054FB00AC752D01900541D13F700A7F401222E619
:10550B0075330AC134753314C1340538E538AE37F9
:10551B007002053714F5828E83E0FFF5AC6235150A
:10552B003AE53A6002C134752D04C1347829E4752B
:10553B00F0011201E212004EFFF5AC6235152FE5BA
:10554B002F6002C134752D05C1348535AC752D0620
:10555B00C134301002800643AB0175AC00752D08C9
:10556B00C134E5AD20E702C134C2EB53ABFE752D60
:10557B000075EE007F041225B6C134E528700EE5E8
:10558B00C054C06008752804753300C134E5286425
:10559B00046002C12D782975F0011201E2E5C912F0
:1055AB000094AF341534EF70028060C374409534AF
:1055BB00FFD394045036E534643F7025AB29AA2AF7
:1055CB00A92B90FFFF120067FE64556004EEB454E4
:1055DB000ED21190040EE0A3E0F53971C48002C223
:1055EB0011C3743F9534900576F0803DBF0820853C
:1055FB00C933E5C030E704C20F8002D20FE533D3C5
:10560B0094094007E533D39440401E71C4801AC3FC
:10561B007440953465337011300F02800A7528057C
:10562B008007E528B40502D149D0D0D082D083D0F1
:10563B00F0D0E03274FFF5F012012F45F022C2EBEF
:10564B007F021225B653C3BFE4F52822C0E0C0F099
:10565B00C083C082C0D075D008C28DC28C758CC17E
:10566B00758A97D28C900000E004F0053CE5317010
:10567B000E75310490040E75F00112012F80021586
:10568B0031D0D0D082D083D0F0D0E032ED600CE4BA
:10569B001200940429F9E43AFADDF422E4FFED60F8
:1056AB001A7E01EE600C12004E5E60010FEE2EFEB4
:1056BB0080F1740129F9E43AFADDE6227F002290A9
:1056CB0007D7E0B40206301A037F01227F0022C203
:1056DB001922AD077F0490051AE0FEC394025027F0
:1056EB00EE25E02416F582E43405F583EFF0AF05E3
:1056FB0090051AE0FE04F0EE25E02417F582E43461
:10570B0005F583EFF0D322C322E4FFEFF122E06033
:10571B00050FEFB402F52275F04BA4241AF582E4C1
:10572B003400F583227817E214F27005C215122C9F
:10573B00672278177478F27BFE7A0079187C577D94
:10574B003090049874FAF0A37478F0022B0543C2DE
:10575B000453C2F922900579EFF090051AE0602D01
:10576B00900516E0FF900579E0F8A607900517E085
:10577B00A805F67B017A0579181207A27A05791626
:10578B007F021205C090051AE014F0D32290057920
:10579B00E0F8E4F6C32275F04BA4241AF974003533
:1057AB00F0FA7B019000D202021B7A007BD59004A9
:1057BB007F7419F0A374C0F0E4A3F0A322442090EB
:1057CB0000141200A690001774401200A6E92418CA
:1057DB00F9E43AFA7D04E4229EFE9004EBF0A3EF89
:1057EB00F0F5828E83E4939004EDF022F0A3F0A306
:1057FB00F0A3F022900007740775F0D00201937BA1
:10580B00017A0079D50205C0E09002F2F0A3742969
:10581B00F0A37436F022FFF5828E83A3A3E022AFB0
:10582B00497E00E4FD12084C754A0122246EFFE408
:10583B0033FEAD5002084C25E025E024DCF582E474
:10584B00340722E54A75F011A42409F54922749F07
:10585B002FF582E43402F58322900441F0EE90049C
:10586B0040F0E022E92411F9E43A22AB13AA14A97F
:10587B001522900009E4F5F002019312021B0200BD
:10588B004E900490E0FF7404D39F22AB16AA17A985
:10589B001822E0FF7E007401A8070822E549255D68
:1058AB00FFE433FE22900017120067540F2274801E
:1058BB002FF582E434022274002FF582E4340222A5
:1058CB00900490E090050BF02225E025E02549F5AA
:1058DB004922E92405F9E43AFA22E92402F9E43AE7
:1058EB00FA22900003EF0200A6E92404F9E43AFA45
:1058FB0022E9240DF9E43AFA221200A690046FE093
:10590B00227401F090048BE022AF4A7401A80708BF
:10591B0022054AE54AC39405227866E6900297F081
:10592B002212021B7F057E0022E4FDFFFE020841CE
:107F8000002A140403601000460246000000062484
:107F9000F0140E06140800000000000000000000AD
:0D7FA000000003102A362A393D34323F001C
:047FB0004201FFFF8C
:017FB500FFCC
:00000001FF
